{
	"contracts/_dao_vote.sol": {
		"Voting": {
			"abi": [
				{
					"inputs": [
						{
							"internalType": "string",
							"name": "_proposal",
							"type": "string"
						}
					],
					"stateMutability": "nonpayable",
					"type": "constructor"
				},
				{
					"inputs": [
						{
							"internalType": "address",
							"name": "",
							"type": "address"
						}
					],
					"name": "hasVoted",
					"outputs": [
						{
							"internalType": "bool",
							"name": "",
							"type": "bool"
						}
					],
					"stateMutability": "view",
					"type": "function"
				},
				{
					"inputs": [],
					"name": "noVotes",
					"outputs": [
						{
							"internalType": "uint256",
							"name": "",
							"type": "uint256"
						}
					],
					"stateMutability": "view",
					"type": "function"
				},
				{
					"inputs": [],
					"name": "proposal",
					"outputs": [
						{
							"internalType": "string",
							"name": "",
							"type": "string"
						}
					],
					"stateMutability": "view",
					"type": "function"
				},
				{
					"inputs": [
						{
							"internalType": "string",
							"name": "_newProposal",
							"type": "string"
						}
					],
					"name": "resetVotes",
					"outputs": [],
					"stateMutability": "nonpayable",
					"type": "function"
				},
				{
					"inputs": [
						{
							"internalType": "bool",
							"name": "_voteYes",
							"type": "bool"
						}
					],
					"name": "vote",
					"outputs": [],
					"stateMutability": "nonpayable",
					"type": "function"
				},
				{
					"inputs": [],
					"name": "voter",
					"outputs": [
						{
							"internalType": "address",
							"name": "",
							"type": "address"
						}
					],
					"stateMutability": "view",
					"type": "function"
				},
				{
					"inputs": [],
					"name": "yesVotes",
					"outputs": [
						{
							"internalType": "uint256",
							"name": "",
							"type": "uint256"
						}
					],
					"stateMutability": "view",
					"type": "function"
				}
			],
			"devdoc": {
				"kind": "dev",
				"methods": {},
				"version": 1
			},
			"evm": {
				"assembly": "    /* \"contracts/_dao_vote.sol\":387:1160  contract Voting {... */\n  mstore(0x40, 0x80)\n    /* \"contracts/_dao_vote.sol\":601:702  constructor(string memory _proposal){... */\n  callvalue\n  dup1\n  iszero\n  tag_1\n  jumpi\n  revert(0x00, 0x00)\ntag_1:\n  pop\n  mload(0x40)\n  sub(codesize, bytecodeSize)\n  dup1\n  bytecodeSize\n  dup4\n  codecopy\n  dup2\n  dup2\n  add\n  0x40\n  mstore\n  dup2\n  add\n  swap1\n  tag_2\n  swap2\n  swap1\n  tag_3\n  jump\t// in\ntag_2:\n    /* \"contracts/_dao_vote.sol\":658:667  _proposal */\n  dup1\n    /* \"contracts/_dao_vote.sol\":647:655  proposal */\n  0x00\n    /* \"contracts/_dao_vote.sol\":647:667  proposal = _proposal */\n  swap1\n  dup2\n  tag_6\n  swap2\n  swap1\n  tag_7\n  jump\t// in\ntag_6:\n  pop\n    /* \"contracts/_dao_vote.sol\":685:695  msg.sender */\n  caller\n    /* \"contracts/_dao_vote.sol\":677:682  voter */\n  0x01\n  0x00\n    /* \"contracts/_dao_vote.sol\":677:695  voter = msg.sender */\n  0x0100\n  exp\n  dup2\n  sload\n  dup2\n  0xffffffffffffffffffffffffffffffffffffffff\n  mul\n  not\n  and\n  swap1\n  dup4\n  0xffffffffffffffffffffffffffffffffffffffff\n  and\n  mul\n  or\n  swap1\n  sstore\n  pop\n    /* \"contracts/_dao_vote.sol\":601:702  constructor(string memory _proposal){... */\n  pop\n    /* \"contracts/_dao_vote.sol\":387:1160  contract Voting {... */\n  jump(tag_8)\n    /* \"#utility.yul\":7:82   */\ntag_9:\n    /* \"#utility.yul\":40:46   */\n  0x00\n    /* \"#utility.yul\":73:75   */\n  0x40\n    /* \"#utility.yul\":67:76   */\n  mload\n    /* \"#utility.yul\":57:76   */\n  swap1\n  pop\n    /* \"#utility.yul\":7:82   */\n  swap1\n  jump\t// out\n    /* \"#utility.yul\":88:205   */\ntag_10:\n    /* \"#utility.yul\":197:198   */\n  0x00\n    /* \"#utility.yul\":194:195   */\n  0x00\n    /* \"#utility.yul\":187:199   */\n  revert\n    /* \"#utility.yul\":211:328   */\ntag_11:\n    /* \"#utility.yul\":320:321   */\n  0x00\n    /* \"#utility.yul\":317:318   */\n  0x00\n    /* \"#utility.yul\":310:322   */\n  revert\n    /* \"#utility.yul\":334:451   */\ntag_12:\n    /* \"#utility.yul\":443:444   */\n  0x00\n    /* \"#utility.yul\":440:441   */\n  0x00\n    /* \"#utility.yul\":433:445   */\n  revert\n    /* \"#utility.yul\":457:574   */\ntag_13:\n    /* \"#utility.yul\":566:567   */\n  0x00\n    /* \"#utility.yul\":563:564   */\n  0x00\n    /* \"#utility.yul\":556:568   */\n  revert\n    /* \"#utility.yul\":580:682   */\ntag_14:\n    /* \"#utility.yul\":621:627   */\n  0x00\n    /* \"#utility.yul\":672:674   */\n  0x1f\n    /* \"#utility.yul\":668:675   */\n  not\n    /* \"#utility.yul\":663:665   */\n  0x1f\n    /* \"#utility.yul\":656:661   */\n  dup4\n    /* \"#utility.yul\":652:666   */\n  add\n    /* \"#utility.yul\":648:676   */\n  and\n    /* \"#utility.yul\":638:676   */\n  swap1\n  pop\n    /* \"#utility.yul\":580:682   */\n  swap2\n  swap1\n  pop\n  jump\t// out\n    /* \"#utility.yul\":688:868   */\ntag_15:\n    /* \"#utility.yul\":736:813   */\n  0x4e487b7100000000000000000000000000000000000000000000000000000000\n    /* \"#utility.yul\":733:734   */\n  0x00\n    /* \"#utility.yul\":726:814   */\n  mstore\n    /* \"#utility.yul\":833:837   */\n  0x41\n    /* \"#utility.yul\":830:831   */\n  0x04\n    /* \"#utility.yul\":823:838   */\n  mstore\n    /* \"#utility.yul\":857:861   */\n  0x24\n    /* \"#utility.yul\":854:855   */\n  0x00\n    /* \"#utility.yul\":847:862   */\n  revert\n    /* \"#utility.yul\":874:1155   */\ntag_16:\n    /* \"#utility.yul\":957:984   */\n  tag_50\n    /* \"#utility.yul\":979:983   */\n  dup3\n    /* \"#utility.yul\":957:984   */\n  tag_14\n  jump\t// in\ntag_50:\n    /* \"#utility.yul\":949:955   */\n  dup2\n    /* \"#utility.yul\":945:985   */\n  add\n    /* \"#utility.yul\":1087:1093   */\n  dup2\n    /* \"#utility.yul\":1075:1085   */\n  dup2\n    /* \"#utility.yul\":1072:1094   */\n  lt\n    /* \"#utility.yul\":1051:1069   */\n  0xffffffffffffffff\n    /* \"#utility.yul\":1039:1049   */\n  dup3\n    /* \"#utility.yul\":1036:1070   */\n  gt\n    /* \"#utility.yul\":1033:1095   */\n  or\n    /* \"#utility.yul\":1030:1118   */\n  iszero\n  tag_51\n  jumpi\n    /* \"#utility.yul\":1098:1116   */\n  tag_52\n  tag_15\n  jump\t// in\ntag_52:\n    /* \"#utility.yul\":1030:1118   */\ntag_51:\n    /* \"#utility.yul\":1138:1148   */\n  dup1\n    /* \"#utility.yul\":1134:1136   */\n  0x40\n    /* \"#utility.yul\":1127:1149   */\n  mstore\n    /* \"#utility.yul\":917:1155   */\n  pop\n    /* \"#utility.yul\":874:1155   */\n  pop\n  pop\n  jump\t// out\n    /* \"#utility.yul\":1161:1290   */\ntag_17:\n    /* \"#utility.yul\":1195:1201   */\n  0x00\n    /* \"#utility.yul\":1222:1242   */\n  tag_54\n  tag_9\n  jump\t// in\ntag_54:\n    /* \"#utility.yul\":1212:1242   */\n  swap1\n  pop\n    /* \"#utility.yul\":1251:1284   */\n  tag_55\n    /* \"#utility.yul\":1279:1283   */\n  dup3\n    /* \"#utility.yul\":1271:1277   */\n  dup3\n    /* \"#utility.yul\":1251:1284   */\n  tag_16\n  jump\t// in\ntag_55:\n    /* \"#utility.yul\":1161:1290   */\n  swap2\n  swap1\n  pop\n  jump\t// out\n    /* \"#utility.yul\":1296:1604   */\ntag_18:\n    /* \"#utility.yul\":1358:1362   */\n  0x00\n    /* \"#utility.yul\":1448:1466   */\n  0xffffffffffffffff\n    /* \"#utility.yul\":1440:1446   */\n  dup3\n    /* \"#utility.yul\":1437:1467   */\n  gt\n    /* \"#utility.yul\":1434:1490   */\n  iszero\n  tag_57\n  jumpi\n    /* \"#utility.yul\":1470:1488   */\n  tag_58\n  tag_15\n  jump\t// in\ntag_58:\n    /* \"#utility.yul\":1434:1490   */\ntag_57:\n    /* \"#utility.yul\":1508:1537   */\n  tag_59\n    /* \"#utility.yul\":1530:1536   */\n  dup3\n    /* \"#utility.yul\":1508:1537   */\n  tag_14\n  jump\t// in\ntag_59:\n    /* \"#utility.yul\":1500:1537   */\n  swap1\n  pop\n    /* \"#utility.yul\":1592:1596   */\n  0x20\n    /* \"#utility.yul\":1586:1590   */\n  dup2\n    /* \"#utility.yul\":1582:1597   */\n  add\n    /* \"#utility.yul\":1574:1597   */\n  swap1\n  pop\n    /* \"#utility.yul\":1296:1604   */\n  swap2\n  swap1\n  pop\n  jump\t// out\n    /* \"#utility.yul\":1610:1749   */\ntag_19:\n    /* \"#utility.yul\":1699:1705   */\n  dup3\n    /* \"#utility.yul\":1694:1697   */\n  dup2\n    /* \"#utility.yul\":1689:1692   */\n  dup4\n    /* \"#utility.yul\":1683:1706   */\n  mcopy\n    /* \"#utility.yul\":1740:1741   */\n  0x00\n    /* \"#utility.yul\":1731:1737   */\n  dup4\n    /* \"#utility.yul\":1726:1729   */\n  dup4\n    /* \"#utility.yul\":1722:1738   */\n  add\n    /* \"#utility.yul\":1715:1742   */\n  mstore\n    /* \"#utility.yul\":1610:1749   */\n  pop\n  pop\n  pop\n  jump\t// out\n    /* \"#utility.yul\":1755:2189   */\ntag_20:\n    /* \"#utility.yul\":1844:1849   */\n  0x00\n    /* \"#utility.yul\":1869:1935   */\n  tag_62\n    /* \"#utility.yul\":1885:1934   */\n  tag_63\n    /* \"#utility.yul\":1927:1933   */\n  dup5\n    /* \"#utility.yul\":1885:1934   */\n  tag_18\n  jump\t// in\ntag_63:\n    /* \"#utility.yul\":1869:1935   */\n  tag_17\n  jump\t// in\ntag_62:\n    /* \"#utility.yul\":1860:1935   */\n  swap1\n  pop\n    /* \"#utility.yul\":1958:1964   */\n  dup3\n    /* \"#utility.yul\":1951:1956   */\n  dup2\n    /* \"#utility.yul\":1944:1965   */\n  mstore\n    /* \"#utility.yul\":1996:2000   */\n  0x20\n    /* \"#utility.yul\":1989:1994   */\n  dup2\n    /* \"#utility.yul\":1985:2001   */\n  add\n    /* \"#utility.yul\":2034:2037   */\n  dup5\n    /* \"#utility.yul\":2025:2031   */\n  dup5\n    /* \"#utility.yul\":2020:2023   */\n  dup5\n    /* \"#utility.yul\":2016:2032   */\n  add\n    /* \"#utility.yul\":2013:2038   */\n  gt\n    /* \"#utility.yul\":2010:2122   */\n  iszero\n  tag_64\n  jumpi\n    /* \"#utility.yul\":2041:2120   */\n  tag_65\n  tag_13\n  jump\t// in\ntag_65:\n    /* \"#utility.yul\":2010:2122   */\ntag_64:\n    /* \"#utility.yul\":2131:2183   */\n  tag_66\n    /* \"#utility.yul\":2176:2182   */\n  dup5\n    /* \"#utility.yul\":2171:2174   */\n  dup3\n    /* \"#utility.yul\":2166:2169   */\n  dup6\n    /* \"#utility.yul\":2131:2183   */\n  tag_19\n  jump\t// in\ntag_66:\n    /* \"#utility.yul\":1850:2189   */\n  pop\n    /* \"#utility.yul\":1755:2189   */\n  swap4\n  swap3\n  pop\n  pop\n  pop\n  jump\t// out\n    /* \"#utility.yul\":2209:2564   */\ntag_21:\n    /* \"#utility.yul\":2276:2281   */\n  0x00\n    /* \"#utility.yul\":2325:2328   */\n  dup3\n    /* \"#utility.yul\":2318:2322   */\n  0x1f\n    /* \"#utility.yul\":2310:2316   */\n  dup4\n    /* \"#utility.yul\":2306:2323   */\n  add\n    /* \"#utility.yul\":2302:2329   */\n  slt\n    /* \"#utility.yul\":2292:2414   */\n  tag_68\n  jumpi\n    /* \"#utility.yul\":2333:2412   */\n  tag_69\n  tag_12\n  jump\t// in\ntag_69:\n    /* \"#utility.yul\":2292:2414   */\ntag_68:\n    /* \"#utility.yul\":2443:2449   */\n  dup2\n    /* \"#utility.yul\":2437:2450   */\n  mload\n    /* \"#utility.yul\":2468:2558   */\n  tag_70\n    /* \"#utility.yul\":2554:2557   */\n  dup5\n    /* \"#utility.yul\":2546:2552   */\n  dup3\n    /* \"#utility.yul\":2539:2543   */\n  0x20\n    /* \"#utility.yul\":2531:2537   */\n  dup7\n    /* \"#utility.yul\":2527:2544   */\n  add\n    /* \"#utility.yul\":2468:2558   */\n  tag_20\n  jump\t// in\ntag_70:\n    /* \"#utility.yul\":2459:2558   */\n  swap2\n  pop\n    /* \"#utility.yul\":2282:2564   */\n  pop\n    /* \"#utility.yul\":2209:2564   */\n  swap3\n  swap2\n  pop\n  pop\n  jump\t// out\n    /* \"#utility.yul\":2570:3094   */\ntag_3:\n    /* \"#utility.yul\":2650:2656   */\n  0x00\n    /* \"#utility.yul\":2699:2701   */\n  0x20\n    /* \"#utility.yul\":2687:2696   */\n  dup3\n    /* \"#utility.yul\":2678:2685   */\n  dup5\n    /* \"#utility.yul\":2674:2697   */\n  sub\n    /* \"#utility.yul\":2670:2702   */\n  slt\n    /* \"#utility.yul\":2667:2786   */\n  iszero\n  tag_72\n  jumpi\n    /* \"#utility.yul\":2705:2784   */\n  tag_73\n  tag_10\n  jump\t// in\ntag_73:\n    /* \"#utility.yul\":2667:2786   */\ntag_72:\n    /* \"#utility.yul\":2846:2847   */\n  0x00\n    /* \"#utility.yul\":2835:2844   */\n  dup3\n    /* \"#utility.yul\":2831:2848   */\n  add\n    /* \"#utility.yul\":2825:2849   */\n  mload\n    /* \"#utility.yul\":2876:2894   */\n  0xffffffffffffffff\n    /* \"#utility.yul\":2868:2874   */\n  dup2\n    /* \"#utility.yul\":2865:2895   */\n  gt\n    /* \"#utility.yul\":2862:2979   */\n  iszero\n  tag_74\n  jumpi\n    /* \"#utility.yul\":2898:2977   */\n  tag_75\n  tag_11\n  jump\t// in\ntag_75:\n    /* \"#utility.yul\":2862:2979   */\ntag_74:\n    /* \"#utility.yul\":3003:3077   */\n  tag_76\n    /* \"#utility.yul\":3069:3076   */\n  dup5\n    /* \"#utility.yul\":3060:3066   */\n  dup3\n    /* \"#utility.yul\":3049:3058   */\n  dup6\n    /* \"#utility.yul\":3045:3067   */\n  add\n    /* \"#utility.yul\":3003:3077   */\n  tag_21\n  jump\t// in\ntag_76:\n    /* \"#utility.yul\":2993:3077   */\n  swap2\n  pop\n    /* \"#utility.yul\":2796:3087   */\n  pop\n    /* \"#utility.yul\":2570:3094   */\n  swap3\n  swap2\n  pop\n  pop\n  jump\t// out\n    /* \"#utility.yul\":3100:3199   */\ntag_22:\n    /* \"#utility.yul\":3152:3158   */\n  0x00\n    /* \"#utility.yul\":3186:3191   */\n  dup2\n    /* \"#utility.yul\":3180:3192   */\n  mload\n    /* \"#utility.yul\":3170:3192   */\n  swap1\n  pop\n    /* \"#utility.yul\":3100:3199   */\n  swap2\n  swap1\n  pop\n  jump\t// out\n    /* \"#utility.yul\":3205:3385   */\ntag_23:\n    /* \"#utility.yul\":3253:3330   */\n  0x4e487b7100000000000000000000000000000000000000000000000000000000\n    /* \"#utility.yul\":3250:3251   */\n  0x00\n    /* \"#utility.yul\":3243:3331   */\n  mstore\n    /* \"#utility.yul\":3350:3354   */\n  0x22\n    /* \"#utility.yul\":3347:3348   */\n  0x04\n    /* \"#utility.yul\":3340:3355   */\n  mstore\n    /* \"#utility.yul\":3374:3378   */\n  0x24\n    /* \"#utility.yul\":3371:3372   */\n  0x00\n    /* \"#utility.yul\":3364:3379   */\n  revert\n    /* \"#utility.yul\":3391:3711   */\ntag_24:\n    /* \"#utility.yul\":3435:3441   */\n  0x00\n    /* \"#utility.yul\":3472:3473   */\n  0x02\n    /* \"#utility.yul\":3466:3470   */\n  dup3\n    /* \"#utility.yul\":3462:3474   */\n  div\n    /* \"#utility.yul\":3452:3474   */\n  swap1\n  pop\n    /* \"#utility.yul\":3519:3520   */\n  0x01\n    /* \"#utility.yul\":3513:3517   */\n  dup3\n    /* \"#utility.yul\":3509:3521   */\n  and\n    /* \"#utility.yul\":3540:3558   */\n  dup1\n    /* \"#utility.yul\":3530:3611   */\n  tag_80\n  jumpi\n    /* \"#utility.yul\":3596:3600   */\n  0x7f\n    /* \"#utility.yul\":3588:3594   */\n  dup3\n    /* \"#utility.yul\":3584:3601   */\n  and\n    /* \"#utility.yul\":3574:3601   */\n  swap2\n  pop\n    /* \"#utility.yul\":3530:3611   */\ntag_80:\n    /* \"#utility.yul\":3658:3660   */\n  0x20\n    /* \"#utility.yul\":3650:3656   */\n  dup3\n    /* \"#utility.yul\":3647:3661   */\n  lt\n    /* \"#utility.yul\":3627:3645   */\n  dup2\n    /* \"#utility.yul\":3624:3662   */\n  sub\n    /* \"#utility.yul\":3621:3705   */\n  tag_81\n  jumpi\n    /* \"#utility.yul\":3677:3695   */\n  tag_82\n  tag_23\n  jump\t// in\ntag_82:\n    /* \"#utility.yul\":3621:3705   */\ntag_81:\n    /* \"#utility.yul\":3442:3711   */\n  pop\n    /* \"#utility.yul\":3391:3711   */\n  swap2\n  swap1\n  pop\n  jump\t// out\n    /* \"#utility.yul\":3717:3858   */\ntag_25:\n    /* \"#utility.yul\":3766:3770   */\n  0x00\n    /* \"#utility.yul\":3789:3792   */\n  dup2\n    /* \"#utility.yul\":3781:3792   */\n  swap1\n  pop\n    /* \"#utility.yul\":3812:3815   */\n  dup2\n    /* \"#utility.yul\":3809:3810   */\n  0x00\n    /* \"#utility.yul\":3802:3816   */\n  mstore\n    /* \"#utility.yul\":3846:3850   */\n  0x20\n    /* \"#utility.yul\":3843:3844   */\n  0x00\n    /* \"#utility.yul\":3833:3851   */\n  keccak256\n    /* \"#utility.yul\":3825:3851   */\n  swap1\n  pop\n    /* \"#utility.yul\":3717:3858   */\n  swap2\n  swap1\n  pop\n  jump\t// out\n    /* \"#utility.yul\":3864:3957   */\ntag_26:\n    /* \"#utility.yul\":3901:3907   */\n  0x00\n    /* \"#utility.yul\":3948:3950   */\n  0x20\n    /* \"#utility.yul\":3943:3945   */\n  0x1f\n    /* \"#utility.yul\":3936:3941   */\n  dup4\n    /* \"#utility.yul\":3932:3946   */\n  add\n    /* \"#utility.yul\":3928:3951   */\n  div\n    /* \"#utility.yul\":3918:3951   */\n  swap1\n  pop\n    /* \"#utility.yul\":3864:3957   */\n  swap2\n  swap1\n  pop\n  jump\t// out\n    /* \"#utility.yul\":3963:4070   */\ntag_27:\n    /* \"#utility.yul\":4007:4015   */\n  0x00\n    /* \"#utility.yul\":4057:4062   */\n  dup3\n    /* \"#utility.yul\":4051:4055   */\n  dup3\n    /* \"#utility.yul\":4047:4063   */\n  shl\n    /* \"#utility.yul\":4026:4063   */\n  swap1\n  pop\n    /* \"#utility.yul\":3963:4070   */\n  swap3\n  swap2\n  pop\n  pop\n  jump\t// out\n    /* \"#utility.yul\":4076:4469   */\ntag_28:\n    /* \"#utility.yul\":4145:4151   */\n  0x00\n    /* \"#utility.yul\":4195:4196   */\n  0x08\n    /* \"#utility.yul\":4183:4193   */\n  dup4\n    /* \"#utility.yul\":4179:4197   */\n  mul\n    /* \"#utility.yul\":4218:4315   */\n  tag_87\n    /* \"#utility.yul\":4248:4314   */\n  0xffffffffffffffffffffffffffffffffffffffffffffffffffffffffffffffff\n    /* \"#utility.yul\":4237:4246   */\n  dup3\n    /* \"#utility.yul\":4218:4315   */\n  tag_27\n  jump\t// in\ntag_87:\n    /* \"#utility.yul\":4336:4375   */\n  tag_88\n    /* \"#utility.yul\":4366:4374   */\n  dup7\n    /* \"#utility.yul\":4355:4364   */\n  dup4\n    /* \"#utility.yul\":4336:4375   */\n  tag_27\n  jump\t// in\ntag_88:\n    /* \"#utility.yul\":4324:4375   */\n  swap6\n  pop\n    /* \"#utility.yul\":4408:4412   */\n  dup1\n    /* \"#utility.yul\":4404:4413   */\n  not\n    /* \"#utility.yul\":4397:4402   */\n  dup5\n    /* \"#utility.yul\":4393:4414   */\n  and\n    /* \"#utility.yul\":4384:4414   */\n  swap4\n  pop\n    /* \"#utility.yul\":4457:4461   */\n  dup1\n    /* \"#utility.yul\":4447:4455   */\n  dup7\n    /* \"#utility.yul\":4443:4462   */\n  and\n    /* \"#utility.yul\":4436:4441   */\n  dup5\n    /* \"#utility.yul\":4433:4463   */\n  or\n    /* \"#utility.yul\":4423:4463   */\n  swap3\n  pop\n    /* \"#utility.yul\":4152:4469   */\n  pop\n  pop\n    /* \"#utility.yul\":4076:4469   */\n  swap4\n  swap3\n  pop\n  pop\n  pop\n  jump\t// out\n    /* \"#utility.yul\":4475:4552   */\ntag_29:\n    /* \"#utility.yul\":4512:4519   */\n  0x00\n    /* \"#utility.yul\":4541:4546   */\n  dup2\n    /* \"#utility.yul\":4530:4546   */\n  swap1\n  pop\n    /* \"#utility.yul\":4475:4552   */\n  swap2\n  swap1\n  pop\n  jump\t// out\n    /* \"#utility.yul\":4558:4618   */\ntag_30:\n    /* \"#utility.yul\":4586:4589   */\n  0x00\n    /* \"#utility.yul\":4607:4612   */\n  dup2\n    /* \"#utility.yul\":4600:4612   */\n  swap1\n  pop\n    /* \"#utility.yul\":4558:4618   */\n  swap2\n  swap1\n  pop\n  jump\t// out\n    /* \"#utility.yul\":4624:4766   */\ntag_31:\n    /* \"#utility.yul\":4674:4683   */\n  0x00\n    /* \"#utility.yul\":4707:4760   */\n  tag_92\n    /* \"#utility.yul\":4725:4759   */\n  tag_93\n    /* \"#utility.yul\":4734:4758   */\n  tag_94\n    /* \"#utility.yul\":4752:4757   */\n  dup5\n    /* \"#utility.yul\":4734:4758   */\n  tag_29\n  jump\t// in\ntag_94:\n    /* \"#utility.yul\":4725:4759   */\n  tag_30\n  jump\t// in\ntag_93:\n    /* \"#utility.yul\":4707:4760   */\n  tag_29\n  jump\t// in\ntag_92:\n    /* \"#utility.yul\":4694:4760   */\n  swap1\n  pop\n    /* \"#utility.yul\":4624:4766   */\n  swap2\n  swap1\n  pop\n  jump\t// out\n    /* \"#utility.yul\":4772:4847   */\ntag_32:\n    /* \"#utility.yul\":4815:4818   */\n  0x00\n    /* \"#utility.yul\":4836:4841   */\n  dup2\n    /* \"#utility.yul\":4829:4841   */\n  swap1\n  pop\n    /* \"#utility.yul\":4772:4847   */\n  swap2\n  swap1\n  pop\n  jump\t// out\n    /* \"#utility.yul\":4853:5122   */\ntag_33:\n    /* \"#utility.yul\":4963:5002   */\n  tag_97\n    /* \"#utility.yul\":4994:5001   */\n  dup4\n    /* \"#utility.yul\":4963:5002   */\n  tag_31\n  jump\t// in\ntag_97:\n    /* \"#utility.yul\":5024:5115   */\n  tag_98\n    /* \"#utility.yul\":5073:5114   */\n  tag_99\n    /* \"#utility.yul\":5097:5113   */\n  dup3\n    /* \"#utility.yul\":5073:5114   */\n  tag_32\n  jump\t// in\ntag_99:\n    /* \"#utility.yul\":5065:5071   */\n  dup5\n    /* \"#utility.yul\":5058:5062   */\n  dup5\n    /* \"#utility.yul\":5052:5063   */\n  sload\n    /* \"#utility.yul\":5024:5115   */\n  tag_28\n  jump\t// in\ntag_98:\n    /* \"#utility.yul\":5018:5022   */\n  dup3\n    /* \"#utility.yul\":5011:5116   */\n  sstore\n    /* \"#utility.yul\":4929:5122   */\n  pop\n    /* \"#utility.yul\":4853:5122   */\n  pop\n  pop\n  pop\n  jump\t// out\n    /* \"#utility.yul\":5128:5201   */\ntag_34:\n    /* \"#utility.yul\":5173:5176   */\n  0x00\n    /* \"#utility.yul\":5194:5195   */\n  0x00\n    /* \"#utility.yul\":5187:5195   */\n  swap1\n  pop\n    /* \"#utility.yul\":5128:5201   */\n  swap1\n  jump\t// out\n    /* \"#utility.yul\":5207:5396   */\ntag_35:\n    /* \"#utility.yul\":5284:5316   */\n  tag_102\n  tag_34\n  jump\t// in\ntag_102:\n    /* \"#utility.yul\":5325:5390   */\n  tag_103\n    /* \"#utility.yul\":5383:5389   */\n  dup2\n    /* \"#utility.yul\":5375:5381   */\n  dup5\n    /* \"#utility.yul\":5369:5373   */\n  dup5\n    /* \"#utility.yul\":5325:5390   */\n  tag_33\n  jump\t// in\ntag_103:\n    /* \"#utility.yul\":5260:5396   */\n  pop\n    /* \"#utility.yul\":5207:5396   */\n  pop\n  pop\n  jump\t// out\n    /* \"#utility.yul\":5402:5588   */\ntag_36:\n    /* \"#utility.yul\":5462:5582   */\ntag_105:\n    /* \"#utility.yul\":5479:5482   */\n  dup2\n    /* \"#utility.yul\":5472:5477   */\n  dup2\n    /* \"#utility.yul\":5469:5483   */\n  lt\n    /* \"#utility.yul\":5462:5582   */\n  iszero\n  tag_107\n  jumpi\n    /* \"#utility.yul\":5533:5572   */\n  tag_108\n    /* \"#utility.yul\":5570:5571   */\n  0x00\n    /* \"#utility.yul\":5563:5568   */\n  dup3\n    /* \"#utility.yul\":5533:5572   */\n  tag_35\n  jump\t// in\ntag_108:\n    /* \"#utility.yul\":5506:5507   */\n  0x01\n    /* \"#utility.yul\":5499:5504   */\n  dup2\n    /* \"#utility.yul\":5495:5508   */\n  add\n    /* \"#utility.yul\":5486:5508   */\n  swap1\n  pop\n    /* \"#utility.yul\":5462:5582   */\n  jump(tag_105)\ntag_107:\n    /* \"#utility.yul\":5402:5588   */\n  pop\n  pop\n  jump\t// out\n    /* \"#utility.yul\":5594:6137   */\ntag_37:\n    /* \"#utility.yul\":5695:5697   */\n  0x1f\n    /* \"#utility.yul\":5690:5693   */\n  dup3\n    /* \"#utility.yul\":5687:5698   */\n  gt\n    /* \"#utility.yul\":5684:6130   */\n  iszero\n  tag_110\n  jumpi\n    /* \"#utility.yul\":5729:5767   */\n  tag_111\n    /* \"#utility.yul\":5761:5766   */\n  dup2\n    /* \"#utility.yul\":5729:5767   */\n  tag_25\n  jump\t// in\ntag_111:\n    /* \"#utility.yul\":5813:5842   */\n  tag_112\n    /* \"#utility.yul\":5831:5841   */\n  dup5\n    /* \"#utility.yul\":5813:5842   */\n  tag_26\n  jump\t// in\ntag_112:\n    /* \"#utility.yul\":5803:5811   */\n  dup2\n    /* \"#utility.yul\":5799:5843   */\n  add\n    /* \"#utility.yul\":5996:5998   */\n  0x20\n    /* \"#utility.yul\":5984:5994   */\n  dup6\n    /* \"#utility.yul\":5981:5999   */\n  lt\n    /* \"#utility.yul\":5978:6027   */\n  iszero\n  tag_113\n  jumpi\n    /* \"#utility.yul\":6017:6025   */\n  dup2\n    /* \"#utility.yul\":6002:6025   */\n  swap1\n  pop\n    /* \"#utility.yul\":5978:6027   */\ntag_113:\n    /* \"#utility.yul\":6040:6120   */\n  tag_114\n    /* \"#utility.yul\":6096:6118   */\n  tag_115\n    /* \"#utility.yul\":6114:6117   */\n  dup6\n    /* \"#utility.yul\":6096:6118   */\n  tag_26\n  jump\t// in\ntag_115:\n    /* \"#utility.yul\":6086:6094   */\n  dup4\n    /* \"#utility.yul\":6082:6119   */\n  add\n    /* \"#utility.yul\":6069:6080   */\n  dup3\n    /* \"#utility.yul\":6040:6120   */\n  tag_36\n  jump\t// in\ntag_114:\n    /* \"#utility.yul\":5699:6130   */\n  pop\n  pop\n    /* \"#utility.yul\":5684:6130   */\ntag_110:\n    /* \"#utility.yul\":5594:6137   */\n  pop\n  pop\n  pop\n  jump\t// out\n    /* \"#utility.yul\":6143:6260   */\ntag_38:\n    /* \"#utility.yul\":6197:6205   */\n  0x00\n    /* \"#utility.yul\":6247:6252   */\n  dup3\n    /* \"#utility.yul\":6241:6245   */\n  dup3\n    /* \"#utility.yul\":6237:6253   */\n  shr\n    /* \"#utility.yul\":6216:6253   */\n  swap1\n  pop\n    /* \"#utility.yul\":6143:6260   */\n  swap3\n  swap2\n  pop\n  pop\n  jump\t// out\n    /* \"#utility.yul\":6266:6435   */\ntag_39:\n    /* \"#utility.yul\":6310:6316   */\n  0x00\n    /* \"#utility.yul\":6343:6394   */\n  tag_118\n    /* \"#utility.yul\":6391:6392   */\n  0x00\n    /* \"#utility.yul\":6387:6393   */\n  not\n    /* \"#utility.yul\":6379:6384   */\n  dup5\n    /* \"#utility.yul\":6376:6377   */\n  0x08\n    /* \"#utility.yul\":6372:6385   */\n  mul\n    /* \"#utility.yul\":6343:6394   */\n  tag_38\n  jump\t// in\ntag_118:\n    /* \"#utility.yul\":6339:6395   */\n  not\n    /* \"#utility.yul\":6424:6428   */\n  dup1\n    /* \"#utility.yul\":6418:6422   */\n  dup4\n    /* \"#utility.yul\":6414:6429   */\n  and\n    /* \"#utility.yul\":6404:6429   */\n  swap2\n  pop\n    /* \"#utility.yul\":6317:6435   */\n  pop\n    /* \"#utility.yul\":6266:6435   */\n  swap3\n  swap2\n  pop\n  pop\n  jump\t// out\n    /* \"#utility.yul\":6440:6735   */\ntag_40:\n    /* \"#utility.yul\":6516:6520   */\n  0x00\n    /* \"#utility.yul\":6662:6691   */\n  tag_120\n    /* \"#utility.yul\":6687:6690   */\n  dup4\n    /* \"#utility.yul\":6681:6685   */\n  dup4\n    /* \"#utility.yul\":6662:6691   */\n  tag_39\n  jump\t// in\ntag_120:\n    /* \"#utility.yul\":6654:6691   */\n  swap2\n  pop\n    /* \"#utility.yul\":6724:6727   */\n  dup3\n    /* \"#utility.yul\":6721:6722   */\n  0x02\n    /* \"#utility.yul\":6717:6728   */\n  mul\n    /* \"#utility.yul\":6711:6715   */\n  dup3\n    /* \"#utility.yul\":6708:6729   */\n  or\n    /* \"#utility.yul\":6700:6729   */\n  swap1\n  pop\n    /* \"#utility.yul\":6440:6735   */\n  swap3\n  swap2\n  pop\n  pop\n  jump\t// out\n    /* \"#utility.yul\":6740:8135   */\ntag_7:\n    /* \"#utility.yul\":6857:6894   */\n  tag_122\n    /* \"#utility.yul\":6890:6893   */\n  dup3\n    /* \"#utility.yul\":6857:6894   */\n  tag_22\n  jump\t// in\ntag_122:\n    /* \"#utility.yul\":6959:6977   */\n  0xffffffffffffffff\n    /* \"#utility.yul\":6951:6957   */\n  dup2\n    /* \"#utility.yul\":6948:6978   */\n  gt\n    /* \"#utility.yul\":6945:7001   */\n  iszero\n  tag_123\n  jumpi\n    /* \"#utility.yul\":6981:6999   */\n  tag_124\n  tag_15\n  jump\t// in\ntag_124:\n    /* \"#utility.yul\":6945:7001   */\ntag_123:\n    /* \"#utility.yul\":7025:7063   */\n  tag_125\n    /* \"#utility.yul\":7057:7061   */\n  dup3\n    /* \"#utility.yul\":7051:7062   */\n  sload\n    /* \"#utility.yul\":7025:7063   */\n  tag_24\n  jump\t// in\ntag_125:\n    /* \"#utility.yul\":7110:7177   */\n  tag_126\n    /* \"#utility.yul\":7170:7176   */\n  dup3\n    /* \"#utility.yul\":7162:7168   */\n  dup3\n    /* \"#utility.yul\":7156:7160   */\n  dup6\n    /* \"#utility.yul\":7110:7177   */\n  tag_37\n  jump\t// in\ntag_126:\n    /* \"#utility.yul\":7204:7205   */\n  0x00\n    /* \"#utility.yul\":7228:7232   */\n  0x20\n    /* \"#utility.yul\":7215:7232   */\n  swap1\n  pop\n    /* \"#utility.yul\":7260:7262   */\n  0x1f\n    /* \"#utility.yul\":7252:7258   */\n  dup4\n    /* \"#utility.yul\":7249:7263   */\n  gt\n    /* \"#utility.yul\":7277:7278   */\n  0x01\n    /* \"#utility.yul\":7272:7890   */\n  dup2\n  eq\n  tag_128\n  jumpi\n    /* \"#utility.yul\":7934:7935   */\n  0x00\n    /* \"#utility.yul\":7951:7957   */\n  dup5\n    /* \"#utility.yul\":7948:8025   */\n  iszero\n  tag_129\n  jumpi\n    /* \"#utility.yul\":8000:8009   */\n  dup3\n    /* \"#utility.yul\":7995:7998   */\n  dup8\n    /* \"#utility.yul\":7991:8010   */\n  add\n    /* \"#utility.yul\":7985:8011   */\n  mload\n    /* \"#utility.yul\":7976:8011   */\n  swap1\n  pop\n    /* \"#utility.yul\":7948:8025   */\ntag_129:\n    /* \"#utility.yul\":8051:8118   */\n  tag_130\n    /* \"#utility.yul\":8111:8117   */\n  dup6\n    /* \"#utility.yul\":8104:8109   */\n  dup3\n    /* \"#utility.yul\":8051:8118   */\n  tag_40\n  jump\t// in\ntag_130:\n    /* \"#utility.yul\":8045:8049   */\n  dup7\n    /* \"#utility.yul\":8038:8119   */\n  sstore\n    /* \"#utility.yul\":7907:8129   */\n  pop\n    /* \"#utility.yul\":7242:8129   */\n  jump(tag_127)\n    /* \"#utility.yul\":7272:7890   */\ntag_128:\n    /* \"#utility.yul\":7324:7328   */\n  0x1f\n    /* \"#utility.yul\":7320:7329   */\n  not\n    /* \"#utility.yul\":7312:7318   */\n  dup5\n    /* \"#utility.yul\":7308:7330   */\n  and\n    /* \"#utility.yul\":7358:7395   */\n  tag_131\n    /* \"#utility.yul\":7390:7394   */\n  dup7\n    /* \"#utility.yul\":7358:7395   */\n  tag_25\n  jump\t// in\ntag_131:\n    /* \"#utility.yul\":7417:7418   */\n  0x00\n    /* \"#utility.yul\":7431:7639   */\ntag_132:\n    /* \"#utility.yul\":7445:7452   */\n  dup3\n    /* \"#utility.yul\":7442:7443   */\n  dup2\n    /* \"#utility.yul\":7439:7453   */\n  lt\n    /* \"#utility.yul\":7431:7639   */\n  iszero\n  tag_134\n  jumpi\n    /* \"#utility.yul\":7524:7533   */\n  dup5\n    /* \"#utility.yul\":7519:7522   */\n  dup10\n    /* \"#utility.yul\":7515:7534   */\n  add\n    /* \"#utility.yul\":7509:7535   */\n  mload\n    /* \"#utility.yul\":7501:7507   */\n  dup3\n    /* \"#utility.yul\":7494:7536   */\n  sstore\n    /* \"#utility.yul\":7575:7576   */\n  0x01\n    /* \"#utility.yul\":7567:7573   */\n  dup3\n    /* \"#utility.yul\":7563:7577   */\n  add\n    /* \"#utility.yul\":7553:7577   */\n  swap2\n  pop\n    /* \"#utility.yul\":7622:7624   */\n  0x20\n    /* \"#utility.yul\":7611:7620   */\n  dup6\n    /* \"#utility.yul\":7607:7625   */\n  add\n    /* \"#utility.yul\":7594:7625   */\n  swap5\n  pop\n    /* \"#utility.yul\":7468:7472   */\n  0x20\n    /* \"#utility.yul\":7465:7466   */\n  dup2\n    /* \"#utility.yul\":7461:7473   */\n  add\n    /* \"#utility.yul\":7456:7473   */\n  swap1\n  pop\n    /* \"#utility.yul\":7431:7639   */\n  jump(tag_132)\ntag_134:\n    /* \"#utility.yul\":7667:7673   */\n  dup7\n    /* \"#utility.yul\":7658:7665   */\n  dup4\n    /* \"#utility.yul\":7655:7674   */\n  lt\n    /* \"#utility.yul\":7652:7831   */\n  iszero\n  tag_135\n  jumpi\n    /* \"#utility.yul\":7725:7734   */\n  dup5\n    /* \"#utility.yul\":7720:7723   */\n  dup10\n    /* \"#utility.yul\":7716:7735   */\n  add\n    /* \"#utility.yul\":7710:7736   */\n  mload\n    /* \"#utility.yul\":7768:7816   */\n  tag_136\n    /* \"#utility.yul\":7810:7814   */\n  0x1f\n    /* \"#utility.yul\":7802:7808   */\n  dup10\n    /* \"#utility.yul\":7798:7815   */\n  and\n    /* \"#utility.yul\":7787:7796   */\n  dup3\n    /* \"#utility.yul\":7768:7816   */\n  tag_39\n  jump\t// in\ntag_136:\n    /* \"#utility.yul\":7760:7766   */\n  dup4\n    /* \"#utility.yul\":7753:7817   */\n  sstore\n    /* \"#utility.yul\":7675:7831   */\n  pop\n    /* \"#utility.yul\":7652:7831   */\ntag_135:\n    /* \"#utility.yul\":7877:7878   */\n  0x01\n    /* \"#utility.yul\":7873:7874   */\n  0x02\n    /* \"#utility.yul\":7865:7871   */\n  dup9\n    /* \"#utility.yul\":7861:7875   */\n  mul\n    /* \"#utility.yul\":7857:7879   */\n  add\n    /* \"#utility.yul\":7851:7855   */\n  dup9\n    /* \"#utility.yul\":7844:7880   */\n  sstore\n    /* \"#utility.yul\":7279:7890   */\n  pop\n  pop\n  pop\n    /* \"#utility.yul\":7242:8129   */\ntag_127:\n  pop\n    /* \"#utility.yul\":6832:8135   */\n  pop\n  pop\n  pop\n    /* \"#utility.yul\":6740:8135   */\n  pop\n  pop\n  jump\t// out\n    /* \"contracts/_dao_vote.sol\":387:1160  contract Voting {... */\ntag_8:\n  dataSize(sub_0)\n  dup1\n  dataOffset(sub_0)\n  0x00\n  codecopy\n  0x00\n  return\nstop\n\nsub_0: assembly {\n        /* \"contracts/_dao_vote.sol\":387:1160  contract Voting {... */\n      mstore(0x40, 0x80)\n      callvalue\n      dup1\n      iszero\n      tag_1\n      jumpi\n      revert(0x00, 0x00)\n    tag_1:\n      pop\n      jumpi(tag_2, lt(calldatasize, 0x04))\n      shr(0xe0, calldataload(0x00))\n      dup1\n      0x753ec103\n      gt\n      tag_10\n      jumpi\n      dup1\n      0x753ec103\n      eq\n      tag_6\n      jumpi\n      dup1\n      0xb5b47f42\n      eq\n      tag_7\n      jumpi\n      dup1\n      0xf3fa4226\n      eq\n      tag_8\n      jumpi\n      dup1\n      0xfb286c65\n      eq\n      tag_9\n      jumpi\n      jump(tag_2)\n    tag_10:\n      dup1\n      0x09eef43e\n      eq\n      tag_3\n      jumpi\n      dup1\n      0x46c96aac\n      eq\n      tag_4\n      jumpi\n      dup1\n      0x4b9f5c98\n      eq\n      tag_5\n      jumpi\n    tag_2:\n      revert(0x00, 0x00)\n        /* \"contracts/_dao_vote.sol\":516:556  mapping(address => bool) public hasVoted */\n    tag_3:\n      tag_11\n      0x04\n      dup1\n      calldatasize\n      sub\n      dup2\n      add\n      swap1\n      tag_12\n      swap2\n      swap1\n      tag_13\n      jump\t// in\n    tag_12:\n      tag_14\n      jump\t// in\n    tag_11:\n      mload(0x40)\n      tag_15\n      swap2\n      swap1\n      tag_16\n      jump\t// in\n    tag_15:\n      mload(0x40)\n      dup1\n      swap2\n      sub\n      swap1\n      return\n        /* \"contracts/_dao_vote.sol\":437:457  address public voter */\n    tag_4:\n      tag_17\n      tag_18\n      jump\t// in\n    tag_17:\n      mload(0x40)\n      tag_19\n      swap2\n      swap1\n      tag_20\n      jump\t// in\n    tag_19:\n      mload(0x40)\n      dup1\n      swap2\n      sub\n      swap1\n      return\n        /* \"contracts/_dao_vote.sol\":707:952  function vote(bool _voteYes) public {... */\n    tag_5:\n      tag_21\n      0x04\n      dup1\n      calldatasize\n      sub\n      dup2\n      add\n      swap1\n      tag_22\n      swap2\n      swap1\n      tag_23\n      jump\t// in\n    tag_22:\n      tag_24\n      jump\t// in\n    tag_21:\n      stop\n        /* \"contracts/_dao_vote.sol\":409:431  string public proposal */\n    tag_6:\n      tag_25\n      tag_26\n      jump\t// in\n    tag_25:\n      mload(0x40)\n      tag_27\n      swap2\n      swap1\n      tag_28\n      jump\t// in\n    tag_27:\n      mload(0x40)\n      dup1\n      swap2\n      sub\n      swap1\n      return\n        /* \"contracts/_dao_vote.sol\":490:509  uint public noVotes */\n    tag_7:\n      tag_29\n      tag_30\n      jump\t// in\n    tag_29:\n      mload(0x40)\n      tag_31\n      swap2\n      swap1\n      tag_32\n      jump\t// in\n    tag_31:\n      mload(0x40)\n      dup1\n      swap2\n      sub\n      swap1\n      return\n        /* \"contracts/_dao_vote.sol\":958:1158  function resetVotes(string memory _newProposal) public {... */\n    tag_8:\n      tag_33\n      0x04\n      dup1\n      calldatasize\n      sub\n      dup2\n      add\n      swap1\n      tag_34\n      swap2\n      swap1\n      tag_35\n      jump\t// in\n    tag_34:\n      tag_36\n      jump\t// in\n    tag_33:\n      stop\n        /* \"contracts/_dao_vote.sol\":464:484  uint public yesVotes */\n    tag_9:\n      tag_37\n      tag_38\n      jump\t// in\n    tag_37:\n      mload(0x40)\n      tag_39\n      swap2\n      swap1\n      tag_32\n      jump\t// in\n    tag_39:\n      mload(0x40)\n      dup1\n      swap2\n      sub\n      swap1\n      return\n        /* \"contracts/_dao_vote.sol\":516:556  mapping(address => bool) public hasVoted */\n    tag_14:\n      mstore(0x20, 0x04)\n      dup1\n      0x00\n      mstore\n      keccak256(0x00, 0x40)\n      0x00\n      swap2\n      pop\n      sload\n      swap1\n      0x0100\n      exp\n      swap1\n      div\n      0xff\n      and\n      dup2\n      jump\t// out\n        /* \"contracts/_dao_vote.sol\":437:457  address public voter */\n    tag_18:\n      0x01\n      0x00\n      swap1\n      sload\n      swap1\n      0x0100\n      exp\n      swap1\n      div\n      0xffffffffffffffffffffffffffffffffffffffff\n      and\n      dup2\n      jump\t// out\n        /* \"contracts/_dao_vote.sol\":707:952  function vote(bool _voteYes) public {... */\n    tag_24:\n        /* \"contracts/_dao_vote.sol\":762:770  hasVoted */\n      0x04\n        /* \"contracts/_dao_vote.sol\":762:782  hasVoted[msg.sender] */\n      0x00\n        /* \"contracts/_dao_vote.sol\":771:781  msg.sender */\n      caller\n        /* \"contracts/_dao_vote.sol\":762:782  hasVoted[msg.sender] */\n      0xffffffffffffffffffffffffffffffffffffffff\n      and\n      0xffffffffffffffffffffffffffffffffffffffff\n      and\n      dup2\n      mstore\n      0x20\n      add\n      swap1\n      dup2\n      mstore\n      0x20\n      add\n      0x00\n      keccak256\n      0x00\n      swap1\n      sload\n      swap1\n      0x0100\n      exp\n      swap1\n      div\n      0xff\n      and\n        /* \"contracts/_dao_vote.sol\":761:782  !hasVoted[msg.sender] */\n      iszero\n        /* \"contracts/_dao_vote.sol\":753:810  require(!hasVoted[msg.sender], \"You have already voted!\") */\n      tag_41\n      jumpi\n      mload(0x40)\n      0x08c379a000000000000000000000000000000000000000000000000000000000\n      dup2\n      mstore\n      0x04\n      add\n      tag_42\n      swap1\n      tag_43\n      jump\t// in\n    tag_42:\n      mload(0x40)\n      dup1\n      swap2\n      sub\n      swap1\n      revert\n    tag_41:\n        /* \"contracts/_dao_vote.sol\":843:847  true */\n      0x01\n        /* \"contracts/_dao_vote.sol\":820:828  hasVoted */\n      0x04\n        /* \"contracts/_dao_vote.sol\":820:840  hasVoted[msg.sender] */\n      0x00\n        /* \"contracts/_dao_vote.sol\":829:839  msg.sender */\n      caller\n        /* \"contracts/_dao_vote.sol\":820:840  hasVoted[msg.sender] */\n      0xffffffffffffffffffffffffffffffffffffffff\n      and\n      0xffffffffffffffffffffffffffffffffffffffff\n      and\n      dup2\n      mstore\n      0x20\n      add\n      swap1\n      dup2\n      mstore\n      0x20\n      add\n      0x00\n      keccak256\n      0x00\n        /* \"contracts/_dao_vote.sol\":820:847  hasVoted[msg.sender] = true */\n      0x0100\n      exp\n      dup2\n      sload\n      dup2\n      0xff\n      mul\n      not\n      and\n      swap1\n      dup4\n      iszero\n      iszero\n      mul\n      or\n      swap1\n      sstore\n      pop\n        /* \"contracts/_dao_vote.sol\":862:870  _voteYes */\n      dup1\n        /* \"contracts/_dao_vote.sol\":858:946  if (_voteYes) {... */\n      iszero\n      tag_44\n      jumpi\n        /* \"contracts/_dao_vote.sol\":886:894  yesVotes */\n      0x02\n      0x00\n        /* \"contracts/_dao_vote.sol\":886:896  yesVotes++ */\n      dup2\n      sload\n      dup1\n      swap3\n      swap2\n      swap1\n      tag_45\n      swap1\n      tag_46\n      jump\t// in\n    tag_45:\n      swap2\n      swap1\n      pop\n      sstore\n      pop\n        /* \"contracts/_dao_vote.sol\":858:946  if (_voteYes) {... */\n      jump(tag_47)\n    tag_44:\n        /* \"contracts/_dao_vote.sol\":926:933  noVotes */\n      0x03\n      0x00\n        /* \"contracts/_dao_vote.sol\":926:935  noVotes++ */\n      dup2\n      sload\n      dup1\n      swap3\n      swap2\n      swap1\n      tag_48\n      swap1\n      tag_46\n      jump\t// in\n    tag_48:\n      swap2\n      swap1\n      pop\n      sstore\n      pop\n        /* \"contracts/_dao_vote.sol\":858:946  if (_voteYes) {... */\n    tag_47:\n        /* \"contracts/_dao_vote.sol\":707:952  function vote(bool _voteYes) public {... */\n      pop\n      jump\t// out\n        /* \"contracts/_dao_vote.sol\":409:431  string public proposal */\n    tag_26:\n      0x00\n      dup1\n      sload\n      tag_49\n      swap1\n      tag_50\n      jump\t// in\n    tag_49:\n      dup1\n      0x1f\n      add\n      0x20\n      dup1\n      swap2\n      div\n      mul\n      0x20\n      add\n      mload(0x40)\n      swap1\n      dup2\n      add\n      0x40\n      mstore\n      dup1\n      swap3\n      swap2\n      swap1\n      dup2\n      dup2\n      mstore\n      0x20\n      add\n      dup3\n      dup1\n      sload\n      tag_51\n      swap1\n      tag_50\n      jump\t// in\n    tag_51:\n      dup1\n      iszero\n      tag_52\n      jumpi\n      dup1\n      0x1f\n      lt\n      tag_53\n      jumpi\n      0x0100\n      dup1\n      dup4\n      sload\n      div\n      mul\n      dup4\n      mstore\n      swap2\n      0x20\n      add\n      swap2\n      jump(tag_52)\n    tag_53:\n      dup3\n      add\n      swap2\n      swap1\n      0x00\n      mstore\n      keccak256(0x00, 0x20)\n      swap1\n    tag_54:\n      dup2\n      sload\n      dup2\n      mstore\n      swap1\n      0x01\n      add\n      swap1\n      0x20\n      add\n      dup1\n      dup4\n      gt\n      tag_54\n      jumpi\n      dup3\n      swap1\n      sub\n      0x1f\n      and\n      dup3\n      add\n      swap2\n    tag_52:\n      pop\n      pop\n      pop\n      pop\n      pop\n      dup2\n      jump\t// out\n        /* \"contracts/_dao_vote.sol\":490:509  uint public noVotes */\n    tag_30:\n      sload(0x03)\n      dup2\n      jump\t// out\n        /* \"contracts/_dao_vote.sol\":958:1158  function resetVotes(string memory _newProposal) public {... */\n    tag_36:\n        /* \"contracts/_dao_vote.sol\":1045:1050  voter */\n      0x01\n      0x00\n      swap1\n      sload\n      swap1\n      0x0100\n      exp\n      swap1\n      div\n      0xffffffffffffffffffffffffffffffffffffffff\n      and\n        /* \"contracts/_dao_vote.sol\":1031:1050  msg.sender == voter */\n      0xffffffffffffffffffffffffffffffffffffffff\n      and\n        /* \"contracts/_dao_vote.sol\":1031:1041  msg.sender */\n      caller\n        /* \"contracts/_dao_vote.sol\":1031:1050  msg.sender == voter */\n      0xffffffffffffffffffffffffffffffffffffffff\n      and\n      eq\n        /* \"contracts/_dao_vote.sol\":1023:1075  require(msg.sender == voter, \"Only owner can reset\") */\n      tag_56\n      jumpi\n      mload(0x40)\n      0x08c379a000000000000000000000000000000000000000000000000000000000\n      dup2\n      mstore\n      0x04\n      add\n      tag_57\n      swap1\n      tag_58\n      jump\t// in\n    tag_57:\n      mload(0x40)\n      dup1\n      swap2\n      sub\n      swap1\n      revert\n    tag_56:\n        /* \"contracts/_dao_vote.sol\":1096:1108  _newProposal */\n      dup1\n        /* \"contracts/_dao_vote.sol\":1085:1093  proposal */\n      0x00\n        /* \"contracts/_dao_vote.sol\":1085:1108  proposal = _newProposal */\n      swap1\n      dup2\n      tag_59\n      swap2\n      swap1\n      tag_60\n      jump\t// in\n    tag_59:\n      pop\n        /* \"contracts/_dao_vote.sol\":1129:1130  0 */\n      0x00\n        /* \"contracts/_dao_vote.sol\":1118:1126  yesVotes */\n      0x02\n        /* \"contracts/_dao_vote.sol\":1118:1130  yesVotes = 0 */\n      dup2\n      swap1\n      sstore\n      pop\n        /* \"contracts/_dao_vote.sol\":1150:1151  0 */\n      0x00\n        /* \"contracts/_dao_vote.sol\":1140:1147  noVotes */\n      0x03\n        /* \"contracts/_dao_vote.sol\":1140:1151  noVotes = 0 */\n      dup2\n      swap1\n      sstore\n      pop\n        /* \"contracts/_dao_vote.sol\":958:1158  function resetVotes(string memory _newProposal) public {... */\n      pop\n      jump\t// out\n        /* \"contracts/_dao_vote.sol\":464:484  uint public yesVotes */\n    tag_38:\n      sload(0x02)\n      dup2\n      jump\t// out\n        /* \"#utility.yul\":7:82   */\n    tag_61:\n        /* \"#utility.yul\":40:46   */\n      0x00\n        /* \"#utility.yul\":73:75   */\n      0x40\n        /* \"#utility.yul\":67:76   */\n      mload\n        /* \"#utility.yul\":57:76   */\n      swap1\n      pop\n        /* \"#utility.yul\":7:82   */\n      swap1\n      jump\t// out\n        /* \"#utility.yul\":88:205   */\n    tag_62:\n        /* \"#utility.yul\":197:198   */\n      0x00\n        /* \"#utility.yul\":194:195   */\n      0x00\n        /* \"#utility.yul\":187:199   */\n      revert\n        /* \"#utility.yul\":211:328   */\n    tag_63:\n        /* \"#utility.yul\":320:321   */\n      0x00\n        /* \"#utility.yul\":317:318   */\n      0x00\n        /* \"#utility.yul\":310:322   */\n      revert\n        /* \"#utility.yul\":334:460   */\n    tag_64:\n        /* \"#utility.yul\":371:378   */\n      0x00\n        /* \"#utility.yul\":411:453   */\n      0xffffffffffffffffffffffffffffffffffffffff\n        /* \"#utility.yul\":404:409   */\n      dup3\n        /* \"#utility.yul\":400:454   */\n      and\n        /* \"#utility.yul\":389:454   */\n      swap1\n      pop\n        /* \"#utility.yul\":334:460   */\n      swap2\n      swap1\n      pop\n      jump\t// out\n        /* \"#utility.yul\":466:562   */\n    tag_65:\n        /* \"#utility.yul\":503:510   */\n      0x00\n        /* \"#utility.yul\":532:556   */\n      tag_116\n        /* \"#utility.yul\":550:555   */\n      dup3\n        /* \"#utility.yul\":532:556   */\n      tag_64\n      jump\t// in\n    tag_116:\n        /* \"#utility.yul\":521:556   */\n      swap1\n      pop\n        /* \"#utility.yul\":466:562   */\n      swap2\n      swap1\n      pop\n      jump\t// out\n        /* \"#utility.yul\":568:690   */\n    tag_66:\n        /* \"#utility.yul\":641:665   */\n      tag_118\n        /* \"#utility.yul\":659:664   */\n      dup2\n        /* \"#utility.yul\":641:665   */\n      tag_65\n      jump\t// in\n    tag_118:\n        /* \"#utility.yul\":634:639   */\n      dup2\n        /* \"#utility.yul\":631:666   */\n      eq\n        /* \"#utility.yul\":621:684   */\n      tag_119\n      jumpi\n        /* \"#utility.yul\":680:681   */\n      0x00\n        /* \"#utility.yul\":677:678   */\n      0x00\n        /* \"#utility.yul\":670:682   */\n      revert\n        /* \"#utility.yul\":621:684   */\n    tag_119:\n        /* \"#utility.yul\":568:690   */\n      pop\n      jump\t// out\n        /* \"#utility.yul\":696:835   */\n    tag_67:\n        /* \"#utility.yul\":742:747   */\n      0x00\n        /* \"#utility.yul\":780:786   */\n      dup2\n        /* \"#utility.yul\":767:787   */\n      calldataload\n        /* \"#utility.yul\":758:787   */\n      swap1\n      pop\n        /* \"#utility.yul\":796:829   */\n      tag_121\n        /* \"#utility.yul\":823:828   */\n      dup2\n        /* \"#utility.yul\":796:829   */\n      tag_66\n      jump\t// in\n    tag_121:\n        /* \"#utility.yul\":696:835   */\n      swap3\n      swap2\n      pop\n      pop\n      jump\t// out\n        /* \"#utility.yul\":841:1170   */\n    tag_13:\n        /* \"#utility.yul\":900:906   */\n      0x00\n        /* \"#utility.yul\":949:951   */\n      0x20\n        /* \"#utility.yul\":937:946   */\n      dup3\n        /* \"#utility.yul\":928:935   */\n      dup5\n        /* \"#utility.yul\":924:947   */\n      sub\n        /* \"#utility.yul\":920:952   */\n      slt\n        /* \"#utility.yul\":917:1036   */\n      iszero\n      tag_123\n      jumpi\n        /* \"#utility.yul\":955:1034   */\n      tag_124\n      tag_62\n      jump\t// in\n    tag_124:\n        /* \"#utility.yul\":917:1036   */\n    tag_123:\n        /* \"#utility.yul\":1075:1076   */\n      0x00\n        /* \"#utility.yul\":1100:1153   */\n      tag_125\n        /* \"#utility.yul\":1145:1152   */\n      dup5\n        /* \"#utility.yul\":1136:1142   */\n      dup3\n        /* \"#utility.yul\":1125:1134   */\n      dup6\n        /* \"#utility.yul\":1121:1143   */\n      add\n        /* \"#utility.yul\":1100:1153   */\n      tag_67\n      jump\t// in\n    tag_125:\n        /* \"#utility.yul\":1090:1153   */\n      swap2\n      pop\n        /* \"#utility.yul\":1046:1163   */\n      pop\n        /* \"#utility.yul\":841:1170   */\n      swap3\n      swap2\n      pop\n      pop\n      jump\t// out\n        /* \"#utility.yul\":1176:1266   */\n    tag_68:\n        /* \"#utility.yul\":1210:1217   */\n      0x00\n        /* \"#utility.yul\":1253:1258   */\n      dup2\n        /* \"#utility.yul\":1246:1259   */\n      iszero\n        /* \"#utility.yul\":1239:1260   */\n      iszero\n        /* \"#utility.yul\":1228:1260   */\n      swap1\n      pop\n        /* \"#utility.yul\":1176:1266   */\n      swap2\n      swap1\n      pop\n      jump\t// out\n        /* \"#utility.yul\":1272:1381   */\n    tag_69:\n        /* \"#utility.yul\":1353:1374   */\n      tag_128\n        /* \"#utility.yul\":1368:1373   */\n      dup2\n        /* \"#utility.yul\":1353:1374   */\n      tag_68\n      jump\t// in\n    tag_128:\n        /* \"#utility.yul\":1348:1351   */\n      dup3\n        /* \"#utility.yul\":1341:1375   */\n      mstore\n        /* \"#utility.yul\":1272:1381   */\n      pop\n      pop\n      jump\t// out\n        /* \"#utility.yul\":1387:1597   */\n    tag_16:\n        /* \"#utility.yul\":1474:1478   */\n      0x00\n        /* \"#utility.yul\":1512:1514   */\n      0x20\n        /* \"#utility.yul\":1501:1510   */\n      dup3\n        /* \"#utility.yul\":1497:1515   */\n      add\n        /* \"#utility.yul\":1489:1515   */\n      swap1\n      pop\n        /* \"#utility.yul\":1525:1590   */\n      tag_130\n        /* \"#utility.yul\":1587:1588   */\n      0x00\n        /* \"#utility.yul\":1576:1585   */\n      dup4\n        /* \"#utility.yul\":1572:1589   */\n      add\n        /* \"#utility.yul\":1563:1569   */\n      dup5\n        /* \"#utility.yul\":1525:1590   */\n      tag_69\n      jump\t// in\n    tag_130:\n        /* \"#utility.yul\":1387:1597   */\n      swap3\n      swap2\n      pop\n      pop\n      jump\t// out\n        /* \"#utility.yul\":1603:1721   */\n    tag_70:\n        /* \"#utility.yul\":1690:1714   */\n      tag_132\n        /* \"#utility.yul\":1708:1713   */\n      dup2\n        /* \"#utility.yul\":1690:1714   */\n      tag_65\n      jump\t// in\n    tag_132:\n        /* \"#utility.yul\":1685:1688   */\n      dup3\n        /* \"#utility.yul\":1678:1715   */\n      mstore\n        /* \"#utility.yul\":1603:1721   */\n      pop\n      pop\n      jump\t// out\n        /* \"#utility.yul\":1727:1949   */\n    tag_20:\n        /* \"#utility.yul\":1820:1824   */\n      0x00\n        /* \"#utility.yul\":1858:1860   */\n      0x20\n        /* \"#utility.yul\":1847:1856   */\n      dup3\n        /* \"#utility.yul\":1843:1861   */\n      add\n        /* \"#utility.yul\":1835:1861   */\n      swap1\n      pop\n        /* \"#utility.yul\":1871:1942   */\n      tag_134\n        /* \"#utility.yul\":1939:1940   */\n      0x00\n        /* \"#utility.yul\":1928:1937   */\n      dup4\n        /* \"#utility.yul\":1924:1941   */\n      add\n        /* \"#utility.yul\":1915:1921   */\n      dup5\n        /* \"#utility.yul\":1871:1942   */\n      tag_70\n      jump\t// in\n    tag_134:\n        /* \"#utility.yul\":1727:1949   */\n      swap3\n      swap2\n      pop\n      pop\n      jump\t// out\n        /* \"#utility.yul\":1955:2071   */\n    tag_71:\n        /* \"#utility.yul\":2025:2046   */\n      tag_136\n        /* \"#utility.yul\":2040:2045   */\n      dup2\n        /* \"#utility.yul\":2025:2046   */\n      tag_68\n      jump\t// in\n    tag_136:\n        /* \"#utility.yul\":2018:2023   */\n      dup2\n        /* \"#utility.yul\":2015:2047   */\n      eq\n        /* \"#utility.yul\":2005:2065   */\n      tag_137\n      jumpi\n        /* \"#utility.yul\":2061:2062   */\n      0x00\n        /* \"#utility.yul\":2058:2059   */\n      0x00\n        /* \"#utility.yul\":2051:2063   */\n      revert\n        /* \"#utility.yul\":2005:2065   */\n    tag_137:\n        /* \"#utility.yul\":1955:2071   */\n      pop\n      jump\t// out\n        /* \"#utility.yul\":2077:2210   */\n    tag_72:\n        /* \"#utility.yul\":2120:2125   */\n      0x00\n        /* \"#utility.yul\":2158:2164   */\n      dup2\n        /* \"#utility.yul\":2145:2165   */\n      calldataload\n        /* \"#utility.yul\":2136:2165   */\n      swap1\n      pop\n        /* \"#utility.yul\":2174:2204   */\n      tag_139\n        /* \"#utility.yul\":2198:2203   */\n      dup2\n        /* \"#utility.yul\":2174:2204   */\n      tag_71\n      jump\t// in\n    tag_139:\n        /* \"#utility.yul\":2077:2210   */\n      swap3\n      swap2\n      pop\n      pop\n      jump\t// out\n        /* \"#utility.yul\":2216:2539   */\n    tag_23:\n        /* \"#utility.yul\":2272:2278   */\n      0x00\n        /* \"#utility.yul\":2321:2323   */\n      0x20\n        /* \"#utility.yul\":2309:2318   */\n      dup3\n        /* \"#utility.yul\":2300:2307   */\n      dup5\n        /* \"#utility.yul\":2296:2319   */\n      sub\n        /* \"#utility.yul\":2292:2324   */\n      slt\n        /* \"#utility.yul\":2289:2408   */\n      iszero\n      tag_141\n      jumpi\n        /* \"#utility.yul\":2327:2406   */\n      tag_142\n      tag_62\n      jump\t// in\n    tag_142:\n        /* \"#utility.yul\":2289:2408   */\n    tag_141:\n        /* \"#utility.yul\":2447:2448   */\n      0x00\n        /* \"#utility.yul\":2472:2522   */\n      tag_143\n        /* \"#utility.yul\":2514:2521   */\n      dup5\n        /* \"#utility.yul\":2505:2511   */\n      dup3\n        /* \"#utility.yul\":2494:2503   */\n      dup6\n        /* \"#utility.yul\":2490:2512   */\n      add\n        /* \"#utility.yul\":2472:2522   */\n      tag_72\n      jump\t// in\n    tag_143:\n        /* \"#utility.yul\":2462:2522   */\n      swap2\n      pop\n        /* \"#utility.yul\":2418:2532   */\n      pop\n        /* \"#utility.yul\":2216:2539   */\n      swap3\n      swap2\n      pop\n      pop\n      jump\t// out\n        /* \"#utility.yul\":2545:2644   */\n    tag_73:\n        /* \"#utility.yul\":2597:2603   */\n      0x00\n        /* \"#utility.yul\":2631:2636   */\n      dup2\n        /* \"#utility.yul\":2625:2637   */\n      mload\n        /* \"#utility.yul\":2615:2637   */\n      swap1\n      pop\n        /* \"#utility.yul\":2545:2644   */\n      swap2\n      swap1\n      pop\n      jump\t// out\n        /* \"#utility.yul\":2650:2819   */\n    tag_74:\n        /* \"#utility.yul\":2734:2745   */\n      0x00\n        /* \"#utility.yul\":2768:2774   */\n      dup3\n        /* \"#utility.yul\":2763:2766   */\n      dup3\n        /* \"#utility.yul\":2756:2775   */\n      mstore\n        /* \"#utility.yul\":2808:2812   */\n      0x20\n        /* \"#utility.yul\":2803:2806   */\n      dup3\n        /* \"#utility.yul\":2799:2813   */\n      add\n        /* \"#utility.yul\":2784:2813   */\n      swap1\n      pop\n        /* \"#utility.yul\":2650:2819   */\n      swap3\n      swap2\n      pop\n      pop\n      jump\t// out\n        /* \"#utility.yul\":2825:2964   */\n    tag_75:\n        /* \"#utility.yul\":2914:2920   */\n      dup3\n        /* \"#utility.yul\":2909:2912   */\n      dup2\n        /* \"#utility.yul\":2904:2907   */\n      dup4\n        /* \"#utility.yul\":2898:2921   */\n      mcopy\n        /* \"#utility.yul\":2955:2956   */\n      0x00\n        /* \"#utility.yul\":2946:2952   */\n      dup4\n        /* \"#utility.yul\":2941:2944   */\n      dup4\n        /* \"#utility.yul\":2937:2953   */\n      add\n        /* \"#utility.yul\":2930:2957   */\n      mstore\n        /* \"#utility.yul\":2825:2964   */\n      pop\n      pop\n      pop\n      jump\t// out\n        /* \"#utility.yul\":2970:3072   */\n    tag_76:\n        /* \"#utility.yul\":3011:3017   */\n      0x00\n        /* \"#utility.yul\":3062:3064   */\n      0x1f\n        /* \"#utility.yul\":3058:3065   */\n      not\n        /* \"#utility.yul\":3053:3055   */\n      0x1f\n        /* \"#utility.yul\":3046:3051   */\n      dup4\n        /* \"#utility.yul\":3042:3056   */\n      add\n        /* \"#utility.yul\":3038:3066   */\n      and\n        /* \"#utility.yul\":3028:3066   */\n      swap1\n      pop\n        /* \"#utility.yul\":2970:3072   */\n      swap2\n      swap1\n      pop\n      jump\t// out\n        /* \"#utility.yul\":3078:3455   */\n    tag_77:\n        /* \"#utility.yul\":3166:3169   */\n      0x00\n        /* \"#utility.yul\":3194:3233   */\n      tag_149\n        /* \"#utility.yul\":3227:3232   */\n      dup3\n        /* \"#utility.yul\":3194:3233   */\n      tag_73\n      jump\t// in\n    tag_149:\n        /* \"#utility.yul\":3249:3320   */\n      tag_150\n        /* \"#utility.yul\":3313:3319   */\n      dup2\n        /* \"#utility.yul\":3308:3311   */\n      dup6\n        /* \"#utility.yul\":3249:3320   */\n      tag_74\n      jump\t// in\n    tag_150:\n        /* \"#utility.yul\":3242:3320   */\n      swap4\n      pop\n        /* \"#utility.yul\":3329:3394   */\n      tag_151\n        /* \"#utility.yul\":3387:3393   */\n      dup2\n        /* \"#utility.yul\":3382:3385   */\n      dup6\n        /* \"#utility.yul\":3375:3379   */\n      0x20\n        /* \"#utility.yul\":3368:3373   */\n      dup7\n        /* \"#utility.yul\":3364:3380   */\n      add\n        /* \"#utility.yul\":3329:3394   */\n      tag_75\n      jump\t// in\n    tag_151:\n        /* \"#utility.yul\":3419:3448   */\n      tag_152\n        /* \"#utility.yul\":3441:3447   */\n      dup2\n        /* \"#utility.yul\":3419:3448   */\n      tag_76\n      jump\t// in\n    tag_152:\n        /* \"#utility.yul\":3414:3417   */\n      dup5\n        /* \"#utility.yul\":3410:3449   */\n      add\n        /* \"#utility.yul\":3403:3449   */\n      swap2\n      pop\n        /* \"#utility.yul\":3170:3455   */\n      pop\n        /* \"#utility.yul\":3078:3455   */\n      swap3\n      swap2\n      pop\n      pop\n      jump\t// out\n        /* \"#utility.yul\":3461:3774   */\n    tag_28:\n        /* \"#utility.yul\":3574:3578   */\n      0x00\n        /* \"#utility.yul\":3612:3614   */\n      0x20\n        /* \"#utility.yul\":3601:3610   */\n      dup3\n        /* \"#utility.yul\":3597:3615   */\n      add\n        /* \"#utility.yul\":3589:3615   */\n      swap1\n      pop\n        /* \"#utility.yul\":3661:3670   */\n      dup2\n        /* \"#utility.yul\":3655:3659   */\n      dup2\n        /* \"#utility.yul\":3651:3671   */\n      sub\n        /* \"#utility.yul\":3647:3648   */\n      0x00\n        /* \"#utility.yul\":3636:3645   */\n      dup4\n        /* \"#utility.yul\":3632:3649   */\n      add\n        /* \"#utility.yul\":3625:3672   */\n      mstore\n        /* \"#utility.yul\":3689:3767   */\n      tag_154\n        /* \"#utility.yul\":3762:3766   */\n      dup2\n        /* \"#utility.yul\":3753:3759   */\n      dup5\n        /* \"#utility.yul\":3689:3767   */\n      tag_77\n      jump\t// in\n    tag_154:\n        /* \"#utility.yul\":3681:3767   */\n      swap1\n      pop\n        /* \"#utility.yul\":3461:3774   */\n      swap3\n      swap2\n      pop\n      pop\n      jump\t// out\n        /* \"#utility.yul\":3780:3857   */\n    tag_78:\n        /* \"#utility.yul\":3817:3824   */\n      0x00\n        /* \"#utility.yul\":3846:3851   */\n      dup2\n        /* \"#utility.yul\":3835:3851   */\n      swap1\n      pop\n        /* \"#utility.yul\":3780:3857   */\n      swap2\n      swap1\n      pop\n      jump\t// out\n        /* \"#utility.yul\":3863:3981   */\n    tag_79:\n        /* \"#utility.yul\":3950:3974   */\n      tag_157\n        /* \"#utility.yul\":3968:3973   */\n      dup2\n        /* \"#utility.yul\":3950:3974   */\n      tag_78\n      jump\t// in\n    tag_157:\n        /* \"#utility.yul\":3945:3948   */\n      dup3\n        /* \"#utility.yul\":3938:3975   */\n      mstore\n        /* \"#utility.yul\":3863:3981   */\n      pop\n      pop\n      jump\t// out\n        /* \"#utility.yul\":3987:4209   */\n    tag_32:\n        /* \"#utility.yul\":4080:4084   */\n      0x00\n        /* \"#utility.yul\":4118:4120   */\n      0x20\n        /* \"#utility.yul\":4107:4116   */\n      dup3\n        /* \"#utility.yul\":4103:4121   */\n      add\n        /* \"#utility.yul\":4095:4121   */\n      swap1\n      pop\n        /* \"#utility.yul\":4131:4202   */\n      tag_159\n        /* \"#utility.yul\":4199:4200   */\n      0x00\n        /* \"#utility.yul\":4188:4197   */\n      dup4\n        /* \"#utility.yul\":4184:4201   */\n      add\n        /* \"#utility.yul\":4175:4181   */\n      dup5\n        /* \"#utility.yul\":4131:4202   */\n      tag_79\n      jump\t// in\n    tag_159:\n        /* \"#utility.yul\":3987:4209   */\n      swap3\n      swap2\n      pop\n      pop\n      jump\t// out\n        /* \"#utility.yul\":4215:4332   */\n    tag_80:\n        /* \"#utility.yul\":4324:4325   */\n      0x00\n        /* \"#utility.yul\":4321:4322   */\n      0x00\n        /* \"#utility.yul\":4314:4326   */\n      revert\n        /* \"#utility.yul\":4338:4455   */\n    tag_81:\n        /* \"#utility.yul\":4447:4448   */\n      0x00\n        /* \"#utility.yul\":4444:4445   */\n      0x00\n        /* \"#utility.yul\":4437:4449   */\n      revert\n        /* \"#utility.yul\":4461:4641   */\n    tag_82:\n        /* \"#utility.yul\":4509:4586   */\n      0x4e487b7100000000000000000000000000000000000000000000000000000000\n        /* \"#utility.yul\":4506:4507   */\n      0x00\n        /* \"#utility.yul\":4499:4587   */\n      mstore\n        /* \"#utility.yul\":4606:4610   */\n      0x41\n        /* \"#utility.yul\":4603:4604   */\n      0x04\n        /* \"#utility.yul\":4596:4611   */\n      mstore\n        /* \"#utility.yul\":4630:4634   */\n      0x24\n        /* \"#utility.yul\":4627:4628   */\n      0x00\n        /* \"#utility.yul\":4620:4635   */\n      revert\n        /* \"#utility.yul\":4647:4928   */\n    tag_83:\n        /* \"#utility.yul\":4730:4757   */\n      tag_164\n        /* \"#utility.yul\":4752:4756   */\n      dup3\n        /* \"#utility.yul\":4730:4757   */\n      tag_76\n      jump\t// in\n    tag_164:\n        /* \"#utility.yul\":4722:4728   */\n      dup2\n        /* \"#utility.yul\":4718:4758   */\n      add\n        /* \"#utility.yul\":4860:4866   */\n      dup2\n        /* \"#utility.yul\":4848:4858   */\n      dup2\n        /* \"#utility.yul\":4845:4867   */\n      lt\n        /* \"#utility.yul\":4824:4842   */\n      0xffffffffffffffff\n        /* \"#utility.yul\":4812:4822   */\n      dup3\n        /* \"#utility.yul\":4809:4843   */\n      gt\n        /* \"#utility.yul\":4806:4868   */\n      or\n        /* \"#utility.yul\":4803:4891   */\n      iszero\n      tag_165\n      jumpi\n        /* \"#utility.yul\":4871:4889   */\n      tag_166\n      tag_82\n      jump\t// in\n    tag_166:\n        /* \"#utility.yul\":4803:4891   */\n    tag_165:\n        /* \"#utility.yul\":4911:4921   */\n      dup1\n        /* \"#utility.yul\":4907:4909   */\n      0x40\n        /* \"#utility.yul\":4900:4922   */\n      mstore\n        /* \"#utility.yul\":4690:4928   */\n      pop\n        /* \"#utility.yul\":4647:4928   */\n      pop\n      pop\n      jump\t// out\n        /* \"#utility.yul\":4934:5063   */\n    tag_84:\n        /* \"#utility.yul\":4968:4974   */\n      0x00\n        /* \"#utility.yul\":4995:5015   */\n      tag_168\n      tag_61\n      jump\t// in\n    tag_168:\n        /* \"#utility.yul\":4985:5015   */\n      swap1\n      pop\n        /* \"#utility.yul\":5024:5057   */\n      tag_169\n        /* \"#utility.yul\":5052:5056   */\n      dup3\n        /* \"#utility.yul\":5044:5050   */\n      dup3\n        /* \"#utility.yul\":5024:5057   */\n      tag_83\n      jump\t// in\n    tag_169:\n        /* \"#utility.yul\":4934:5063   */\n      swap2\n      swap1\n      pop\n      jump\t// out\n        /* \"#utility.yul\":5069:5377   */\n    tag_85:\n        /* \"#utility.yul\":5131:5135   */\n      0x00\n        /* \"#utility.yul\":5221:5239   */\n      0xffffffffffffffff\n        /* \"#utility.yul\":5213:5219   */\n      dup3\n        /* \"#utility.yul\":5210:5240   */\n      gt\n        /* \"#utility.yul\":5207:5263   */\n      iszero\n      tag_171\n      jumpi\n        /* \"#utility.yul\":5243:5261   */\n      tag_172\n      tag_82\n      jump\t// in\n    tag_172:\n        /* \"#utility.yul\":5207:5263   */\n    tag_171:\n        /* \"#utility.yul\":5281:5310   */\n      tag_173\n        /* \"#utility.yul\":5303:5309   */\n      dup3\n        /* \"#utility.yul\":5281:5310   */\n      tag_76\n      jump\t// in\n    tag_173:\n        /* \"#utility.yul\":5273:5310   */\n      swap1\n      pop\n        /* \"#utility.yul\":5365:5369   */\n      0x20\n        /* \"#utility.yul\":5359:5363   */\n      dup2\n        /* \"#utility.yul\":5355:5370   */\n      add\n        /* \"#utility.yul\":5347:5370   */\n      swap1\n      pop\n        /* \"#utility.yul\":5069:5377   */\n      swap2\n      swap1\n      pop\n      jump\t// out\n        /* \"#utility.yul\":5383:5531   */\n    tag_86:\n        /* \"#utility.yul\":5481:5487   */\n      dup3\n        /* \"#utility.yul\":5476:5479   */\n      dup2\n        /* \"#utility.yul\":5471:5474   */\n      dup4\n        /* \"#utility.yul\":5458:5488   */\n      calldatacopy\n        /* \"#utility.yul\":5522:5523   */\n      0x00\n        /* \"#utility.yul\":5513:5519   */\n      dup4\n        /* \"#utility.yul\":5508:5511   */\n      dup4\n        /* \"#utility.yul\":5504:5520   */\n      add\n        /* \"#utility.yul\":5497:5524   */\n      mstore\n        /* \"#utility.yul\":5383:5531   */\n      pop\n      pop\n      pop\n      jump\t// out\n        /* \"#utility.yul\":5537:5962   */\n    tag_87:\n        /* \"#utility.yul\":5615:5620   */\n      0x00\n        /* \"#utility.yul\":5640:5706   */\n      tag_176\n        /* \"#utility.yul\":5656:5705   */\n      tag_177\n        /* \"#utility.yul\":5698:5704   */\n      dup5\n        /* \"#utility.yul\":5656:5705   */\n      tag_85\n      jump\t// in\n    tag_177:\n        /* \"#utility.yul\":5640:5706   */\n      tag_84\n      jump\t// in\n    tag_176:\n        /* \"#utility.yul\":5631:5706   */\n      swap1\n      pop\n        /* \"#utility.yul\":5729:5735   */\n      dup3\n        /* \"#utility.yul\":5722:5727   */\n      dup2\n        /* \"#utility.yul\":5715:5736   */\n      mstore\n        /* \"#utility.yul\":5767:5771   */\n      0x20\n        /* \"#utility.yul\":5760:5765   */\n      dup2\n        /* \"#utility.yul\":5756:5772   */\n      add\n        /* \"#utility.yul\":5805:5808   */\n      dup5\n        /* \"#utility.yul\":5796:5802   */\n      dup5\n        /* \"#utility.yul\":5791:5794   */\n      dup5\n        /* \"#utility.yul\":5787:5803   */\n      add\n        /* \"#utility.yul\":5784:5809   */\n      gt\n        /* \"#utility.yul\":5781:5893   */\n      iszero\n      tag_178\n      jumpi\n        /* \"#utility.yul\":5812:5891   */\n      tag_179\n      tag_81\n      jump\t// in\n    tag_179:\n        /* \"#utility.yul\":5781:5893   */\n    tag_178:\n        /* \"#utility.yul\":5902:5956   */\n      tag_180\n        /* \"#utility.yul\":5949:5955   */\n      dup5\n        /* \"#utility.yul\":5944:5947   */\n      dup3\n        /* \"#utility.yul\":5939:5942   */\n      dup6\n        /* \"#utility.yul\":5902:5956   */\n      tag_86\n      jump\t// in\n    tag_180:\n        /* \"#utility.yul\":5621:5962   */\n      pop\n        /* \"#utility.yul\":5537:5962   */\n      swap4\n      swap3\n      pop\n      pop\n      pop\n      jump\t// out\n        /* \"#utility.yul\":5982:6322   */\n    tag_88:\n        /* \"#utility.yul\":6038:6043   */\n      0x00\n        /* \"#utility.yul\":6087:6090   */\n      dup3\n        /* \"#utility.yul\":6080:6084   */\n      0x1f\n        /* \"#utility.yul\":6072:6078   */\n      dup4\n        /* \"#utility.yul\":6068:6085   */\n      add\n        /* \"#utility.yul\":6064:6091   */\n      slt\n        /* \"#utility.yul\":6054:6176   */\n      tag_182\n      jumpi\n        /* \"#utility.yul\":6095:6174   */\n      tag_183\n      tag_80\n      jump\t// in\n    tag_183:\n        /* \"#utility.yul\":6054:6176   */\n    tag_182:\n        /* \"#utility.yul\":6212:6218   */\n      dup2\n        /* \"#utility.yul\":6199:6219   */\n      calldataload\n        /* \"#utility.yul\":6237:6316   */\n      tag_184\n        /* \"#utility.yul\":6312:6315   */\n      dup5\n        /* \"#utility.yul\":6304:6310   */\n      dup3\n        /* \"#utility.yul\":6297:6301   */\n      0x20\n        /* \"#utility.yul\":6289:6295   */\n      dup7\n        /* \"#utility.yul\":6285:6302   */\n      add\n        /* \"#utility.yul\":6237:6316   */\n      tag_87\n      jump\t// in\n    tag_184:\n        /* \"#utility.yul\":6228:6316   */\n      swap2\n      pop\n        /* \"#utility.yul\":6044:6322   */\n      pop\n        /* \"#utility.yul\":5982:6322   */\n      swap3\n      swap2\n      pop\n      pop\n      jump\t// out\n        /* \"#utility.yul\":6328:6837   */\n    tag_35:\n        /* \"#utility.yul\":6397:6403   */\n      0x00\n        /* \"#utility.yul\":6446:6448   */\n      0x20\n        /* \"#utility.yul\":6434:6443   */\n      dup3\n        /* \"#utility.yul\":6425:6432   */\n      dup5\n        /* \"#utility.yul\":6421:6444   */\n      sub\n        /* \"#utility.yul\":6417:6449   */\n      slt\n        /* \"#utility.yul\":6414:6533   */\n      iszero\n      tag_186\n      jumpi\n        /* \"#utility.yul\":6452:6531   */\n      tag_187\n      tag_62\n      jump\t// in\n    tag_187:\n        /* \"#utility.yul\":6414:6533   */\n    tag_186:\n        /* \"#utility.yul\":6600:6601   */\n      0x00\n        /* \"#utility.yul\":6589:6598   */\n      dup3\n        /* \"#utility.yul\":6585:6602   */\n      add\n        /* \"#utility.yul\":6572:6603   */\n      calldataload\n        /* \"#utility.yul\":6630:6648   */\n      0xffffffffffffffff\n        /* \"#utility.yul\":6622:6628   */\n      dup2\n        /* \"#utility.yul\":6619:6649   */\n      gt\n        /* \"#utility.yul\":6616:6733   */\n      iszero\n      tag_188\n      jumpi\n        /* \"#utility.yul\":6652:6731   */\n      tag_189\n      tag_63\n      jump\t// in\n    tag_189:\n        /* \"#utility.yul\":6616:6733   */\n    tag_188:\n        /* \"#utility.yul\":6757:6820   */\n      tag_190\n        /* \"#utility.yul\":6812:6819   */\n      dup5\n        /* \"#utility.yul\":6803:6809   */\n      dup3\n        /* \"#utility.yul\":6792:6801   */\n      dup6\n        /* \"#utility.yul\":6788:6810   */\n      add\n        /* \"#utility.yul\":6757:6820   */\n      tag_88\n      jump\t// in\n    tag_190:\n        /* \"#utility.yul\":6747:6820   */\n      swap2\n      pop\n        /* \"#utility.yul\":6543:6830   */\n      pop\n        /* \"#utility.yul\":6328:6837   */\n      swap3\n      swap2\n      pop\n      pop\n      jump\t// out\n        /* \"#utility.yul\":6843:7016   */\n    tag_89:\n        /* \"#utility.yul\":6983:7008   */\n      0x596f75206861766520616c726561647920766f74656421000000000000000000\n        /* \"#utility.yul\":6979:6980   */\n      0x00\n        /* \"#utility.yul\":6971:6977   */\n      dup3\n        /* \"#utility.yul\":6967:6981   */\n      add\n        /* \"#utility.yul\":6960:7009   */\n      mstore\n        /* \"#utility.yul\":6843:7016   */\n      pop\n      jump\t// out\n        /* \"#utility.yul\":7022:7388   */\n    tag_90:\n        /* \"#utility.yul\":7164:7167   */\n      0x00\n        /* \"#utility.yul\":7185:7252   */\n      tag_193\n        /* \"#utility.yul\":7249:7251   */\n      0x17\n        /* \"#utility.yul\":7244:7247   */\n      dup4\n        /* \"#utility.yul\":7185:7252   */\n      tag_74\n      jump\t// in\n    tag_193:\n        /* \"#utility.yul\":7178:7252   */\n      swap2\n      pop\n        /* \"#utility.yul\":7261:7354   */\n      tag_194\n        /* \"#utility.yul\":7350:7353   */\n      dup3\n        /* \"#utility.yul\":7261:7354   */\n      tag_89\n      jump\t// in\n    tag_194:\n        /* \"#utility.yul\":7379:7381   */\n      0x20\n        /* \"#utility.yul\":7374:7377   */\n      dup3\n        /* \"#utility.yul\":7370:7382   */\n      add\n        /* \"#utility.yul\":7363:7382   */\n      swap1\n      pop\n        /* \"#utility.yul\":7022:7388   */\n      swap2\n      swap1\n      pop\n      jump\t// out\n        /* \"#utility.yul\":7394:7813   */\n    tag_43:\n        /* \"#utility.yul\":7560:7564   */\n      0x00\n        /* \"#utility.yul\":7598:7600   */\n      0x20\n        /* \"#utility.yul\":7587:7596   */\n      dup3\n        /* \"#utility.yul\":7583:7601   */\n      add\n        /* \"#utility.yul\":7575:7601   */\n      swap1\n      pop\n        /* \"#utility.yul\":7647:7656   */\n      dup2\n        /* \"#utility.yul\":7641:7645   */\n      dup2\n        /* \"#utility.yul\":7637:7657   */\n      sub\n        /* \"#utility.yul\":7633:7634   */\n      0x00\n        /* \"#utility.yul\":7622:7631   */\n      dup4\n        /* \"#utility.yul\":7618:7635   */\n      add\n        /* \"#utility.yul\":7611:7658   */\n      mstore\n        /* \"#utility.yul\":7675:7806   */\n      tag_196\n        /* \"#utility.yul\":7801:7805   */\n      dup2\n        /* \"#utility.yul\":7675:7806   */\n      tag_90\n      jump\t// in\n    tag_196:\n        /* \"#utility.yul\":7667:7806   */\n      swap1\n      pop\n        /* \"#utility.yul\":7394:7813   */\n      swap2\n      swap1\n      pop\n      jump\t// out\n        /* \"#utility.yul\":7819:7999   */\n    tag_91:\n        /* \"#utility.yul\":7867:7944   */\n      0x4e487b7100000000000000000000000000000000000000000000000000000000\n        /* \"#utility.yul\":7864:7865   */\n      0x00\n        /* \"#utility.yul\":7857:7945   */\n      mstore\n        /* \"#utility.yul\":7964:7968   */\n      0x11\n        /* \"#utility.yul\":7961:7962   */\n      0x04\n        /* \"#utility.yul\":7954:7969   */\n      mstore\n        /* \"#utility.yul\":7988:7992   */\n      0x24\n        /* \"#utility.yul\":7985:7986   */\n      0x00\n        /* \"#utility.yul\":7978:7993   */\n      revert\n        /* \"#utility.yul\":8005:8238   */\n    tag_46:\n        /* \"#utility.yul\":8044:8047   */\n      0x00\n        /* \"#utility.yul\":8067:8091   */\n      tag_199\n        /* \"#utility.yul\":8085:8090   */\n      dup3\n        /* \"#utility.yul\":8067:8091   */\n      tag_78\n      jump\t// in\n    tag_199:\n        /* \"#utility.yul\":8058:8091   */\n      swap2\n      pop\n        /* \"#utility.yul\":8113:8179   */\n      0xffffffffffffffffffffffffffffffffffffffffffffffffffffffffffffffff\n        /* \"#utility.yul\":8106:8111   */\n      dup3\n        /* \"#utility.yul\":8103:8180   */\n      sub\n        /* \"#utility.yul\":8100:8203   */\n      tag_200\n      jumpi\n        /* \"#utility.yul\":8183:8201   */\n      tag_201\n      tag_91\n      jump\t// in\n    tag_201:\n        /* \"#utility.yul\":8100:8203   */\n    tag_200:\n        /* \"#utility.yul\":8230:8231   */\n      0x01\n        /* \"#utility.yul\":8223:8228   */\n      dup3\n        /* \"#utility.yul\":8219:8232   */\n      add\n        /* \"#utility.yul\":8212:8232   */\n      swap1\n      pop\n        /* \"#utility.yul\":8005:8238   */\n      swap2\n      swap1\n      pop\n      jump\t// out\n        /* \"#utility.yul\":8244:8424   */\n    tag_92:\n        /* \"#utility.yul\":8292:8369   */\n      0x4e487b7100000000000000000000000000000000000000000000000000000000\n        /* \"#utility.yul\":8289:8290   */\n      0x00\n        /* \"#utility.yul\":8282:8370   */\n      mstore\n        /* \"#utility.yul\":8389:8393   */\n      0x22\n        /* \"#utility.yul\":8386:8387   */\n      0x04\n        /* \"#utility.yul\":8379:8394   */\n      mstore\n        /* \"#utility.yul\":8413:8417   */\n      0x24\n        /* \"#utility.yul\":8410:8411   */\n      0x00\n        /* \"#utility.yul\":8403:8418   */\n      revert\n        /* \"#utility.yul\":8430:8750   */\n    tag_50:\n        /* \"#utility.yul\":8474:8480   */\n      0x00\n        /* \"#utility.yul\":8511:8512   */\n      0x02\n        /* \"#utility.yul\":8505:8509   */\n      dup3\n        /* \"#utility.yul\":8501:8513   */\n      div\n        /* \"#utility.yul\":8491:8513   */\n      swap1\n      pop\n        /* \"#utility.yul\":8558:8559   */\n      0x01\n        /* \"#utility.yul\":8552:8556   */\n      dup3\n        /* \"#utility.yul\":8548:8560   */\n      and\n        /* \"#utility.yul\":8579:8597   */\n      dup1\n        /* \"#utility.yul\":8569:8650   */\n      tag_204\n      jumpi\n        /* \"#utility.yul\":8635:8639   */\n      0x7f\n        /* \"#utility.yul\":8627:8633   */\n      dup3\n        /* \"#utility.yul\":8623:8640   */\n      and\n        /* \"#utility.yul\":8613:8640   */\n      swap2\n      pop\n        /* \"#utility.yul\":8569:8650   */\n    tag_204:\n        /* \"#utility.yul\":8697:8699   */\n      0x20\n        /* \"#utility.yul\":8689:8695   */\n      dup3\n        /* \"#utility.yul\":8686:8700   */\n      lt\n        /* \"#utility.yul\":8666:8684   */\n      dup2\n        /* \"#utility.yul\":8663:8701   */\n      sub\n        /* \"#utility.yul\":8660:8744   */\n      tag_205\n      jumpi\n        /* \"#utility.yul\":8716:8734   */\n      tag_206\n      tag_92\n      jump\t// in\n    tag_206:\n        /* \"#utility.yul\":8660:8744   */\n    tag_205:\n        /* \"#utility.yul\":8481:8750   */\n      pop\n        /* \"#utility.yul\":8430:8750   */\n      swap2\n      swap1\n      pop\n      jump\t// out\n        /* \"#utility.yul\":8756:8926   */\n    tag_93:\n        /* \"#utility.yul\":8896:8918   */\n      0x4f6e6c79206f776e65722063616e207265736574000000000000000000000000\n        /* \"#utility.yul\":8892:8893   */\n      0x00\n        /* \"#utility.yul\":8884:8890   */\n      dup3\n        /* \"#utility.yul\":8880:8894   */\n      add\n        /* \"#utility.yul\":8873:8919   */\n      mstore\n        /* \"#utility.yul\":8756:8926   */\n      pop\n      jump\t// out\n        /* \"#utility.yul\":8932:9298   */\n    tag_94:\n        /* \"#utility.yul\":9074:9077   */\n      0x00\n        /* \"#utility.yul\":9095:9162   */\n      tag_209\n        /* \"#utility.yul\":9159:9161   */\n      0x14\n        /* \"#utility.yul\":9154:9157   */\n      dup4\n        /* \"#utility.yul\":9095:9162   */\n      tag_74\n      jump\t// in\n    tag_209:\n        /* \"#utility.yul\":9088:9162   */\n      swap2\n      pop\n        /* \"#utility.yul\":9171:9264   */\n      tag_210\n        /* \"#utility.yul\":9260:9263   */\n      dup3\n        /* \"#utility.yul\":9171:9264   */\n      tag_93\n      jump\t// in\n    tag_210:\n        /* \"#utility.yul\":9289:9291   */\n      0x20\n        /* \"#utility.yul\":9284:9287   */\n      dup3\n        /* \"#utility.yul\":9280:9292   */\n      add\n        /* \"#utility.yul\":9273:9292   */\n      swap1\n      pop\n        /* \"#utility.yul\":8932:9298   */\n      swap2\n      swap1\n      pop\n      jump\t// out\n        /* \"#utility.yul\":9304:9723   */\n    tag_58:\n        /* \"#utility.yul\":9470:9474   */\n      0x00\n        /* \"#utility.yul\":9508:9510   */\n      0x20\n        /* \"#utility.yul\":9497:9506   */\n      dup3\n        /* \"#utility.yul\":9493:9511   */\n      add\n        /* \"#utility.yul\":9485:9511   */\n      swap1\n      pop\n        /* \"#utility.yul\":9557:9566   */\n      dup2\n        /* \"#utility.yul\":9551:9555   */\n      dup2\n        /* \"#utility.yul\":9547:9567   */\n      sub\n        /* \"#utility.yul\":9543:9544   */\n      0x00\n        /* \"#utility.yul\":9532:9541   */\n      dup4\n        /* \"#utility.yul\":9528:9545   */\n      add\n        /* \"#utility.yul\":9521:9568   */\n      mstore\n        /* \"#utility.yul\":9585:9716   */\n      tag_212\n        /* \"#utility.yul\":9711:9715   */\n      dup2\n        /* \"#utility.yul\":9585:9716   */\n      tag_94\n      jump\t// in\n    tag_212:\n        /* \"#utility.yul\":9577:9716   */\n      swap1\n      pop\n        /* \"#utility.yul\":9304:9723   */\n      swap2\n      swap1\n      pop\n      jump\t// out\n        /* \"#utility.yul\":9729:9870   */\n    tag_95:\n        /* \"#utility.yul\":9778:9782   */\n      0x00\n        /* \"#utility.yul\":9801:9804   */\n      dup2\n        /* \"#utility.yul\":9793:9804   */\n      swap1\n      pop\n        /* \"#utility.yul\":9824:9827   */\n      dup2\n        /* \"#utility.yul\":9821:9822   */\n      0x00\n        /* \"#utility.yul\":9814:9828   */\n      mstore\n        /* \"#utility.yul\":9858:9862   */\n      0x20\n        /* \"#utility.yul\":9855:9856   */\n      0x00\n        /* \"#utility.yul\":9845:9863   */\n      keccak256\n        /* \"#utility.yul\":9837:9863   */\n      swap1\n      pop\n        /* \"#utility.yul\":9729:9870   */\n      swap2\n      swap1\n      pop\n      jump\t// out\n        /* \"#utility.yul\":9876:9969   */\n    tag_96:\n        /* \"#utility.yul\":9913:9919   */\n      0x00\n        /* \"#utility.yul\":9960:9962   */\n      0x20\n        /* \"#utility.yul\":9955:9957   */\n      0x1f\n        /* \"#utility.yul\":9948:9953   */\n      dup4\n        /* \"#utility.yul\":9944:9958   */\n      add\n        /* \"#utility.yul\":9940:9963   */\n      div\n        /* \"#utility.yul\":9930:9963   */\n      swap1\n      pop\n        /* \"#utility.yul\":9876:9969   */\n      swap2\n      swap1\n      pop\n      jump\t// out\n        /* \"#utility.yul\":9975:10082   */\n    tag_97:\n        /* \"#utility.yul\":10019:10027   */\n      0x00\n        /* \"#utility.yul\":10069:10074   */\n      dup3\n        /* \"#utility.yul\":10063:10067   */\n      dup3\n        /* \"#utility.yul\":10059:10075   */\n      shl\n        /* \"#utility.yul\":10038:10075   */\n      swap1\n      pop\n        /* \"#utility.yul\":9975:10082   */\n      swap3\n      swap2\n      pop\n      pop\n      jump\t// out\n        /* \"#utility.yul\":10088:10481   */\n    tag_98:\n        /* \"#utility.yul\":10157:10163   */\n      0x00\n        /* \"#utility.yul\":10207:10208   */\n      0x08\n        /* \"#utility.yul\":10195:10205   */\n      dup4\n        /* \"#utility.yul\":10191:10209   */\n      mul\n        /* \"#utility.yul\":10230:10327   */\n      tag_217\n        /* \"#utility.yul\":10260:10326   */\n      0xffffffffffffffffffffffffffffffffffffffffffffffffffffffffffffffff\n        /* \"#utility.yul\":10249:10258   */\n      dup3\n        /* \"#utility.yul\":10230:10327   */\n      tag_97\n      jump\t// in\n    tag_217:\n        /* \"#utility.yul\":10348:10387   */\n      tag_218\n        /* \"#utility.yul\":10378:10386   */\n      dup7\n        /* \"#utility.yul\":10367:10376   */\n      dup4\n        /* \"#utility.yul\":10348:10387   */\n      tag_97\n      jump\t// in\n    tag_218:\n        /* \"#utility.yul\":10336:10387   */\n      swap6\n      pop\n        /* \"#utility.yul\":10420:10424   */\n      dup1\n        /* \"#utility.yul\":10416:10425   */\n      not\n        /* \"#utility.yul\":10409:10414   */\n      dup5\n        /* \"#utility.yul\":10405:10426   */\n      and\n        /* \"#utility.yul\":10396:10426   */\n      swap4\n      pop\n        /* \"#utility.yul\":10469:10473   */\n      dup1\n        /* \"#utility.yul\":10459:10467   */\n      dup7\n        /* \"#utility.yul\":10455:10474   */\n      and\n        /* \"#utility.yul\":10448:10453   */\n      dup5\n        /* \"#utility.yul\":10445:10475   */\n      or\n        /* \"#utility.yul\":10435:10475   */\n      swap3\n      pop\n        /* \"#utility.yul\":10164:10481   */\n      pop\n      pop\n        /* \"#utility.yul\":10088:10481   */\n      swap4\n      swap3\n      pop\n      pop\n      pop\n      jump\t// out\n        /* \"#utility.yul\":10487:10547   */\n    tag_99:\n        /* \"#utility.yul\":10515:10518   */\n      0x00\n        /* \"#utility.yul\":10536:10541   */\n      dup2\n        /* \"#utility.yul\":10529:10541   */\n      swap1\n      pop\n        /* \"#utility.yul\":10487:10547   */\n      swap2\n      swap1\n      pop\n      jump\t// out\n        /* \"#utility.yul\":10553:10695   */\n    tag_100:\n        /* \"#utility.yul\":10603:10612   */\n      0x00\n        /* \"#utility.yul\":10636:10689   */\n      tag_221\n        /* \"#utility.yul\":10654:10688   */\n      tag_222\n        /* \"#utility.yul\":10663:10687   */\n      tag_223\n        /* \"#utility.yul\":10681:10686   */\n      dup5\n        /* \"#utility.yul\":10663:10687   */\n      tag_78\n      jump\t// in\n    tag_223:\n        /* \"#utility.yul\":10654:10688   */\n      tag_99\n      jump\t// in\n    tag_222:\n        /* \"#utility.yul\":10636:10689   */\n      tag_78\n      jump\t// in\n    tag_221:\n        /* \"#utility.yul\":10623:10689   */\n      swap1\n      pop\n        /* \"#utility.yul\":10553:10695   */\n      swap2\n      swap1\n      pop\n      jump\t// out\n        /* \"#utility.yul\":10701:10776   */\n    tag_101:\n        /* \"#utility.yul\":10744:10747   */\n      0x00\n        /* \"#utility.yul\":10765:10770   */\n      dup2\n        /* \"#utility.yul\":10758:10770   */\n      swap1\n      pop\n        /* \"#utility.yul\":10701:10776   */\n      swap2\n      swap1\n      pop\n      jump\t// out\n        /* \"#utility.yul\":10782:11051   */\n    tag_102:\n        /* \"#utility.yul\":10892:10931   */\n      tag_226\n        /* \"#utility.yul\":10923:10930   */\n      dup4\n        /* \"#utility.yul\":10892:10931   */\n      tag_100\n      jump\t// in\n    tag_226:\n        /* \"#utility.yul\":10953:11044   */\n      tag_227\n        /* \"#utility.yul\":11002:11043   */\n      tag_228\n        /* \"#utility.yul\":11026:11042   */\n      dup3\n        /* \"#utility.yul\":11002:11043   */\n      tag_101\n      jump\t// in\n    tag_228:\n        /* \"#utility.yul\":10994:11000   */\n      dup5\n        /* \"#utility.yul\":10987:10991   */\n      dup5\n        /* \"#utility.yul\":10981:10992   */\n      sload\n        /* \"#utility.yul\":10953:11044   */\n      tag_98\n      jump\t// in\n    tag_227:\n        /* \"#utility.yul\":10947:10951   */\n      dup3\n        /* \"#utility.yul\":10940:11045   */\n      sstore\n        /* \"#utility.yul\":10858:11051   */\n      pop\n        /* \"#utility.yul\":10782:11051   */\n      pop\n      pop\n      pop\n      jump\t// out\n        /* \"#utility.yul\":11057:11130   */\n    tag_103:\n        /* \"#utility.yul\":11102:11105   */\n      0x00\n        /* \"#utility.yul\":11123:11124   */\n      0x00\n        /* \"#utility.yul\":11116:11124   */\n      swap1\n      pop\n        /* \"#utility.yul\":11057:11130   */\n      swap1\n      jump\t// out\n        /* \"#utility.yul\":11136:11325   */\n    tag_104:\n        /* \"#utility.yul\":11213:11245   */\n      tag_231\n      tag_103\n      jump\t// in\n    tag_231:\n        /* \"#utility.yul\":11254:11319   */\n      tag_232\n        /* \"#utility.yul\":11312:11318   */\n      dup2\n        /* \"#utility.yul\":11304:11310   */\n      dup5\n        /* \"#utility.yul\":11298:11302   */\n      dup5\n        /* \"#utility.yul\":11254:11319   */\n      tag_102\n      jump\t// in\n    tag_232:\n        /* \"#utility.yul\":11189:11325   */\n      pop\n        /* \"#utility.yul\":11136:11325   */\n      pop\n      pop\n      jump\t// out\n        /* \"#utility.yul\":11331:11517   */\n    tag_105:\n        /* \"#utility.yul\":11391:11511   */\n    tag_234:\n        /* \"#utility.yul\":11408:11411   */\n      dup2\n        /* \"#utility.yul\":11401:11406   */\n      dup2\n        /* \"#utility.yul\":11398:11412   */\n      lt\n        /* \"#utility.yul\":11391:11511   */\n      iszero\n      tag_236\n      jumpi\n        /* \"#utility.yul\":11462:11501   */\n      tag_237\n        /* \"#utility.yul\":11499:11500   */\n      0x00\n        /* \"#utility.yul\":11492:11497   */\n      dup3\n        /* \"#utility.yul\":11462:11501   */\n      tag_104\n      jump\t// in\n    tag_237:\n        /* \"#utility.yul\":11435:11436   */\n      0x01\n        /* \"#utility.yul\":11428:11433   */\n      dup2\n        /* \"#utility.yul\":11424:11437   */\n      add\n        /* \"#utility.yul\":11415:11437   */\n      swap1\n      pop\n        /* \"#utility.yul\":11391:11511   */\n      jump(tag_234)\n    tag_236:\n        /* \"#utility.yul\":11331:11517   */\n      pop\n      pop\n      jump\t// out\n        /* \"#utility.yul\":11523:12066   */\n    tag_106:\n        /* \"#utility.yul\":11624:11626   */\n      0x1f\n        /* \"#utility.yul\":11619:11622   */\n      dup3\n        /* \"#utility.yul\":11616:11627   */\n      gt\n        /* \"#utility.yul\":11613:12059   */\n      iszero\n      tag_239\n      jumpi\n        /* \"#utility.yul\":11658:11696   */\n      tag_240\n        /* \"#utility.yul\":11690:11695   */\n      dup2\n        /* \"#utility.yul\":11658:11696   */\n      tag_95\n      jump\t// in\n    tag_240:\n        /* \"#utility.yul\":11742:11771   */\n      tag_241\n        /* \"#utility.yul\":11760:11770   */\n      dup5\n        /* \"#utility.yul\":11742:11771   */\n      tag_96\n      jump\t// in\n    tag_241:\n        /* \"#utility.yul\":11732:11740   */\n      dup2\n        /* \"#utility.yul\":11728:11772   */\n      add\n        /* \"#utility.yul\":11925:11927   */\n      0x20\n        /* \"#utility.yul\":11913:11923   */\n      dup6\n        /* \"#utility.yul\":11910:11928   */\n      lt\n        /* \"#utility.yul\":11907:11956   */\n      iszero\n      tag_242\n      jumpi\n        /* \"#utility.yul\":11946:11954   */\n      dup2\n        /* \"#utility.yul\":11931:11954   */\n      swap1\n      pop\n        /* \"#utility.yul\":11907:11956   */\n    tag_242:\n        /* \"#utility.yul\":11969:12049   */\n      tag_243\n        /* \"#utility.yul\":12025:12047   */\n      tag_244\n        /* \"#utility.yul\":12043:12046   */\n      dup6\n        /* \"#utility.yul\":12025:12047   */\n      tag_96\n      jump\t// in\n    tag_244:\n        /* \"#utility.yul\":12015:12023   */\n      dup4\n        /* \"#utility.yul\":12011:12048   */\n      add\n        /* \"#utility.yul\":11998:12009   */\n      dup3\n        /* \"#utility.yul\":11969:12049   */\n      tag_105\n      jump\t// in\n    tag_243:\n        /* \"#utility.yul\":11628:12059   */\n      pop\n      pop\n        /* \"#utility.yul\":11613:12059   */\n    tag_239:\n        /* \"#utility.yul\":11523:12066   */\n      pop\n      pop\n      pop\n      jump\t// out\n        /* \"#utility.yul\":12072:12189   */\n    tag_107:\n        /* \"#utility.yul\":12126:12134   */\n      0x00\n        /* \"#utility.yul\":12176:12181   */\n      dup3\n        /* \"#utility.yul\":12170:12174   */\n      dup3\n        /* \"#utility.yul\":12166:12182   */\n      shr\n        /* \"#utility.yul\":12145:12182   */\n      swap1\n      pop\n        /* \"#utility.yul\":12072:12189   */\n      swap3\n      swap2\n      pop\n      pop\n      jump\t// out\n        /* \"#utility.yul\":12195:12364   */\n    tag_108:\n        /* \"#utility.yul\":12239:12245   */\n      0x00\n        /* \"#utility.yul\":12272:12323   */\n      tag_247\n        /* \"#utility.yul\":12320:12321   */\n      0x00\n        /* \"#utility.yul\":12316:12322   */\n      not\n        /* \"#utility.yul\":12308:12313   */\n      dup5\n        /* \"#utility.yul\":12305:12306   */\n      0x08\n        /* \"#utility.yul\":12301:12314   */\n      mul\n        /* \"#utility.yul\":12272:12323   */\n      tag_107\n      jump\t// in\n    tag_247:\n        /* \"#utility.yul\":12268:12324   */\n      not\n        /* \"#utility.yul\":12353:12357   */\n      dup1\n        /* \"#utility.yul\":12347:12351   */\n      dup4\n        /* \"#utility.yul\":12343:12358   */\n      and\n        /* \"#utility.yul\":12333:12358   */\n      swap2\n      pop\n        /* \"#utility.yul\":12246:12364   */\n      pop\n        /* \"#utility.yul\":12195:12364   */\n      swap3\n      swap2\n      pop\n      pop\n      jump\t// out\n        /* \"#utility.yul\":12369:12664   */\n    tag_109:\n        /* \"#utility.yul\":12445:12449   */\n      0x00\n        /* \"#utility.yul\":12591:12620   */\n      tag_249\n        /* \"#utility.yul\":12616:12619   */\n      dup4\n        /* \"#utility.yul\":12610:12614   */\n      dup4\n        /* \"#utility.yul\":12591:12620   */\n      tag_108\n      jump\t// in\n    tag_249:\n        /* \"#utility.yul\":12583:12620   */\n      swap2\n      pop\n        /* \"#utility.yul\":12653:12656   */\n      dup3\n        /* \"#utility.yul\":12650:12651   */\n      0x02\n        /* \"#utility.yul\":12646:12657   */\n      mul\n        /* \"#utility.yul\":12640:12644   */\n      dup3\n        /* \"#utility.yul\":12637:12658   */\n      or\n        /* \"#utility.yul\":12629:12658   */\n      swap1\n      pop\n        /* \"#utility.yul\":12369:12664   */\n      swap3\n      swap2\n      pop\n      pop\n      jump\t// out\n        /* \"#utility.yul\":12669:14064   */\n    tag_60:\n        /* \"#utility.yul\":12786:12823   */\n      tag_251\n        /* \"#utility.yul\":12819:12822   */\n      dup3\n        /* \"#utility.yul\":12786:12823   */\n      tag_73\n      jump\t// in\n    tag_251:\n        /* \"#utility.yul\":12888:12906   */\n      0xffffffffffffffff\n        /* \"#utility.yul\":12880:12886   */\n      dup2\n        /* \"#utility.yul\":12877:12907   */\n      gt\n        /* \"#utility.yul\":12874:12930   */\n      iszero\n      tag_252\n      jumpi\n        /* \"#utility.yul\":12910:12928   */\n      tag_253\n      tag_82\n      jump\t// in\n    tag_253:\n        /* \"#utility.yul\":12874:12930   */\n    tag_252:\n        /* \"#utility.yul\":12954:12992   */\n      tag_254\n        /* \"#utility.yul\":12986:12990   */\n      dup3\n        /* \"#utility.yul\":12980:12991   */\n      sload\n        /* \"#utility.yul\":12954:12992   */\n      tag_50\n      jump\t// in\n    tag_254:\n        /* \"#utility.yul\":13039:13106   */\n      tag_255\n        /* \"#utility.yul\":13099:13105   */\n      dup3\n        /* \"#utility.yul\":13091:13097   */\n      dup3\n        /* \"#utility.yul\":13085:13089   */\n      dup6\n        /* \"#utility.yul\":13039:13106   */\n      tag_106\n      jump\t// in\n    tag_255:\n        /* \"#utility.yul\":13133:13134   */\n      0x00\n        /* \"#utility.yul\":13157:13161   */\n      0x20\n        /* \"#utility.yul\":13144:13161   */\n      swap1\n      pop\n        /* \"#utility.yul\":13189:13191   */\n      0x1f\n        /* \"#utility.yul\":13181:13187   */\n      dup4\n        /* \"#utility.yul\":13178:13192   */\n      gt\n        /* \"#utility.yul\":13206:13207   */\n      0x01\n        /* \"#utility.yul\":13201:13819   */\n      dup2\n      eq\n      tag_257\n      jumpi\n        /* \"#utility.yul\":13863:13864   */\n      0x00\n        /* \"#utility.yul\":13880:13886   */\n      dup5\n        /* \"#utility.yul\":13877:13954   */\n      iszero\n      tag_258\n      jumpi\n        /* \"#utility.yul\":13929:13938   */\n      dup3\n        /* \"#utility.yul\":13924:13927   */\n      dup8\n        /* \"#utility.yul\":13920:13939   */\n      add\n        /* \"#utility.yul\":13914:13940   */\n      mload\n        /* \"#utility.yul\":13905:13940   */\n      swap1\n      pop\n        /* \"#utility.yul\":13877:13954   */\n    tag_258:\n        /* \"#utility.yul\":13980:14047   */\n      tag_259\n        /* \"#utility.yul\":14040:14046   */\n      dup6\n        /* \"#utility.yul\":14033:14038   */\n      dup3\n        /* \"#utility.yul\":13980:14047   */\n      tag_109\n      jump\t// in\n    tag_259:\n        /* \"#utility.yul\":13974:13978   */\n      dup7\n        /* \"#utility.yul\":13967:14048   */\n      sstore\n        /* \"#utility.yul\":13836:14058   */\n      pop\n        /* \"#utility.yul\":13171:14058   */\n      jump(tag_256)\n        /* \"#utility.yul\":13201:13819   */\n    tag_257:\n        /* \"#utility.yul\":13253:13257   */\n      0x1f\n        /* \"#utility.yul\":13249:13258   */\n      not\n        /* \"#utility.yul\":13241:13247   */\n      dup5\n        /* \"#utility.yul\":13237:13259   */\n      and\n        /* \"#utility.yul\":13287:13324   */\n      tag_260\n        /* \"#utility.yul\":13319:13323   */\n      dup7\n        /* \"#utility.yul\":13287:13324   */\n      tag_95\n      jump\t// in\n    tag_260:\n        /* \"#utility.yul\":13346:13347   */\n      0x00\n        /* \"#utility.yul\":13360:13568   */\n    tag_261:\n        /* \"#utility.yul\":13374:13381   */\n      dup3\n        /* \"#utility.yul\":13371:13372   */\n      dup2\n        /* \"#utility.yul\":13368:13382   */\n      lt\n        /* \"#utility.yul\":13360:13568   */\n      iszero\n      tag_263\n      jumpi\n        /* \"#utility.yul\":13453:13462   */\n      dup5\n        /* \"#utility.yul\":13448:13451   */\n      dup10\n        /* \"#utility.yul\":13444:13463   */\n      add\n        /* \"#utility.yul\":13438:13464   */\n      mload\n        /* \"#utility.yul\":13430:13436   */\n      dup3\n        /* \"#utility.yul\":13423:13465   */\n      sstore\n        /* \"#utility.yul\":13504:13505   */\n      0x01\n        /* \"#utility.yul\":13496:13502   */\n      dup3\n        /* \"#utility.yul\":13492:13506   */\n      add\n        /* \"#utility.yul\":13482:13506   */\n      swap2\n      pop\n        /* \"#utility.yul\":13551:13553   */\n      0x20\n        /* \"#utility.yul\":13540:13549   */\n      dup6\n        /* \"#utility.yul\":13536:13554   */\n      add\n        /* \"#utility.yul\":13523:13554   */\n      swap5\n      pop\n        /* \"#utility.yul\":13397:13401   */\n      0x20\n        /* \"#utility.yul\":13394:13395   */\n      dup2\n        /* \"#utility.yul\":13390:13402   */\n      add\n        /* \"#utility.yul\":13385:13402   */\n      swap1\n      pop\n        /* \"#utility.yul\":13360:13568   */\n      jump(tag_261)\n    tag_263:\n        /* \"#utility.yul\":13596:13602   */\n      dup7\n        /* \"#utility.yul\":13587:13594   */\n      dup4\n        /* \"#utility.yul\":13584:13603   */\n      lt\n        /* \"#utility.yul\":13581:13760   */\n      iszero\n      tag_264\n      jumpi\n        /* \"#utility.yul\":13654:13663   */\n      dup5\n        /* \"#utility.yul\":13649:13652   */\n      dup10\n        /* \"#utility.yul\":13645:13664   */\n      add\n        /* \"#utility.yul\":13639:13665   */\n      mload\n        /* \"#utility.yul\":13697:13745   */\n      tag_265\n        /* \"#utility.yul\":13739:13743   */\n      0x1f\n        /* \"#utility.yul\":13731:13737   */\n      dup10\n        /* \"#utility.yul\":13727:13744   */\n      and\n        /* \"#utility.yul\":13716:13725   */\n      dup3\n        /* \"#utility.yul\":13697:13745   */\n      tag_108\n      jump\t// in\n    tag_265:\n        /* \"#utility.yul\":13689:13695   */\n      dup4\n        /* \"#utility.yul\":13682:13746   */\n      sstore\n        /* \"#utility.yul\":13604:13760   */\n      pop\n        /* \"#utility.yul\":13581:13760   */\n    tag_264:\n        /* \"#utility.yul\":13806:13807   */\n      0x01\n        /* \"#utility.yul\":13802:13803   */\n      0x02\n        /* \"#utility.yul\":13794:13800   */\n      dup9\n        /* \"#utility.yul\":13790:13804   */\n      mul\n        /* \"#utility.yul\":13786:13808   */\n      add\n        /* \"#utility.yul\":13780:13784   */\n      dup9\n        /* \"#utility.yul\":13773:13809   */\n      sstore\n        /* \"#utility.yul\":13208:13819   */\n      pop\n      pop\n      pop\n        /* \"#utility.yul\":13171:14058   */\n    tag_256:\n      pop\n        /* \"#utility.yul\":12761:14064   */\n      pop\n      pop\n      pop\n        /* \"#utility.yul\":12669:14064   */\n      pop\n      pop\n      jump\t// out\n\n    auxdata: 0xa2646970667358221220f75ef88450fe07b35873021720c61612d19722375369e4eccd978f98386f7a7c64736f6c634300081e0033\n}\n",
				"bytecode": {
					"linkReferences": {},
					"object": "608060405234801561000f575f5ffd5b506040516110c93803806110c9833981810160405281019061003191906101d3565b805f908161003f919061042a565b503360015f6101000a81548173ffffffffffffffffffffffffffffffffffffffff021916908373ffffffffffffffffffffffffffffffffffffffff160217905550506104f9565b5f604051905090565b5f5ffd5b5f5ffd5b5f5ffd5b5f5ffd5b5f601f19601f8301169050919050565b7f4e487b71000000000000000000000000000000000000000000000000000000005f52604160045260245ffd5b6100e58261009f565b810181811067ffffffffffffffff82111715610104576101036100af565b5b80604052505050565b5f610116610086565b905061012282826100dc565b919050565b5f67ffffffffffffffff821115610141576101406100af565b5b61014a8261009f565b9050602081019050919050565b8281835e5f83830152505050565b5f61017761017284610127565b61010d565b9050828152602081018484840111156101935761019261009b565b5b61019e848285610157565b509392505050565b5f82601f8301126101ba576101b9610097565b5b81516101ca848260208601610165565b91505092915050565b5f602082840312156101e8576101e761008f565b5b5f82015167ffffffffffffffff81111561020557610204610093565b5b610211848285016101a6565b91505092915050565b5f81519050919050565b7f4e487b71000000000000000000000000000000000000000000000000000000005f52602260045260245ffd5b5f600282049050600182168061026857607f821691505b60208210810361027b5761027a610224565b5b50919050565b5f819050815f5260205f209050919050565b5f6020601f8301049050919050565b5f82821b905092915050565b5f600883026102dd7fffffffffffffffffffffffffffffffffffffffffffffffffffffffffffffffff826102a2565b6102e786836102a2565b95508019841693508086168417925050509392505050565b5f819050919050565b5f819050919050565b5f61032b610326610321846102ff565b610308565b6102ff565b9050919050565b5f819050919050565b61034483610311565b61035861035082610332565b8484546102ae565b825550505050565b5f5f905090565b61036f610360565b61037a81848461033b565b505050565b5b8181101561039d576103925f82610367565b600181019050610380565b5050565b601f8211156103e2576103b381610281565b6103bc84610293565b810160208510156103cb578190505b6103df6103d785610293565b83018261037f565b50505b505050565b5f82821c905092915050565b5f6104025f19846008026103e7565b1980831691505092915050565b5f61041a83836103f3565b9150826002028217905092915050565b6104338261021a565b67ffffffffffffffff81111561044c5761044b6100af565b5b6104568254610251565b6104618282856103a1565b5f60209050601f831160018114610492575f8415610480578287015190505b61048a858261040f565b8655506104f1565b601f1984166104a086610281565b5f5b828110156104c7578489015182556001820191506020850194506020810190506104a2565b868310156104e457848901516104e0601f8916826103f3565b8355505b6001600288020188555050505b505050505050565b610bc3806105065f395ff3fe608060405234801561000f575f5ffd5b506004361061007b575f3560e01c8063753ec10311610059578063753ec103146100e9578063b5b47f4214610107578063f3fa422614610125578063fb286c65146101415761007b565b806309eef43e1461007f57806346c96aac146100af5780634b9f5c98146100cd575b5f5ffd5b6100996004803603810190610094919061046e565b61015f565b6040516100a691906104b3565b60405180910390f35b6100b761017c565b6040516100c491906104db565b60405180910390f35b6100e760048036038101906100e2919061051e565b6101a1565b005b6100f16102bd565b6040516100fe91906105b9565b60405180910390f35b61010f610348565b60405161011c91906105f1565b60405180910390f35b61013f600480360381019061013a9190610736565b61034e565b005b6101496103fd565b60405161015691906105f1565b60405180910390f35b6004602052805f5260405f205f915054906101000a900460ff1681565b60015f9054906101000a900473ffffffffffffffffffffffffffffffffffffffff1681565b60045f3373ffffffffffffffffffffffffffffffffffffffff1673ffffffffffffffffffffffffffffffffffffffff1681526020019081526020015f205f9054906101000a900460ff161561022b576040517f08c379a0000000000000000000000000000000000000000000000000000000008152600401610222906107c7565b60405180910390fd5b600160045f3373ffffffffffffffffffffffffffffffffffffffff1673ffffffffffffffffffffffffffffffffffffffff1681526020019081526020015f205f6101000a81548160ff02191690831515021790555080156102a25760025f81548092919061029890610812565b91905055506102ba565b60035f8154809291906102b490610812565b91905055505b50565b5f80546102c990610886565b80601f01602080910402602001604051908101604052809291908181526020018280546102f590610886565b80156103405780601f1061031757610100808354040283529160200191610340565b820191905f5260205f20905b81548152906001019060200180831161032357829003601f168201915b505050505081565b60035481565b60015f9054906101000a900473ffffffffffffffffffffffffffffffffffffffff1673ffffffffffffffffffffffffffffffffffffffff163373ffffffffffffffffffffffffffffffffffffffff16146103dd576040517f08c379a00000000000000000000000000000000000000000000000000000000081526004016103d490610900565b60405180910390fd5b805f90816103eb9190610abe565b505f6002819055505f60038190555050565b60025481565b5f604051905090565b5f5ffd5b5f5ffd5b5f73ffffffffffffffffffffffffffffffffffffffff82169050919050565b5f61043d82610414565b9050919050565b61044d81610433565b8114610457575f5ffd5b50565b5f8135905061046881610444565b92915050565b5f602082840312156104835761048261040c565b5b5f6104908482850161045a565b91505092915050565b5f8115159050919050565b6104ad81610499565b82525050565b5f6020820190506104c65f8301846104a4565b92915050565b6104d581610433565b82525050565b5f6020820190506104ee5f8301846104cc565b92915050565b6104fd81610499565b8114610507575f5ffd5b50565b5f81359050610518816104f4565b92915050565b5f602082840312156105335761053261040c565b5b5f6105408482850161050a565b91505092915050565b5f81519050919050565b5f82825260208201905092915050565b8281835e5f83830152505050565b5f601f19601f8301169050919050565b5f61058b82610549565b6105958185610553565b93506105a5818560208601610563565b6105ae81610571565b840191505092915050565b5f6020820190508181035f8301526105d18184610581565b905092915050565b5f819050919050565b6105eb816105d9565b82525050565b5f6020820190506106045f8301846105e2565b92915050565b5f5ffd5b5f5ffd5b7f4e487b71000000000000000000000000000000000000000000000000000000005f52604160045260245ffd5b61064882610571565b810181811067ffffffffffffffff8211171561066757610666610612565b5b80604052505050565b5f610679610403565b9050610685828261063f565b919050565b5f67ffffffffffffffff8211156106a4576106a3610612565b5b6106ad82610571565b9050602081019050919050565b828183375f83830152505050565b5f6106da6106d58461068a565b610670565b9050828152602081018484840111156106f6576106f561060e565b5b6107018482856106ba565b509392505050565b5f82601f83011261071d5761071c61060a565b5b813561072d8482602086016106c8565b91505092915050565b5f6020828403121561074b5761074a61040c565b5b5f82013567ffffffffffffffff81111561076857610767610410565b5b61077484828501610709565b91505092915050565b7f596f75206861766520616c726561647920766f746564210000000000000000005f82015250565b5f6107b1601783610553565b91506107bc8261077d565b602082019050919050565b5f6020820190508181035f8301526107de816107a5565b9050919050565b7f4e487b71000000000000000000000000000000000000000000000000000000005f52601160045260245ffd5b5f61081c826105d9565b91507fffffffffffffffffffffffffffffffffffffffffffffffffffffffffffffffff820361084e5761084d6107e5565b5b600182019050919050565b7f4e487b71000000000000000000000000000000000000000000000000000000005f52602260045260245ffd5b5f600282049050600182168061089d57607f821691505b6020821081036108b0576108af610859565b5b50919050565b7f4f6e6c79206f776e65722063616e2072657365740000000000000000000000005f82015250565b5f6108ea601483610553565b91506108f5826108b6565b602082019050919050565b5f6020820190508181035f830152610917816108de565b9050919050565b5f819050815f5260205f209050919050565b5f6020601f8301049050919050565b5f82821b905092915050565b5f6008830261097a7fffffffffffffffffffffffffffffffffffffffffffffffffffffffffffffffff8261093f565b610984868361093f565b95508019841693508086168417925050509392505050565b5f819050919050565b5f6109bf6109ba6109b5846105d9565b61099c565b6105d9565b9050919050565b5f819050919050565b6109d8836109a5565b6109ec6109e4826109c6565b84845461094b565b825550505050565b5f5f905090565b610a036109f4565b610a0e8184846109cf565b505050565b5b81811015610a3157610a265f826109fb565b600181019050610a14565b5050565b601f821115610a7657610a478161091e565b610a5084610930565b81016020851015610a5f578190505b610a73610a6b85610930565b830182610a13565b50505b505050565b5f82821c905092915050565b5f610a965f1984600802610a7b565b1980831691505092915050565b5f610aae8383610a87565b9150826002028217905092915050565b610ac782610549565b67ffffffffffffffff811115610ae057610adf610612565b5b610aea8254610886565b610af5828285610a35565b5f60209050601f831160018114610b26575f8415610b14578287015190505b610b1e8582610aa3565b865550610b85565b601f198416610b348661091e565b5f5b82811015610b5b57848901518255600182019150602085019450602081019050610b36565b86831015610b785784890151610b74601f891682610a87565b8355505b6001600288020188555050505b50505050505056fea2646970667358221220f75ef88450fe07b35873021720c61612d19722375369e4eccd978f98386f7a7c64736f6c634300081e0033",
					"opcodes": "PUSH1 0x80 PUSH1 0x40 MSTORE CALLVALUE DUP1 ISZERO PUSH2 0xF JUMPI PUSH0 PUSH0 REVERT JUMPDEST POP PUSH1 0x40 MLOAD PUSH2 0x10C9 CODESIZE SUB DUP1 PUSH2 0x10C9 DUP4 CODECOPY DUP2 DUP2 ADD PUSH1 0x40 MSTORE DUP2 ADD SWAP1 PUSH2 0x31 SWAP2 SWAP1 PUSH2 0x1D3 JUMP JUMPDEST DUP1 PUSH0 SWAP1 DUP2 PUSH2 0x3F SWAP2 SWAP1 PUSH2 0x42A JUMP JUMPDEST POP CALLER PUSH1 0x1 PUSH0 PUSH2 0x100 EXP DUP2 SLOAD DUP2 PUSH20 0xFFFFFFFFFFFFFFFFFFFFFFFFFFFFFFFFFFFFFFFF MUL NOT AND SWAP1 DUP4 PUSH20 0xFFFFFFFFFFFFFFFFFFFFFFFFFFFFFFFFFFFFFFFF AND MUL OR SWAP1 SSTORE POP POP PUSH2 0x4F9 JUMP JUMPDEST PUSH0 PUSH1 0x40 MLOAD SWAP1 POP SWAP1 JUMP JUMPDEST PUSH0 PUSH0 REVERT JUMPDEST PUSH0 PUSH0 REVERT JUMPDEST PUSH0 PUSH0 REVERT JUMPDEST PUSH0 PUSH0 REVERT JUMPDEST PUSH0 PUSH1 0x1F NOT PUSH1 0x1F DUP4 ADD AND SWAP1 POP SWAP2 SWAP1 POP JUMP JUMPDEST PUSH32 0x4E487B7100000000000000000000000000000000000000000000000000000000 PUSH0 MSTORE PUSH1 0x41 PUSH1 0x4 MSTORE PUSH1 0x24 PUSH0 REVERT JUMPDEST PUSH2 0xE5 DUP3 PUSH2 0x9F JUMP JUMPDEST DUP2 ADD DUP2 DUP2 LT PUSH8 0xFFFFFFFFFFFFFFFF DUP3 GT OR ISZERO PUSH2 0x104 JUMPI PUSH2 0x103 PUSH2 0xAF JUMP JUMPDEST JUMPDEST DUP1 PUSH1 0x40 MSTORE POP POP POP JUMP JUMPDEST PUSH0 PUSH2 0x116 PUSH2 0x86 JUMP JUMPDEST SWAP1 POP PUSH2 0x122 DUP3 DUP3 PUSH2 0xDC JUMP JUMPDEST SWAP2 SWAP1 POP JUMP JUMPDEST PUSH0 PUSH8 0xFFFFFFFFFFFFFFFF DUP3 GT ISZERO PUSH2 0x141 JUMPI PUSH2 0x140 PUSH2 0xAF JUMP JUMPDEST JUMPDEST PUSH2 0x14A DUP3 PUSH2 0x9F JUMP JUMPDEST SWAP1 POP PUSH1 0x20 DUP2 ADD SWAP1 POP SWAP2 SWAP1 POP JUMP JUMPDEST DUP3 DUP2 DUP4 MCOPY PUSH0 DUP4 DUP4 ADD MSTORE POP POP POP JUMP JUMPDEST PUSH0 PUSH2 0x177 PUSH2 0x172 DUP5 PUSH2 0x127 JUMP JUMPDEST PUSH2 0x10D JUMP JUMPDEST SWAP1 POP DUP3 DUP2 MSTORE PUSH1 0x20 DUP2 ADD DUP5 DUP5 DUP5 ADD GT ISZERO PUSH2 0x193 JUMPI PUSH2 0x192 PUSH2 0x9B JUMP JUMPDEST JUMPDEST PUSH2 0x19E DUP5 DUP3 DUP6 PUSH2 0x157 JUMP JUMPDEST POP SWAP4 SWAP3 POP POP POP JUMP JUMPDEST PUSH0 DUP3 PUSH1 0x1F DUP4 ADD SLT PUSH2 0x1BA JUMPI PUSH2 0x1B9 PUSH2 0x97 JUMP JUMPDEST JUMPDEST DUP2 MLOAD PUSH2 0x1CA DUP5 DUP3 PUSH1 0x20 DUP7 ADD PUSH2 0x165 JUMP JUMPDEST SWAP2 POP POP SWAP3 SWAP2 POP POP JUMP JUMPDEST PUSH0 PUSH1 0x20 DUP3 DUP5 SUB SLT ISZERO PUSH2 0x1E8 JUMPI PUSH2 0x1E7 PUSH2 0x8F JUMP JUMPDEST JUMPDEST PUSH0 DUP3 ADD MLOAD PUSH8 0xFFFFFFFFFFFFFFFF DUP2 GT ISZERO PUSH2 0x205 JUMPI PUSH2 0x204 PUSH2 0x93 JUMP JUMPDEST JUMPDEST PUSH2 0x211 DUP5 DUP3 DUP6 ADD PUSH2 0x1A6 JUMP JUMPDEST SWAP2 POP POP SWAP3 SWAP2 POP POP JUMP JUMPDEST PUSH0 DUP2 MLOAD SWAP1 POP SWAP2 SWAP1 POP JUMP JUMPDEST PUSH32 0x4E487B7100000000000000000000000000000000000000000000000000000000 PUSH0 MSTORE PUSH1 0x22 PUSH1 0x4 MSTORE PUSH1 0x24 PUSH0 REVERT JUMPDEST PUSH0 PUSH1 0x2 DUP3 DIV SWAP1 POP PUSH1 0x1 DUP3 AND DUP1 PUSH2 0x268 JUMPI PUSH1 0x7F DUP3 AND SWAP2 POP JUMPDEST PUSH1 0x20 DUP3 LT DUP2 SUB PUSH2 0x27B JUMPI PUSH2 0x27A PUSH2 0x224 JUMP JUMPDEST JUMPDEST POP SWAP2 SWAP1 POP JUMP JUMPDEST PUSH0 DUP2 SWAP1 POP DUP2 PUSH0 MSTORE PUSH1 0x20 PUSH0 KECCAK256 SWAP1 POP SWAP2 SWAP1 POP JUMP JUMPDEST PUSH0 PUSH1 0x20 PUSH1 0x1F DUP4 ADD DIV SWAP1 POP SWAP2 SWAP1 POP JUMP JUMPDEST PUSH0 DUP3 DUP3 SHL SWAP1 POP SWAP3 SWAP2 POP POP JUMP JUMPDEST PUSH0 PUSH1 0x8 DUP4 MUL PUSH2 0x2DD PUSH32 0xFFFFFFFFFFFFFFFFFFFFFFFFFFFFFFFFFFFFFFFFFFFFFFFFFFFFFFFFFFFFFFFF DUP3 PUSH2 0x2A2 JUMP JUMPDEST PUSH2 0x2E7 DUP7 DUP4 PUSH2 0x2A2 JUMP JUMPDEST SWAP6 POP DUP1 NOT DUP5 AND SWAP4 POP DUP1 DUP7 AND DUP5 OR SWAP3 POP POP POP SWAP4 SWAP3 POP POP POP JUMP JUMPDEST PUSH0 DUP2 SWAP1 POP SWAP2 SWAP1 POP JUMP JUMPDEST PUSH0 DUP2 SWAP1 POP SWAP2 SWAP1 POP JUMP JUMPDEST PUSH0 PUSH2 0x32B PUSH2 0x326 PUSH2 0x321 DUP5 PUSH2 0x2FF JUMP JUMPDEST PUSH2 0x308 JUMP JUMPDEST PUSH2 0x2FF JUMP JUMPDEST SWAP1 POP SWAP2 SWAP1 POP JUMP JUMPDEST PUSH0 DUP2 SWAP1 POP SWAP2 SWAP1 POP JUMP JUMPDEST PUSH2 0x344 DUP4 PUSH2 0x311 JUMP JUMPDEST PUSH2 0x358 PUSH2 0x350 DUP3 PUSH2 0x332 JUMP JUMPDEST DUP5 DUP5 SLOAD PUSH2 0x2AE JUMP JUMPDEST DUP3 SSTORE POP POP POP POP JUMP JUMPDEST PUSH0 PUSH0 SWAP1 POP SWAP1 JUMP JUMPDEST PUSH2 0x36F PUSH2 0x360 JUMP JUMPDEST PUSH2 0x37A DUP2 DUP5 DUP5 PUSH2 0x33B JUMP JUMPDEST POP POP POP JUMP JUMPDEST JUMPDEST DUP2 DUP2 LT ISZERO PUSH2 0x39D JUMPI PUSH2 0x392 PUSH0 DUP3 PUSH2 0x367 JUMP JUMPDEST PUSH1 0x1 DUP2 ADD SWAP1 POP PUSH2 0x380 JUMP JUMPDEST POP POP JUMP JUMPDEST PUSH1 0x1F DUP3 GT ISZERO PUSH2 0x3E2 JUMPI PUSH2 0x3B3 DUP2 PUSH2 0x281 JUMP JUMPDEST PUSH2 0x3BC DUP5 PUSH2 0x293 JUMP JUMPDEST DUP2 ADD PUSH1 0x20 DUP6 LT ISZERO PUSH2 0x3CB JUMPI DUP2 SWAP1 POP JUMPDEST PUSH2 0x3DF PUSH2 0x3D7 DUP6 PUSH2 0x293 JUMP JUMPDEST DUP4 ADD DUP3 PUSH2 0x37F JUMP JUMPDEST POP POP JUMPDEST POP POP POP JUMP JUMPDEST PUSH0 DUP3 DUP3 SHR SWAP1 POP SWAP3 SWAP2 POP POP JUMP JUMPDEST PUSH0 PUSH2 0x402 PUSH0 NOT DUP5 PUSH1 0x8 MUL PUSH2 0x3E7 JUMP JUMPDEST NOT DUP1 DUP4 AND SWAP2 POP POP SWAP3 SWAP2 POP POP JUMP JUMPDEST PUSH0 PUSH2 0x41A DUP4 DUP4 PUSH2 0x3F3 JUMP JUMPDEST SWAP2 POP DUP3 PUSH1 0x2 MUL DUP3 OR SWAP1 POP SWAP3 SWAP2 POP POP JUMP JUMPDEST PUSH2 0x433 DUP3 PUSH2 0x21A JUMP JUMPDEST PUSH8 0xFFFFFFFFFFFFFFFF DUP2 GT ISZERO PUSH2 0x44C JUMPI PUSH2 0x44B PUSH2 0xAF JUMP JUMPDEST JUMPDEST PUSH2 0x456 DUP3 SLOAD PUSH2 0x251 JUMP JUMPDEST PUSH2 0x461 DUP3 DUP3 DUP6 PUSH2 0x3A1 JUMP JUMPDEST PUSH0 PUSH1 0x20 SWAP1 POP PUSH1 0x1F DUP4 GT PUSH1 0x1 DUP2 EQ PUSH2 0x492 JUMPI PUSH0 DUP5 ISZERO PUSH2 0x480 JUMPI DUP3 DUP8 ADD MLOAD SWAP1 POP JUMPDEST PUSH2 0x48A DUP6 DUP3 PUSH2 0x40F JUMP JUMPDEST DUP7 SSTORE POP PUSH2 0x4F1 JUMP JUMPDEST PUSH1 0x1F NOT DUP5 AND PUSH2 0x4A0 DUP7 PUSH2 0x281 JUMP JUMPDEST PUSH0 JUMPDEST DUP3 DUP2 LT ISZERO PUSH2 0x4C7 JUMPI DUP5 DUP10 ADD MLOAD DUP3 SSTORE PUSH1 0x1 DUP3 ADD SWAP2 POP PUSH1 0x20 DUP6 ADD SWAP5 POP PUSH1 0x20 DUP2 ADD SWAP1 POP PUSH2 0x4A2 JUMP JUMPDEST DUP7 DUP4 LT ISZERO PUSH2 0x4E4 JUMPI DUP5 DUP10 ADD MLOAD PUSH2 0x4E0 PUSH1 0x1F DUP10 AND DUP3 PUSH2 0x3F3 JUMP JUMPDEST DUP4 SSTORE POP JUMPDEST PUSH1 0x1 PUSH1 0x2 DUP9 MUL ADD DUP9 SSTORE POP POP POP JUMPDEST POP POP POP POP POP POP JUMP JUMPDEST PUSH2 0xBC3 DUP1 PUSH2 0x506 PUSH0 CODECOPY PUSH0 RETURN INVALID PUSH1 0x80 PUSH1 0x40 MSTORE CALLVALUE DUP1 ISZERO PUSH2 0xF JUMPI PUSH0 PUSH0 REVERT JUMPDEST POP PUSH1 0x4 CALLDATASIZE LT PUSH2 0x7B JUMPI PUSH0 CALLDATALOAD PUSH1 0xE0 SHR DUP1 PUSH4 0x753EC103 GT PUSH2 0x59 JUMPI DUP1 PUSH4 0x753EC103 EQ PUSH2 0xE9 JUMPI DUP1 PUSH4 0xB5B47F42 EQ PUSH2 0x107 JUMPI DUP1 PUSH4 0xF3FA4226 EQ PUSH2 0x125 JUMPI DUP1 PUSH4 0xFB286C65 EQ PUSH2 0x141 JUMPI PUSH2 0x7B JUMP JUMPDEST DUP1 PUSH4 0x9EEF43E EQ PUSH2 0x7F JUMPI DUP1 PUSH4 0x46C96AAC EQ PUSH2 0xAF JUMPI DUP1 PUSH4 0x4B9F5C98 EQ PUSH2 0xCD JUMPI JUMPDEST PUSH0 PUSH0 REVERT JUMPDEST PUSH2 0x99 PUSH1 0x4 DUP1 CALLDATASIZE SUB DUP2 ADD SWAP1 PUSH2 0x94 SWAP2 SWAP1 PUSH2 0x46E JUMP JUMPDEST PUSH2 0x15F JUMP JUMPDEST PUSH1 0x40 MLOAD PUSH2 0xA6 SWAP2 SWAP1 PUSH2 0x4B3 JUMP JUMPDEST PUSH1 0x40 MLOAD DUP1 SWAP2 SUB SWAP1 RETURN JUMPDEST PUSH2 0xB7 PUSH2 0x17C JUMP JUMPDEST PUSH1 0x40 MLOAD PUSH2 0xC4 SWAP2 SWAP1 PUSH2 0x4DB JUMP JUMPDEST PUSH1 0x40 MLOAD DUP1 SWAP2 SUB SWAP1 RETURN JUMPDEST PUSH2 0xE7 PUSH1 0x4 DUP1 CALLDATASIZE SUB DUP2 ADD SWAP1 PUSH2 0xE2 SWAP2 SWAP1 PUSH2 0x51E JUMP JUMPDEST PUSH2 0x1A1 JUMP JUMPDEST STOP JUMPDEST PUSH2 0xF1 PUSH2 0x2BD JUMP JUMPDEST PUSH1 0x40 MLOAD PUSH2 0xFE SWAP2 SWAP1 PUSH2 0x5B9 JUMP JUMPDEST PUSH1 0x40 MLOAD DUP1 SWAP2 SUB SWAP1 RETURN JUMPDEST PUSH2 0x10F PUSH2 0x348 JUMP JUMPDEST PUSH1 0x40 MLOAD PUSH2 0x11C SWAP2 SWAP1 PUSH2 0x5F1 JUMP JUMPDEST PUSH1 0x40 MLOAD DUP1 SWAP2 SUB SWAP1 RETURN JUMPDEST PUSH2 0x13F PUSH1 0x4 DUP1 CALLDATASIZE SUB DUP2 ADD SWAP1 PUSH2 0x13A SWAP2 SWAP1 PUSH2 0x736 JUMP JUMPDEST PUSH2 0x34E JUMP JUMPDEST STOP JUMPDEST PUSH2 0x149 PUSH2 0x3FD JUMP JUMPDEST PUSH1 0x40 MLOAD PUSH2 0x156 SWAP2 SWAP1 PUSH2 0x5F1 JUMP JUMPDEST PUSH1 0x40 MLOAD DUP1 SWAP2 SUB SWAP1 RETURN JUMPDEST PUSH1 0x4 PUSH1 0x20 MSTORE DUP1 PUSH0 MSTORE PUSH1 0x40 PUSH0 KECCAK256 PUSH0 SWAP2 POP SLOAD SWAP1 PUSH2 0x100 EXP SWAP1 DIV PUSH1 0xFF AND DUP2 JUMP JUMPDEST PUSH1 0x1 PUSH0 SWAP1 SLOAD SWAP1 PUSH2 0x100 EXP SWAP1 DIV PUSH20 0xFFFFFFFFFFFFFFFFFFFFFFFFFFFFFFFFFFFFFFFF AND DUP2 JUMP JUMPDEST PUSH1 0x4 PUSH0 CALLER PUSH20 0xFFFFFFFFFFFFFFFFFFFFFFFFFFFFFFFFFFFFFFFF AND PUSH20 0xFFFFFFFFFFFFFFFFFFFFFFFFFFFFFFFFFFFFFFFF AND DUP2 MSTORE PUSH1 0x20 ADD SWAP1 DUP2 MSTORE PUSH1 0x20 ADD PUSH0 KECCAK256 PUSH0 SWAP1 SLOAD SWAP1 PUSH2 0x100 EXP SWAP1 DIV PUSH1 0xFF AND ISZERO PUSH2 0x22B JUMPI PUSH1 0x40 MLOAD PUSH32 0x8C379A000000000000000000000000000000000000000000000000000000000 DUP2 MSTORE PUSH1 0x4 ADD PUSH2 0x222 SWAP1 PUSH2 0x7C7 JUMP JUMPDEST PUSH1 0x40 MLOAD DUP1 SWAP2 SUB SWAP1 REVERT JUMPDEST PUSH1 0x1 PUSH1 0x4 PUSH0 CALLER PUSH20 0xFFFFFFFFFFFFFFFFFFFFFFFFFFFFFFFFFFFFFFFF AND PUSH20 0xFFFFFFFFFFFFFFFFFFFFFFFFFFFFFFFFFFFFFFFF AND DUP2 MSTORE PUSH1 0x20 ADD SWAP1 DUP2 MSTORE PUSH1 0x20 ADD PUSH0 KECCAK256 PUSH0 PUSH2 0x100 EXP DUP2 SLOAD DUP2 PUSH1 0xFF MUL NOT AND SWAP1 DUP4 ISZERO ISZERO MUL OR SWAP1 SSTORE POP DUP1 ISZERO PUSH2 0x2A2 JUMPI PUSH1 0x2 PUSH0 DUP2 SLOAD DUP1 SWAP3 SWAP2 SWAP1 PUSH2 0x298 SWAP1 PUSH2 0x812 JUMP JUMPDEST SWAP2 SWAP1 POP SSTORE POP PUSH2 0x2BA JUMP JUMPDEST PUSH1 0x3 PUSH0 DUP2 SLOAD DUP1 SWAP3 SWAP2 SWAP1 PUSH2 0x2B4 SWAP1 PUSH2 0x812 JUMP JUMPDEST SWAP2 SWAP1 POP SSTORE POP JUMPDEST POP JUMP JUMPDEST PUSH0 DUP1 SLOAD PUSH2 0x2C9 SWAP1 PUSH2 0x886 JUMP JUMPDEST DUP1 PUSH1 0x1F ADD PUSH1 0x20 DUP1 SWAP2 DIV MUL PUSH1 0x20 ADD PUSH1 0x40 MLOAD SWAP1 DUP2 ADD PUSH1 0x40 MSTORE DUP1 SWAP3 SWAP2 SWAP1 DUP2 DUP2 MSTORE PUSH1 0x20 ADD DUP3 DUP1 SLOAD PUSH2 0x2F5 SWAP1 PUSH2 0x886 JUMP JUMPDEST DUP1 ISZERO PUSH2 0x340 JUMPI DUP1 PUSH1 0x1F LT PUSH2 0x317 JUMPI PUSH2 0x100 DUP1 DUP4 SLOAD DIV MUL DUP4 MSTORE SWAP2 PUSH1 0x20 ADD SWAP2 PUSH2 0x340 JUMP JUMPDEST DUP3 ADD SWAP2 SWAP1 PUSH0 MSTORE PUSH1 0x20 PUSH0 KECCAK256 SWAP1 JUMPDEST DUP2 SLOAD DUP2 MSTORE SWAP1 PUSH1 0x1 ADD SWAP1 PUSH1 0x20 ADD DUP1 DUP4 GT PUSH2 0x323 JUMPI DUP3 SWAP1 SUB PUSH1 0x1F AND DUP3 ADD SWAP2 JUMPDEST POP POP POP POP POP DUP2 JUMP JUMPDEST PUSH1 0x3 SLOAD DUP2 JUMP JUMPDEST PUSH1 0x1 PUSH0 SWAP1 SLOAD SWAP1 PUSH2 0x100 EXP SWAP1 DIV PUSH20 0xFFFFFFFFFFFFFFFFFFFFFFFFFFFFFFFFFFFFFFFF AND PUSH20 0xFFFFFFFFFFFFFFFFFFFFFFFFFFFFFFFFFFFFFFFF AND CALLER PUSH20 0xFFFFFFFFFFFFFFFFFFFFFFFFFFFFFFFFFFFFFFFF AND EQ PUSH2 0x3DD JUMPI PUSH1 0x40 MLOAD PUSH32 0x8C379A000000000000000000000000000000000000000000000000000000000 DUP2 MSTORE PUSH1 0x4 ADD PUSH2 0x3D4 SWAP1 PUSH2 0x900 JUMP JUMPDEST PUSH1 0x40 MLOAD DUP1 SWAP2 SUB SWAP1 REVERT JUMPDEST DUP1 PUSH0 SWAP1 DUP2 PUSH2 0x3EB SWAP2 SWAP1 PUSH2 0xABE JUMP JUMPDEST POP PUSH0 PUSH1 0x2 DUP2 SWAP1 SSTORE POP PUSH0 PUSH1 0x3 DUP2 SWAP1 SSTORE POP POP JUMP JUMPDEST PUSH1 0x2 SLOAD DUP2 JUMP JUMPDEST PUSH0 PUSH1 0x40 MLOAD SWAP1 POP SWAP1 JUMP JUMPDEST PUSH0 PUSH0 REVERT JUMPDEST PUSH0 PUSH0 REVERT JUMPDEST PUSH0 PUSH20 0xFFFFFFFFFFFFFFFFFFFFFFFFFFFFFFFFFFFFFFFF DUP3 AND SWAP1 POP SWAP2 SWAP1 POP JUMP JUMPDEST PUSH0 PUSH2 0x43D DUP3 PUSH2 0x414 JUMP JUMPDEST SWAP1 POP SWAP2 SWAP1 POP JUMP JUMPDEST PUSH2 0x44D DUP2 PUSH2 0x433 JUMP JUMPDEST DUP2 EQ PUSH2 0x457 JUMPI PUSH0 PUSH0 REVERT JUMPDEST POP JUMP JUMPDEST PUSH0 DUP2 CALLDATALOAD SWAP1 POP PUSH2 0x468 DUP2 PUSH2 0x444 JUMP JUMPDEST SWAP3 SWAP2 POP POP JUMP JUMPDEST PUSH0 PUSH1 0x20 DUP3 DUP5 SUB SLT ISZERO PUSH2 0x483 JUMPI PUSH2 0x482 PUSH2 0x40C JUMP JUMPDEST JUMPDEST PUSH0 PUSH2 0x490 DUP5 DUP3 DUP6 ADD PUSH2 0x45A JUMP JUMPDEST SWAP2 POP POP SWAP3 SWAP2 POP POP JUMP JUMPDEST PUSH0 DUP2 ISZERO ISZERO SWAP1 POP SWAP2 SWAP1 POP JUMP JUMPDEST PUSH2 0x4AD DUP2 PUSH2 0x499 JUMP JUMPDEST DUP3 MSTORE POP POP JUMP JUMPDEST PUSH0 PUSH1 0x20 DUP3 ADD SWAP1 POP PUSH2 0x4C6 PUSH0 DUP4 ADD DUP5 PUSH2 0x4A4 JUMP JUMPDEST SWAP3 SWAP2 POP POP JUMP JUMPDEST PUSH2 0x4D5 DUP2 PUSH2 0x433 JUMP JUMPDEST DUP3 MSTORE POP POP JUMP JUMPDEST PUSH0 PUSH1 0x20 DUP3 ADD SWAP1 POP PUSH2 0x4EE PUSH0 DUP4 ADD DUP5 PUSH2 0x4CC JUMP JUMPDEST SWAP3 SWAP2 POP POP JUMP JUMPDEST PUSH2 0x4FD DUP2 PUSH2 0x499 JUMP JUMPDEST DUP2 EQ PUSH2 0x507 JUMPI PUSH0 PUSH0 REVERT JUMPDEST POP JUMP JUMPDEST PUSH0 DUP2 CALLDATALOAD SWAP1 POP PUSH2 0x518 DUP2 PUSH2 0x4F4 JUMP JUMPDEST SWAP3 SWAP2 POP POP JUMP JUMPDEST PUSH0 PUSH1 0x20 DUP3 DUP5 SUB SLT ISZERO PUSH2 0x533 JUMPI PUSH2 0x532 PUSH2 0x40C JUMP JUMPDEST JUMPDEST PUSH0 PUSH2 0x540 DUP5 DUP3 DUP6 ADD PUSH2 0x50A JUMP JUMPDEST SWAP2 POP POP SWAP3 SWAP2 POP POP JUMP JUMPDEST PUSH0 DUP2 MLOAD SWAP1 POP SWAP2 SWAP1 POP JUMP JUMPDEST PUSH0 DUP3 DUP3 MSTORE PUSH1 0x20 DUP3 ADD SWAP1 POP SWAP3 SWAP2 POP POP JUMP JUMPDEST DUP3 DUP2 DUP4 MCOPY PUSH0 DUP4 DUP4 ADD MSTORE POP POP POP JUMP JUMPDEST PUSH0 PUSH1 0x1F NOT PUSH1 0x1F DUP4 ADD AND SWAP1 POP SWAP2 SWAP1 POP JUMP JUMPDEST PUSH0 PUSH2 0x58B DUP3 PUSH2 0x549 JUMP JUMPDEST PUSH2 0x595 DUP2 DUP6 PUSH2 0x553 JUMP JUMPDEST SWAP4 POP PUSH2 0x5A5 DUP2 DUP6 PUSH1 0x20 DUP7 ADD PUSH2 0x563 JUMP JUMPDEST PUSH2 0x5AE DUP2 PUSH2 0x571 JUMP JUMPDEST DUP5 ADD SWAP2 POP POP SWAP3 SWAP2 POP POP JUMP JUMPDEST PUSH0 PUSH1 0x20 DUP3 ADD SWAP1 POP DUP2 DUP2 SUB PUSH0 DUP4 ADD MSTORE PUSH2 0x5D1 DUP2 DUP5 PUSH2 0x581 JUMP JUMPDEST SWAP1 POP SWAP3 SWAP2 POP POP JUMP JUMPDEST PUSH0 DUP2 SWAP1 POP SWAP2 SWAP1 POP JUMP JUMPDEST PUSH2 0x5EB DUP2 PUSH2 0x5D9 JUMP JUMPDEST DUP3 MSTORE POP POP JUMP JUMPDEST PUSH0 PUSH1 0x20 DUP3 ADD SWAP1 POP PUSH2 0x604 PUSH0 DUP4 ADD DUP5 PUSH2 0x5E2 JUMP JUMPDEST SWAP3 SWAP2 POP POP JUMP JUMPDEST PUSH0 PUSH0 REVERT JUMPDEST PUSH0 PUSH0 REVERT JUMPDEST PUSH32 0x4E487B7100000000000000000000000000000000000000000000000000000000 PUSH0 MSTORE PUSH1 0x41 PUSH1 0x4 MSTORE PUSH1 0x24 PUSH0 REVERT JUMPDEST PUSH2 0x648 DUP3 PUSH2 0x571 JUMP JUMPDEST DUP2 ADD DUP2 DUP2 LT PUSH8 0xFFFFFFFFFFFFFFFF DUP3 GT OR ISZERO PUSH2 0x667 JUMPI PUSH2 0x666 PUSH2 0x612 JUMP JUMPDEST JUMPDEST DUP1 PUSH1 0x40 MSTORE POP POP POP JUMP JUMPDEST PUSH0 PUSH2 0x679 PUSH2 0x403 JUMP JUMPDEST SWAP1 POP PUSH2 0x685 DUP3 DUP3 PUSH2 0x63F JUMP JUMPDEST SWAP2 SWAP1 POP JUMP JUMPDEST PUSH0 PUSH8 0xFFFFFFFFFFFFFFFF DUP3 GT ISZERO PUSH2 0x6A4 JUMPI PUSH2 0x6A3 PUSH2 0x612 JUMP JUMPDEST JUMPDEST PUSH2 0x6AD DUP3 PUSH2 0x571 JUMP JUMPDEST SWAP1 POP PUSH1 0x20 DUP2 ADD SWAP1 POP SWAP2 SWAP1 POP JUMP JUMPDEST DUP3 DUP2 DUP4 CALLDATACOPY PUSH0 DUP4 DUP4 ADD MSTORE POP POP POP JUMP JUMPDEST PUSH0 PUSH2 0x6DA PUSH2 0x6D5 DUP5 PUSH2 0x68A JUMP JUMPDEST PUSH2 0x670 JUMP JUMPDEST SWAP1 POP DUP3 DUP2 MSTORE PUSH1 0x20 DUP2 ADD DUP5 DUP5 DUP5 ADD GT ISZERO PUSH2 0x6F6 JUMPI PUSH2 0x6F5 PUSH2 0x60E JUMP JUMPDEST JUMPDEST PUSH2 0x701 DUP5 DUP3 DUP6 PUSH2 0x6BA JUMP JUMPDEST POP SWAP4 SWAP3 POP POP POP JUMP JUMPDEST PUSH0 DUP3 PUSH1 0x1F DUP4 ADD SLT PUSH2 0x71D JUMPI PUSH2 0x71C PUSH2 0x60A JUMP JUMPDEST JUMPDEST DUP2 CALLDATALOAD PUSH2 0x72D DUP5 DUP3 PUSH1 0x20 DUP7 ADD PUSH2 0x6C8 JUMP JUMPDEST SWAP2 POP POP SWAP3 SWAP2 POP POP JUMP JUMPDEST PUSH0 PUSH1 0x20 DUP3 DUP5 SUB SLT ISZERO PUSH2 0x74B JUMPI PUSH2 0x74A PUSH2 0x40C JUMP JUMPDEST JUMPDEST PUSH0 DUP3 ADD CALLDATALOAD PUSH8 0xFFFFFFFFFFFFFFFF DUP2 GT ISZERO PUSH2 0x768 JUMPI PUSH2 0x767 PUSH2 0x410 JUMP JUMPDEST JUMPDEST PUSH2 0x774 DUP5 DUP3 DUP6 ADD PUSH2 0x709 JUMP JUMPDEST SWAP2 POP POP SWAP3 SWAP2 POP POP JUMP JUMPDEST PUSH32 0x596F75206861766520616C726561647920766F74656421000000000000000000 PUSH0 DUP3 ADD MSTORE POP JUMP JUMPDEST PUSH0 PUSH2 0x7B1 PUSH1 0x17 DUP4 PUSH2 0x553 JUMP JUMPDEST SWAP2 POP PUSH2 0x7BC DUP3 PUSH2 0x77D JUMP JUMPDEST PUSH1 0x20 DUP3 ADD SWAP1 POP SWAP2 SWAP1 POP JUMP JUMPDEST PUSH0 PUSH1 0x20 DUP3 ADD SWAP1 POP DUP2 DUP2 SUB PUSH0 DUP4 ADD MSTORE PUSH2 0x7DE DUP2 PUSH2 0x7A5 JUMP JUMPDEST SWAP1 POP SWAP2 SWAP1 POP JUMP JUMPDEST PUSH32 0x4E487B7100000000000000000000000000000000000000000000000000000000 PUSH0 MSTORE PUSH1 0x11 PUSH1 0x4 MSTORE PUSH1 0x24 PUSH0 REVERT JUMPDEST PUSH0 PUSH2 0x81C DUP3 PUSH2 0x5D9 JUMP JUMPDEST SWAP2 POP PUSH32 0xFFFFFFFFFFFFFFFFFFFFFFFFFFFFFFFFFFFFFFFFFFFFFFFFFFFFFFFFFFFFFFFF DUP3 SUB PUSH2 0x84E JUMPI PUSH2 0x84D PUSH2 0x7E5 JUMP JUMPDEST JUMPDEST PUSH1 0x1 DUP3 ADD SWAP1 POP SWAP2 SWAP1 POP JUMP JUMPDEST PUSH32 0x4E487B7100000000000000000000000000000000000000000000000000000000 PUSH0 MSTORE PUSH1 0x22 PUSH1 0x4 MSTORE PUSH1 0x24 PUSH0 REVERT JUMPDEST PUSH0 PUSH1 0x2 DUP3 DIV SWAP1 POP PUSH1 0x1 DUP3 AND DUP1 PUSH2 0x89D JUMPI PUSH1 0x7F DUP3 AND SWAP2 POP JUMPDEST PUSH1 0x20 DUP3 LT DUP2 SUB PUSH2 0x8B0 JUMPI PUSH2 0x8AF PUSH2 0x859 JUMP JUMPDEST JUMPDEST POP SWAP2 SWAP1 POP JUMP JUMPDEST PUSH32 0x4F6E6C79206F776E65722063616E207265736574000000000000000000000000 PUSH0 DUP3 ADD MSTORE POP JUMP JUMPDEST PUSH0 PUSH2 0x8EA PUSH1 0x14 DUP4 PUSH2 0x553 JUMP JUMPDEST SWAP2 POP PUSH2 0x8F5 DUP3 PUSH2 0x8B6 JUMP JUMPDEST PUSH1 0x20 DUP3 ADD SWAP1 POP SWAP2 SWAP1 POP JUMP JUMPDEST PUSH0 PUSH1 0x20 DUP3 ADD SWAP1 POP DUP2 DUP2 SUB PUSH0 DUP4 ADD MSTORE PUSH2 0x917 DUP2 PUSH2 0x8DE JUMP JUMPDEST SWAP1 POP SWAP2 SWAP1 POP JUMP JUMPDEST PUSH0 DUP2 SWAP1 POP DUP2 PUSH0 MSTORE PUSH1 0x20 PUSH0 KECCAK256 SWAP1 POP SWAP2 SWAP1 POP JUMP JUMPDEST PUSH0 PUSH1 0x20 PUSH1 0x1F DUP4 ADD DIV SWAP1 POP SWAP2 SWAP1 POP JUMP JUMPDEST PUSH0 DUP3 DUP3 SHL SWAP1 POP SWAP3 SWAP2 POP POP JUMP JUMPDEST PUSH0 PUSH1 0x8 DUP4 MUL PUSH2 0x97A PUSH32 0xFFFFFFFFFFFFFFFFFFFFFFFFFFFFFFFFFFFFFFFFFFFFFFFFFFFFFFFFFFFFFFFF DUP3 PUSH2 0x93F JUMP JUMPDEST PUSH2 0x984 DUP7 DUP4 PUSH2 0x93F JUMP JUMPDEST SWAP6 POP DUP1 NOT DUP5 AND SWAP4 POP DUP1 DUP7 AND DUP5 OR SWAP3 POP POP POP SWAP4 SWAP3 POP POP POP JUMP JUMPDEST PUSH0 DUP2 SWAP1 POP SWAP2 SWAP1 POP JUMP JUMPDEST PUSH0 PUSH2 0x9BF PUSH2 0x9BA PUSH2 0x9B5 DUP5 PUSH2 0x5D9 JUMP JUMPDEST PUSH2 0x99C JUMP JUMPDEST PUSH2 0x5D9 JUMP JUMPDEST SWAP1 POP SWAP2 SWAP1 POP JUMP JUMPDEST PUSH0 DUP2 SWAP1 POP SWAP2 SWAP1 POP JUMP JUMPDEST PUSH2 0x9D8 DUP4 PUSH2 0x9A5 JUMP JUMPDEST PUSH2 0x9EC PUSH2 0x9E4 DUP3 PUSH2 0x9C6 JUMP JUMPDEST DUP5 DUP5 SLOAD PUSH2 0x94B JUMP JUMPDEST DUP3 SSTORE POP POP POP POP JUMP JUMPDEST PUSH0 PUSH0 SWAP1 POP SWAP1 JUMP JUMPDEST PUSH2 0xA03 PUSH2 0x9F4 JUMP JUMPDEST PUSH2 0xA0E DUP2 DUP5 DUP5 PUSH2 0x9CF JUMP JUMPDEST POP POP POP JUMP JUMPDEST JUMPDEST DUP2 DUP2 LT ISZERO PUSH2 0xA31 JUMPI PUSH2 0xA26 PUSH0 DUP3 PUSH2 0x9FB JUMP JUMPDEST PUSH1 0x1 DUP2 ADD SWAP1 POP PUSH2 0xA14 JUMP JUMPDEST POP POP JUMP JUMPDEST PUSH1 0x1F DUP3 GT ISZERO PUSH2 0xA76 JUMPI PUSH2 0xA47 DUP2 PUSH2 0x91E JUMP JUMPDEST PUSH2 0xA50 DUP5 PUSH2 0x930 JUMP JUMPDEST DUP2 ADD PUSH1 0x20 DUP6 LT ISZERO PUSH2 0xA5F JUMPI DUP2 SWAP1 POP JUMPDEST PUSH2 0xA73 PUSH2 0xA6B DUP6 PUSH2 0x930 JUMP JUMPDEST DUP4 ADD DUP3 PUSH2 0xA13 JUMP JUMPDEST POP POP JUMPDEST POP POP POP JUMP JUMPDEST PUSH0 DUP3 DUP3 SHR SWAP1 POP SWAP3 SWAP2 POP POP JUMP JUMPDEST PUSH0 PUSH2 0xA96 PUSH0 NOT DUP5 PUSH1 0x8 MUL PUSH2 0xA7B JUMP JUMPDEST NOT DUP1 DUP4 AND SWAP2 POP POP SWAP3 SWAP2 POP POP JUMP JUMPDEST PUSH0 PUSH2 0xAAE DUP4 DUP4 PUSH2 0xA87 JUMP JUMPDEST SWAP2 POP DUP3 PUSH1 0x2 MUL DUP3 OR SWAP1 POP SWAP3 SWAP2 POP POP JUMP JUMPDEST PUSH2 0xAC7 DUP3 PUSH2 0x549 JUMP JUMPDEST PUSH8 0xFFFFFFFFFFFFFFFF DUP2 GT ISZERO PUSH2 0xAE0 JUMPI PUSH2 0xADF PUSH2 0x612 JUMP JUMPDEST JUMPDEST PUSH2 0xAEA DUP3 SLOAD PUSH2 0x886 JUMP JUMPDEST PUSH2 0xAF5 DUP3 DUP3 DUP6 PUSH2 0xA35 JUMP JUMPDEST PUSH0 PUSH1 0x20 SWAP1 POP PUSH1 0x1F DUP4 GT PUSH1 0x1 DUP2 EQ PUSH2 0xB26 JUMPI PUSH0 DUP5 ISZERO PUSH2 0xB14 JUMPI DUP3 DUP8 ADD MLOAD SWAP1 POP JUMPDEST PUSH2 0xB1E DUP6 DUP3 PUSH2 0xAA3 JUMP JUMPDEST DUP7 SSTORE POP PUSH2 0xB85 JUMP JUMPDEST PUSH1 0x1F NOT DUP5 AND PUSH2 0xB34 DUP7 PUSH2 0x91E JUMP JUMPDEST PUSH0 JUMPDEST DUP3 DUP2 LT ISZERO PUSH2 0xB5B JUMPI DUP5 DUP10 ADD MLOAD DUP3 SSTORE PUSH1 0x1 DUP3 ADD SWAP2 POP PUSH1 0x20 DUP6 ADD SWAP5 POP PUSH1 0x20 DUP2 ADD SWAP1 POP PUSH2 0xB36 JUMP JUMPDEST DUP7 DUP4 LT ISZERO PUSH2 0xB78 JUMPI DUP5 DUP10 ADD MLOAD PUSH2 0xB74 PUSH1 0x1F DUP10 AND DUP3 PUSH2 0xA87 JUMP JUMPDEST DUP4 SSTORE POP JUMPDEST PUSH1 0x1 PUSH1 0x2 DUP9 MUL ADD DUP9 SSTORE POP POP POP JUMPDEST POP POP POP POP POP POP JUMP INVALID LOG2 PUSH5 0x6970667358 0x22 SLT KECCAK256 0xF7 MCOPY EXTCALL DUP5 POP INVALID SMOD 0xB3 PC PUSH20 0x21720C61612D19722375369E4ECCD978F98386F PUSH27 0x7C64736F6C634300081E0033000000000000000000000000000000 "
				},
				"gasEstimates": {
					"creation": {
						"codeDepositCost": "602200",
						"executionCost": "infinite",
						"totalCost": "infinite"
					},
					"external": {
						"hasVoted(address)": "2834",
						"noVotes()": "2447",
						"proposal()": "infinite",
						"resetVotes(string)": "infinite",
						"vote(bool)": "51432",
						"voter()": "2531",
						"yesVotes()": "2491"
					}
				},
				"methodIdentifiers": {
					"hasVoted(address)": "09eef43e",
					"noVotes()": "b5b47f42",
					"proposal()": "753ec103",
					"resetVotes(string)": "f3fa4226",
					"vote(bool)": "4b9f5c98",
					"voter()": "46c96aac",
					"yesVotes()": "fb286c65"
				}
			},
			"storageLayout": {
				"storage": [
					{
						"astId": 3,
						"contract": "contracts/_dao_vote.sol:Voting",
						"label": "proposal",
						"offset": 0,
						"slot": "0",
						"type": "t_string_storage"
					},
					{
						"astId": 5,
						"contract": "contracts/_dao_vote.sol:Voting",
						"label": "voter",
						"offset": 0,
						"slot": "1",
						"type": "t_address"
					},
					{
						"astId": 7,
						"contract": "contracts/_dao_vote.sol:Voting",
						"label": "yesVotes",
						"offset": 0,
						"slot": "2",
						"type": "t_uint256"
					},
					{
						"astId": 9,
						"contract": "contracts/_dao_vote.sol:Voting",
						"label": "noVotes",
						"offset": 0,
						"slot": "3",
						"type": "t_uint256"
					},
					{
						"astId": 13,
						"contract": "contracts/_dao_vote.sol:Voting",
						"label": "hasVoted",
						"offset": 0,
						"slot": "4",
						"type": "t_mapping(t_address,t_bool)"
					}
				],
				"types": {
					"t_address": {
						"encoding": "inplace",
						"label": "address",
						"numberOfBytes": "20"
					},
					"t_bool": {
						"encoding": "inplace",
						"label": "bool",
						"numberOfBytes": "1"
					},
					"t_mapping(t_address,t_bool)": {
						"encoding": "mapping",
						"key": "t_address",
						"label": "mapping(address => bool)",
						"numberOfBytes": "32",
						"value": "t_bool"
					},
					"t_string_storage": {
						"encoding": "bytes",
						"label": "string",
						"numberOfBytes": "32"
					},
					"t_uint256": {
						"encoding": "inplace",
						"label": "uint256",
						"numberOfBytes": "32"
					}
				}
			},
			"userdoc": {
				"kind": "user",
				"methods": {},
				"version": 1
			}
		}
	}
}