{
	"contracts/_profile.sol": {
		"Profile": {
			"abi": [
				{
					"inputs": [
						{
							"internalType": "string",
							"name": "_name",
							"type": "string"
						},
						{
							"internalType": "uint256",
							"name": "_age",
							"type": "uint256"
						}
					],
					"stateMutability": "nonpayable",
					"type": "constructor"
				},
				{
					"inputs": [],
					"name": "age",
					"outputs": [
						{
							"internalType": "uint256",
							"name": "",
							"type": "uint256"
						}
					],
					"stateMutability": "view",
					"type": "function"
				},
				{
					"inputs": [],
					"name": "getProfile",
					"outputs": [
						{
							"internalType": "string",
							"name": "",
							"type": "string"
						},
						{
							"internalType": "uint256",
							"name": "",
							"type": "uint256"
						}
					],
					"stateMutability": "view",
					"type": "function"
				},
				{
					"inputs": [],
					"name": "name",
					"outputs": [
						{
							"internalType": "string",
							"name": "",
							"type": "string"
						}
					],
					"stateMutability": "view",
					"type": "function"
				},
				{
					"inputs": [
						{
							"internalType": "string",
							"name": "_name",
							"type": "string"
						},
						{
							"internalType": "uint256",
							"name": "_age",
							"type": "uint256"
						}
					],
					"name": "updateProfile",
					"outputs": [],
					"stateMutability": "nonpayable",
					"type": "function"
				}
			],
			"devdoc": {
				"kind": "dev",
				"methods": {},
				"version": 1
			},
			"evm": {
				"assembly": "    /* \"contracts/_profile.sol\":57:443  contract Profile {... */\n  mstore(0x40, 0x80)\n    /* \"contracts/_profile.sol\":126:218  constructor(string memory _name, uint _age){... */\n  callvalue\n  dup1\n  iszero\n  tag_1\n  jumpi\n  revert(0x00, 0x00)\ntag_1:\n  pop\n  mload(0x40)\n  sub(codesize, bytecodeSize)\n  dup1\n  bytecodeSize\n  dup4\n  codecopy\n  dup2\n  dup2\n  add\n  0x40\n  mstore\n  dup2\n  add\n  swap1\n  tag_2\n  swap2\n  swap1\n  tag_3\n  jump\t// in\ntag_2:\n    /* \"contracts/_profile.sol\":186:191  _name */\n  dup2\n    /* \"contracts/_profile.sol\":179:183  name */\n  0x00\n    /* \"contracts/_profile.sol\":179:191  name = _name */\n  swap1\n  dup2\n  tag_6\n  swap2\n  swap1\n  tag_7\n  jump\t// in\ntag_6:\n  pop\n    /* \"contracts/_profile.sol\":207:211  _age */\n  dup1\n    /* \"contracts/_profile.sol\":201:204  age */\n  0x01\n    /* \"contracts/_profile.sol\":201:211  age = _age */\n  dup2\n  swap1\n  sstore\n  pop\n    /* \"contracts/_profile.sol\":126:218  constructor(string memory _name, uint _age){... */\n  pop\n  pop\n    /* \"contracts/_profile.sol\":57:443  contract Profile {... */\n  jump(tag_8)\n    /* \"#utility.yul\":7:82   */\ntag_9:\n    /* \"#utility.yul\":40:46   */\n  0x00\n    /* \"#utility.yul\":73:75   */\n  0x40\n    /* \"#utility.yul\":67:76   */\n  mload\n    /* \"#utility.yul\":57:76   */\n  swap1\n  pop\n    /* \"#utility.yul\":7:82   */\n  swap1\n  jump\t// out\n    /* \"#utility.yul\":88:205   */\ntag_10:\n    /* \"#utility.yul\":197:198   */\n  0x00\n    /* \"#utility.yul\":194:195   */\n  0x00\n    /* \"#utility.yul\":187:199   */\n  revert\n    /* \"#utility.yul\":211:328   */\ntag_11:\n    /* \"#utility.yul\":320:321   */\n  0x00\n    /* \"#utility.yul\":317:318   */\n  0x00\n    /* \"#utility.yul\":310:322   */\n  revert\n    /* \"#utility.yul\":334:451   */\ntag_12:\n    /* \"#utility.yul\":443:444   */\n  0x00\n    /* \"#utility.yul\":440:441   */\n  0x00\n    /* \"#utility.yul\":433:445   */\n  revert\n    /* \"#utility.yul\":457:574   */\ntag_13:\n    /* \"#utility.yul\":566:567   */\n  0x00\n    /* \"#utility.yul\":563:564   */\n  0x00\n    /* \"#utility.yul\":556:568   */\n  revert\n    /* \"#utility.yul\":580:682   */\ntag_14:\n    /* \"#utility.yul\":621:627   */\n  0x00\n    /* \"#utility.yul\":672:674   */\n  0x1f\n    /* \"#utility.yul\":668:675   */\n  not\n    /* \"#utility.yul\":663:665   */\n  0x1f\n    /* \"#utility.yul\":656:661   */\n  dup4\n    /* \"#utility.yul\":652:666   */\n  add\n    /* \"#utility.yul\":648:676   */\n  and\n    /* \"#utility.yul\":638:676   */\n  swap1\n  pop\n    /* \"#utility.yul\":580:682   */\n  swap2\n  swap1\n  pop\n  jump\t// out\n    /* \"#utility.yul\":688:868   */\ntag_15:\n    /* \"#utility.yul\":736:813   */\n  0x4e487b7100000000000000000000000000000000000000000000000000000000\n    /* \"#utility.yul\":733:734   */\n  0x00\n    /* \"#utility.yul\":726:814   */\n  mstore\n    /* \"#utility.yul\":833:837   */\n  0x41\n    /* \"#utility.yul\":830:831   */\n  0x04\n    /* \"#utility.yul\":823:838   */\n  mstore\n    /* \"#utility.yul\":857:861   */\n  0x24\n    /* \"#utility.yul\":854:855   */\n  0x00\n    /* \"#utility.yul\":847:862   */\n  revert\n    /* \"#utility.yul\":874:1155   */\ntag_16:\n    /* \"#utility.yul\":957:984   */\n  tag_52\n    /* \"#utility.yul\":979:983   */\n  dup3\n    /* \"#utility.yul\":957:984   */\n  tag_14\n  jump\t// in\ntag_52:\n    /* \"#utility.yul\":949:955   */\n  dup2\n    /* \"#utility.yul\":945:985   */\n  add\n    /* \"#utility.yul\":1087:1093   */\n  dup2\n    /* \"#utility.yul\":1075:1085   */\n  dup2\n    /* \"#utility.yul\":1072:1094   */\n  lt\n    /* \"#utility.yul\":1051:1069   */\n  0xffffffffffffffff\n    /* \"#utility.yul\":1039:1049   */\n  dup3\n    /* \"#utility.yul\":1036:1070   */\n  gt\n    /* \"#utility.yul\":1033:1095   */\n  or\n    /* \"#utility.yul\":1030:1118   */\n  iszero\n  tag_53\n  jumpi\n    /* \"#utility.yul\":1098:1116   */\n  tag_54\n  tag_15\n  jump\t// in\ntag_54:\n    /* \"#utility.yul\":1030:1118   */\ntag_53:\n    /* \"#utility.yul\":1138:1148   */\n  dup1\n    /* \"#utility.yul\":1134:1136   */\n  0x40\n    /* \"#utility.yul\":1127:1149   */\n  mstore\n    /* \"#utility.yul\":917:1155   */\n  pop\n    /* \"#utility.yul\":874:1155   */\n  pop\n  pop\n  jump\t// out\n    /* \"#utility.yul\":1161:1290   */\ntag_17:\n    /* \"#utility.yul\":1195:1201   */\n  0x00\n    /* \"#utility.yul\":1222:1242   */\n  tag_56\n  tag_9\n  jump\t// in\ntag_56:\n    /* \"#utility.yul\":1212:1242   */\n  swap1\n  pop\n    /* \"#utility.yul\":1251:1284   */\n  tag_57\n    /* \"#utility.yul\":1279:1283   */\n  dup3\n    /* \"#utility.yul\":1271:1277   */\n  dup3\n    /* \"#utility.yul\":1251:1284   */\n  tag_16\n  jump\t// in\ntag_57:\n    /* \"#utility.yul\":1161:1290   */\n  swap2\n  swap1\n  pop\n  jump\t// out\n    /* \"#utility.yul\":1296:1604   */\ntag_18:\n    /* \"#utility.yul\":1358:1362   */\n  0x00\n    /* \"#utility.yul\":1448:1466   */\n  0xffffffffffffffff\n    /* \"#utility.yul\":1440:1446   */\n  dup3\n    /* \"#utility.yul\":1437:1467   */\n  gt\n    /* \"#utility.yul\":1434:1490   */\n  iszero\n  tag_59\n  jumpi\n    /* \"#utility.yul\":1470:1488   */\n  tag_60\n  tag_15\n  jump\t// in\ntag_60:\n    /* \"#utility.yul\":1434:1490   */\ntag_59:\n    /* \"#utility.yul\":1508:1537   */\n  tag_61\n    /* \"#utility.yul\":1530:1536   */\n  dup3\n    /* \"#utility.yul\":1508:1537   */\n  tag_14\n  jump\t// in\ntag_61:\n    /* \"#utility.yul\":1500:1537   */\n  swap1\n  pop\n    /* \"#utility.yul\":1592:1596   */\n  0x20\n    /* \"#utility.yul\":1586:1590   */\n  dup2\n    /* \"#utility.yul\":1582:1597   */\n  add\n    /* \"#utility.yul\":1574:1597   */\n  swap1\n  pop\n    /* \"#utility.yul\":1296:1604   */\n  swap2\n  swap1\n  pop\n  jump\t// out\n    /* \"#utility.yul\":1610:1749   */\ntag_19:\n    /* \"#utility.yul\":1699:1705   */\n  dup3\n    /* \"#utility.yul\":1694:1697   */\n  dup2\n    /* \"#utility.yul\":1689:1692   */\n  dup4\n    /* \"#utility.yul\":1683:1706   */\n  mcopy\n    /* \"#utility.yul\":1740:1741   */\n  0x00\n    /* \"#utility.yul\":1731:1737   */\n  dup4\n    /* \"#utility.yul\":1726:1729   */\n  dup4\n    /* \"#utility.yul\":1722:1738   */\n  add\n    /* \"#utility.yul\":1715:1742   */\n  mstore\n    /* \"#utility.yul\":1610:1749   */\n  pop\n  pop\n  pop\n  jump\t// out\n    /* \"#utility.yul\":1755:2189   */\ntag_20:\n    /* \"#utility.yul\":1844:1849   */\n  0x00\n    /* \"#utility.yul\":1869:1935   */\n  tag_64\n    /* \"#utility.yul\":1885:1934   */\n  tag_65\n    /* \"#utility.yul\":1927:1933   */\n  dup5\n    /* \"#utility.yul\":1885:1934   */\n  tag_18\n  jump\t// in\ntag_65:\n    /* \"#utility.yul\":1869:1935   */\n  tag_17\n  jump\t// in\ntag_64:\n    /* \"#utility.yul\":1860:1935   */\n  swap1\n  pop\n    /* \"#utility.yul\":1958:1964   */\n  dup3\n    /* \"#utility.yul\":1951:1956   */\n  dup2\n    /* \"#utility.yul\":1944:1965   */\n  mstore\n    /* \"#utility.yul\":1996:2000   */\n  0x20\n    /* \"#utility.yul\":1989:1994   */\n  dup2\n    /* \"#utility.yul\":1985:2001   */\n  add\n    /* \"#utility.yul\":2034:2037   */\n  dup5\n    /* \"#utility.yul\":2025:2031   */\n  dup5\n    /* \"#utility.yul\":2020:2023   */\n  dup5\n    /* \"#utility.yul\":2016:2032   */\n  add\n    /* \"#utility.yul\":2013:2038   */\n  gt\n    /* \"#utility.yul\":2010:2122   */\n  iszero\n  tag_66\n  jumpi\n    /* \"#utility.yul\":2041:2120   */\n  tag_67\n  tag_13\n  jump\t// in\ntag_67:\n    /* \"#utility.yul\":2010:2122   */\ntag_66:\n    /* \"#utility.yul\":2131:2183   */\n  tag_68\n    /* \"#utility.yul\":2176:2182   */\n  dup5\n    /* \"#utility.yul\":2171:2174   */\n  dup3\n    /* \"#utility.yul\":2166:2169   */\n  dup6\n    /* \"#utility.yul\":2131:2183   */\n  tag_19\n  jump\t// in\ntag_68:\n    /* \"#utility.yul\":1850:2189   */\n  pop\n    /* \"#utility.yul\":1755:2189   */\n  swap4\n  swap3\n  pop\n  pop\n  pop\n  jump\t// out\n    /* \"#utility.yul\":2209:2564   */\ntag_21:\n    /* \"#utility.yul\":2276:2281   */\n  0x00\n    /* \"#utility.yul\":2325:2328   */\n  dup3\n    /* \"#utility.yul\":2318:2322   */\n  0x1f\n    /* \"#utility.yul\":2310:2316   */\n  dup4\n    /* \"#utility.yul\":2306:2323   */\n  add\n    /* \"#utility.yul\":2302:2329   */\n  slt\n    /* \"#utility.yul\":2292:2414   */\n  tag_70\n  jumpi\n    /* \"#utility.yul\":2333:2412   */\n  tag_71\n  tag_12\n  jump\t// in\ntag_71:\n    /* \"#utility.yul\":2292:2414   */\ntag_70:\n    /* \"#utility.yul\":2443:2449   */\n  dup2\n    /* \"#utility.yul\":2437:2450   */\n  mload\n    /* \"#utility.yul\":2468:2558   */\n  tag_72\n    /* \"#utility.yul\":2554:2557   */\n  dup5\n    /* \"#utility.yul\":2546:2552   */\n  dup3\n    /* \"#utility.yul\":2539:2543   */\n  0x20\n    /* \"#utility.yul\":2531:2537   */\n  dup7\n    /* \"#utility.yul\":2527:2544   */\n  add\n    /* \"#utility.yul\":2468:2558   */\n  tag_20\n  jump\t// in\ntag_72:\n    /* \"#utility.yul\":2459:2558   */\n  swap2\n  pop\n    /* \"#utility.yul\":2282:2564   */\n  pop\n    /* \"#utility.yul\":2209:2564   */\n  swap3\n  swap2\n  pop\n  pop\n  jump\t// out\n    /* \"#utility.yul\":2570:2647   */\ntag_22:\n    /* \"#utility.yul\":2607:2614   */\n  0x00\n    /* \"#utility.yul\":2636:2641   */\n  dup2\n    /* \"#utility.yul\":2625:2641   */\n  swap1\n  pop\n    /* \"#utility.yul\":2570:2647   */\n  swap2\n  swap1\n  pop\n  jump\t// out\n    /* \"#utility.yul\":2653:2775   */\ntag_23:\n    /* \"#utility.yul\":2726:2750   */\n  tag_75\n    /* \"#utility.yul\":2744:2749   */\n  dup2\n    /* \"#utility.yul\":2726:2750   */\n  tag_22\n  jump\t// in\ntag_75:\n    /* \"#utility.yul\":2719:2724   */\n  dup2\n    /* \"#utility.yul\":2716:2751   */\n  eq\n    /* \"#utility.yul\":2706:2769   */\n  tag_76\n  jumpi\n    /* \"#utility.yul\":2765:2766   */\n  0x00\n    /* \"#utility.yul\":2762:2763   */\n  0x00\n    /* \"#utility.yul\":2755:2767   */\n  revert\n    /* \"#utility.yul\":2706:2769   */\ntag_76:\n    /* \"#utility.yul\":2653:2775   */\n  pop\n  jump\t// out\n    /* \"#utility.yul\":2781:2924   */\ntag_24:\n    /* \"#utility.yul\":2838:2843   */\n  0x00\n    /* \"#utility.yul\":2869:2875   */\n  dup2\n    /* \"#utility.yul\":2863:2876   */\n  mload\n    /* \"#utility.yul\":2854:2876   */\n  swap1\n  pop\n    /* \"#utility.yul\":2885:2918   */\n  tag_78\n    /* \"#utility.yul\":2912:2917   */\n  dup2\n    /* \"#utility.yul\":2885:2918   */\n  tag_23\n  jump\t// in\ntag_78:\n    /* \"#utility.yul\":2781:2924   */\n  swap3\n  swap2\n  pop\n  pop\n  jump\t// out\n    /* \"#utility.yul\":2930:3610   */\ntag_3:\n    /* \"#utility.yul\":3019:3025   */\n  0x00\n    /* \"#utility.yul\":3027:3033   */\n  0x00\n    /* \"#utility.yul\":3076:3078   */\n  0x40\n    /* \"#utility.yul\":3064:3073   */\n  dup4\n    /* \"#utility.yul\":3055:3062   */\n  dup6\n    /* \"#utility.yul\":3051:3074   */\n  sub\n    /* \"#utility.yul\":3047:3079   */\n  slt\n    /* \"#utility.yul\":3044:3163   */\n  iszero\n  tag_80\n  jumpi\n    /* \"#utility.yul\":3082:3161   */\n  tag_81\n  tag_10\n  jump\t// in\ntag_81:\n    /* \"#utility.yul\":3044:3163   */\ntag_80:\n    /* \"#utility.yul\":3223:3224   */\n  0x00\n    /* \"#utility.yul\":3212:3221   */\n  dup4\n    /* \"#utility.yul\":3208:3225   */\n  add\n    /* \"#utility.yul\":3202:3226   */\n  mload\n    /* \"#utility.yul\":3253:3271   */\n  0xffffffffffffffff\n    /* \"#utility.yul\":3245:3251   */\n  dup2\n    /* \"#utility.yul\":3242:3272   */\n  gt\n    /* \"#utility.yul\":3239:3356   */\n  iszero\n  tag_82\n  jumpi\n    /* \"#utility.yul\":3275:3354   */\n  tag_83\n  tag_11\n  jump\t// in\ntag_83:\n    /* \"#utility.yul\":3239:3356   */\ntag_82:\n    /* \"#utility.yul\":3380:3454   */\n  tag_84\n    /* \"#utility.yul\":3446:3453   */\n  dup6\n    /* \"#utility.yul\":3437:3443   */\n  dup3\n    /* \"#utility.yul\":3426:3435   */\n  dup7\n    /* \"#utility.yul\":3422:3444   */\n  add\n    /* \"#utility.yul\":3380:3454   */\n  tag_21\n  jump\t// in\ntag_84:\n    /* \"#utility.yul\":3370:3454   */\n  swap3\n  pop\n    /* \"#utility.yul\":3173:3464   */\n  pop\n    /* \"#utility.yul\":3503:3505   */\n  0x20\n    /* \"#utility.yul\":3529:3593   */\n  tag_85\n    /* \"#utility.yul\":3585:3592   */\n  dup6\n    /* \"#utility.yul\":3576:3582   */\n  dup3\n    /* \"#utility.yul\":3565:3574   */\n  dup7\n    /* \"#utility.yul\":3561:3583   */\n  add\n    /* \"#utility.yul\":3529:3593   */\n  tag_24\n  jump\t// in\ntag_85:\n    /* \"#utility.yul\":3519:3593   */\n  swap2\n  pop\n    /* \"#utility.yul\":3474:3603   */\n  pop\n    /* \"#utility.yul\":2930:3610   */\n  swap3\n  pop\n  swap3\n  swap1\n  pop\n  jump\t// out\n    /* \"#utility.yul\":3616:3715   */\ntag_25:\n    /* \"#utility.yul\":3668:3674   */\n  0x00\n    /* \"#utility.yul\":3702:3707   */\n  dup2\n    /* \"#utility.yul\":3696:3708   */\n  mload\n    /* \"#utility.yul\":3686:3708   */\n  swap1\n  pop\n    /* \"#utility.yul\":3616:3715   */\n  swap2\n  swap1\n  pop\n  jump\t// out\n    /* \"#utility.yul\":3721:3901   */\ntag_26:\n    /* \"#utility.yul\":3769:3846   */\n  0x4e487b7100000000000000000000000000000000000000000000000000000000\n    /* \"#utility.yul\":3766:3767   */\n  0x00\n    /* \"#utility.yul\":3759:3847   */\n  mstore\n    /* \"#utility.yul\":3866:3870   */\n  0x22\n    /* \"#utility.yul\":3863:3864   */\n  0x04\n    /* \"#utility.yul\":3856:3871   */\n  mstore\n    /* \"#utility.yul\":3890:3894   */\n  0x24\n    /* \"#utility.yul\":3887:3888   */\n  0x00\n    /* \"#utility.yul\":3880:3895   */\n  revert\n    /* \"#utility.yul\":3907:4227   */\ntag_27:\n    /* \"#utility.yul\":3951:3957   */\n  0x00\n    /* \"#utility.yul\":3988:3989   */\n  0x02\n    /* \"#utility.yul\":3982:3986   */\n  dup3\n    /* \"#utility.yul\":3978:3990   */\n  div\n    /* \"#utility.yul\":3968:3990   */\n  swap1\n  pop\n    /* \"#utility.yul\":4035:4036   */\n  0x01\n    /* \"#utility.yul\":4029:4033   */\n  dup3\n    /* \"#utility.yul\":4025:4037   */\n  and\n    /* \"#utility.yul\":4056:4074   */\n  dup1\n    /* \"#utility.yul\":4046:4127   */\n  tag_89\n  jumpi\n    /* \"#utility.yul\":4112:4116   */\n  0x7f\n    /* \"#utility.yul\":4104:4110   */\n  dup3\n    /* \"#utility.yul\":4100:4117   */\n  and\n    /* \"#utility.yul\":4090:4117   */\n  swap2\n  pop\n    /* \"#utility.yul\":4046:4127   */\ntag_89:\n    /* \"#utility.yul\":4174:4176   */\n  0x20\n    /* \"#utility.yul\":4166:4172   */\n  dup3\n    /* \"#utility.yul\":4163:4177   */\n  lt\n    /* \"#utility.yul\":4143:4161   */\n  dup2\n    /* \"#utility.yul\":4140:4178   */\n  sub\n    /* \"#utility.yul\":4137:4221   */\n  tag_90\n  jumpi\n    /* \"#utility.yul\":4193:4211   */\n  tag_91\n  tag_26\n  jump\t// in\ntag_91:\n    /* \"#utility.yul\":4137:4221   */\ntag_90:\n    /* \"#utility.yul\":3958:4227   */\n  pop\n    /* \"#utility.yul\":3907:4227   */\n  swap2\n  swap1\n  pop\n  jump\t// out\n    /* \"#utility.yul\":4233:4374   */\ntag_28:\n    /* \"#utility.yul\":4282:4286   */\n  0x00\n    /* \"#utility.yul\":4305:4308   */\n  dup2\n    /* \"#utility.yul\":4297:4308   */\n  swap1\n  pop\n    /* \"#utility.yul\":4328:4331   */\n  dup2\n    /* \"#utility.yul\":4325:4326   */\n  0x00\n    /* \"#utility.yul\":4318:4332   */\n  mstore\n    /* \"#utility.yul\":4362:4366   */\n  0x20\n    /* \"#utility.yul\":4359:4360   */\n  0x00\n    /* \"#utility.yul\":4349:4367   */\n  keccak256\n    /* \"#utility.yul\":4341:4367   */\n  swap1\n  pop\n    /* \"#utility.yul\":4233:4374   */\n  swap2\n  swap1\n  pop\n  jump\t// out\n    /* \"#utility.yul\":4380:4473   */\ntag_29:\n    /* \"#utility.yul\":4417:4423   */\n  0x00\n    /* \"#utility.yul\":4464:4466   */\n  0x20\n    /* \"#utility.yul\":4459:4461   */\n  0x1f\n    /* \"#utility.yul\":4452:4457   */\n  dup4\n    /* \"#utility.yul\":4448:4462   */\n  add\n    /* \"#utility.yul\":4444:4467   */\n  div\n    /* \"#utility.yul\":4434:4467   */\n  swap1\n  pop\n    /* \"#utility.yul\":4380:4473   */\n  swap2\n  swap1\n  pop\n  jump\t// out\n    /* \"#utility.yul\":4479:4586   */\ntag_30:\n    /* \"#utility.yul\":4523:4531   */\n  0x00\n    /* \"#utility.yul\":4573:4578   */\n  dup3\n    /* \"#utility.yul\":4567:4571   */\n  dup3\n    /* \"#utility.yul\":4563:4579   */\n  shl\n    /* \"#utility.yul\":4542:4579   */\n  swap1\n  pop\n    /* \"#utility.yul\":4479:4586   */\n  swap3\n  swap2\n  pop\n  pop\n  jump\t// out\n    /* \"#utility.yul\":4592:4985   */\ntag_31:\n    /* \"#utility.yul\":4661:4667   */\n  0x00\n    /* \"#utility.yul\":4711:4712   */\n  0x08\n    /* \"#utility.yul\":4699:4709   */\n  dup4\n    /* \"#utility.yul\":4695:4713   */\n  mul\n    /* \"#utility.yul\":4734:4831   */\n  tag_96\n    /* \"#utility.yul\":4764:4830   */\n  0xffffffffffffffffffffffffffffffffffffffffffffffffffffffffffffffff\n    /* \"#utility.yul\":4753:4762   */\n  dup3\n    /* \"#utility.yul\":4734:4831   */\n  tag_30\n  jump\t// in\ntag_96:\n    /* \"#utility.yul\":4852:4891   */\n  tag_97\n    /* \"#utility.yul\":4882:4890   */\n  dup7\n    /* \"#utility.yul\":4871:4880   */\n  dup4\n    /* \"#utility.yul\":4852:4891   */\n  tag_30\n  jump\t// in\ntag_97:\n    /* \"#utility.yul\":4840:4891   */\n  swap6\n  pop\n    /* \"#utility.yul\":4924:4928   */\n  dup1\n    /* \"#utility.yul\":4920:4929   */\n  not\n    /* \"#utility.yul\":4913:4918   */\n  dup5\n    /* \"#utility.yul\":4909:4930   */\n  and\n    /* \"#utility.yul\":4900:4930   */\n  swap4\n  pop\n    /* \"#utility.yul\":4973:4977   */\n  dup1\n    /* \"#utility.yul\":4963:4971   */\n  dup7\n    /* \"#utility.yul\":4959:4978   */\n  and\n    /* \"#utility.yul\":4952:4957   */\n  dup5\n    /* \"#utility.yul\":4949:4979   */\n  or\n    /* \"#utility.yul\":4939:4979   */\n  swap3\n  pop\n    /* \"#utility.yul\":4668:4985   */\n  pop\n  pop\n    /* \"#utility.yul\":4592:4985   */\n  swap4\n  swap3\n  pop\n  pop\n  pop\n  jump\t// out\n    /* \"#utility.yul\":4991:5051   */\ntag_32:\n    /* \"#utility.yul\":5019:5022   */\n  0x00\n    /* \"#utility.yul\":5040:5045   */\n  dup2\n    /* \"#utility.yul\":5033:5045   */\n  swap1\n  pop\n    /* \"#utility.yul\":4991:5051   */\n  swap2\n  swap1\n  pop\n  jump\t// out\n    /* \"#utility.yul\":5057:5199   */\ntag_33:\n    /* \"#utility.yul\":5107:5116   */\n  0x00\n    /* \"#utility.yul\":5140:5193   */\n  tag_100\n    /* \"#utility.yul\":5158:5192   */\n  tag_101\n    /* \"#utility.yul\":5167:5191   */\n  tag_102\n    /* \"#utility.yul\":5185:5190   */\n  dup5\n    /* \"#utility.yul\":5167:5191   */\n  tag_22\n  jump\t// in\ntag_102:\n    /* \"#utility.yul\":5158:5192   */\n  tag_32\n  jump\t// in\ntag_101:\n    /* \"#utility.yul\":5140:5193   */\n  tag_22\n  jump\t// in\ntag_100:\n    /* \"#utility.yul\":5127:5193   */\n  swap1\n  pop\n    /* \"#utility.yul\":5057:5199   */\n  swap2\n  swap1\n  pop\n  jump\t// out\n    /* \"#utility.yul\":5205:5280   */\ntag_34:\n    /* \"#utility.yul\":5248:5251   */\n  0x00\n    /* \"#utility.yul\":5269:5274   */\n  dup2\n    /* \"#utility.yul\":5262:5274   */\n  swap1\n  pop\n    /* \"#utility.yul\":5205:5280   */\n  swap2\n  swap1\n  pop\n  jump\t// out\n    /* \"#utility.yul\":5286:5555   */\ntag_35:\n    /* \"#utility.yul\":5396:5435   */\n  tag_105\n    /* \"#utility.yul\":5427:5434   */\n  dup4\n    /* \"#utility.yul\":5396:5435   */\n  tag_33\n  jump\t// in\ntag_105:\n    /* \"#utility.yul\":5457:5548   */\n  tag_106\n    /* \"#utility.yul\":5506:5547   */\n  tag_107\n    /* \"#utility.yul\":5530:5546   */\n  dup3\n    /* \"#utility.yul\":5506:5547   */\n  tag_34\n  jump\t// in\ntag_107:\n    /* \"#utility.yul\":5498:5504   */\n  dup5\n    /* \"#utility.yul\":5491:5495   */\n  dup5\n    /* \"#utility.yul\":5485:5496   */\n  sload\n    /* \"#utility.yul\":5457:5548   */\n  tag_31\n  jump\t// in\ntag_106:\n    /* \"#utility.yul\":5451:5455   */\n  dup3\n    /* \"#utility.yul\":5444:5549   */\n  sstore\n    /* \"#utility.yul\":5362:5555   */\n  pop\n    /* \"#utility.yul\":5286:5555   */\n  pop\n  pop\n  pop\n  jump\t// out\n    /* \"#utility.yul\":5561:5634   */\ntag_36:\n    /* \"#utility.yul\":5606:5609   */\n  0x00\n    /* \"#utility.yul\":5627:5628   */\n  0x00\n    /* \"#utility.yul\":5620:5628   */\n  swap1\n  pop\n    /* \"#utility.yul\":5561:5634   */\n  swap1\n  jump\t// out\n    /* \"#utility.yul\":5640:5829   */\ntag_37:\n    /* \"#utility.yul\":5717:5749   */\n  tag_110\n  tag_36\n  jump\t// in\ntag_110:\n    /* \"#utility.yul\":5758:5823   */\n  tag_111\n    /* \"#utility.yul\":5816:5822   */\n  dup2\n    /* \"#utility.yul\":5808:5814   */\n  dup5\n    /* \"#utility.yul\":5802:5806   */\n  dup5\n    /* \"#utility.yul\":5758:5823   */\n  tag_35\n  jump\t// in\ntag_111:\n    /* \"#utility.yul\":5693:5829   */\n  pop\n    /* \"#utility.yul\":5640:5829   */\n  pop\n  pop\n  jump\t// out\n    /* \"#utility.yul\":5835:6021   */\ntag_38:\n    /* \"#utility.yul\":5895:6015   */\ntag_113:\n    /* \"#utility.yul\":5912:5915   */\n  dup2\n    /* \"#utility.yul\":5905:5910   */\n  dup2\n    /* \"#utility.yul\":5902:5916   */\n  lt\n    /* \"#utility.yul\":5895:6015   */\n  iszero\n  tag_115\n  jumpi\n    /* \"#utility.yul\":5966:6005   */\n  tag_116\n    /* \"#utility.yul\":6003:6004   */\n  0x00\n    /* \"#utility.yul\":5996:6001   */\n  dup3\n    /* \"#utility.yul\":5966:6005   */\n  tag_37\n  jump\t// in\ntag_116:\n    /* \"#utility.yul\":5939:5940   */\n  0x01\n    /* \"#utility.yul\":5932:5937   */\n  dup2\n    /* \"#utility.yul\":5928:5941   */\n  add\n    /* \"#utility.yul\":5919:5941   */\n  swap1\n  pop\n    /* \"#utility.yul\":5895:6015   */\n  jump(tag_113)\ntag_115:\n    /* \"#utility.yul\":5835:6021   */\n  pop\n  pop\n  jump\t// out\n    /* \"#utility.yul\":6027:6570   */\ntag_39:\n    /* \"#utility.yul\":6128:6130   */\n  0x1f\n    /* \"#utility.yul\":6123:6126   */\n  dup3\n    /* \"#utility.yul\":6120:6131   */\n  gt\n    /* \"#utility.yul\":6117:6563   */\n  iszero\n  tag_118\n  jumpi\n    /* \"#utility.yul\":6162:6200   */\n  tag_119\n    /* \"#utility.yul\":6194:6199   */\n  dup2\n    /* \"#utility.yul\":6162:6200   */\n  tag_28\n  jump\t// in\ntag_119:\n    /* \"#utility.yul\":6246:6275   */\n  tag_120\n    /* \"#utility.yul\":6264:6274   */\n  dup5\n    /* \"#utility.yul\":6246:6275   */\n  tag_29\n  jump\t// in\ntag_120:\n    /* \"#utility.yul\":6236:6244   */\n  dup2\n    /* \"#utility.yul\":6232:6276   */\n  add\n    /* \"#utility.yul\":6429:6431   */\n  0x20\n    /* \"#utility.yul\":6417:6427   */\n  dup6\n    /* \"#utility.yul\":6414:6432   */\n  lt\n    /* \"#utility.yul\":6411:6460   */\n  iszero\n  tag_121\n  jumpi\n    /* \"#utility.yul\":6450:6458   */\n  dup2\n    /* \"#utility.yul\":6435:6458   */\n  swap1\n  pop\n    /* \"#utility.yul\":6411:6460   */\ntag_121:\n    /* \"#utility.yul\":6473:6553   */\n  tag_122\n    /* \"#utility.yul\":6529:6551   */\n  tag_123\n    /* \"#utility.yul\":6547:6550   */\n  dup6\n    /* \"#utility.yul\":6529:6551   */\n  tag_29\n  jump\t// in\ntag_123:\n    /* \"#utility.yul\":6519:6527   */\n  dup4\n    /* \"#utility.yul\":6515:6552   */\n  add\n    /* \"#utility.yul\":6502:6513   */\n  dup3\n    /* \"#utility.yul\":6473:6553   */\n  tag_38\n  jump\t// in\ntag_122:\n    /* \"#utility.yul\":6132:6563   */\n  pop\n  pop\n    /* \"#utility.yul\":6117:6563   */\ntag_118:\n    /* \"#utility.yul\":6027:6570   */\n  pop\n  pop\n  pop\n  jump\t// out\n    /* \"#utility.yul\":6576:6693   */\ntag_40:\n    /* \"#utility.yul\":6630:6638   */\n  0x00\n    /* \"#utility.yul\":6680:6685   */\n  dup3\n    /* \"#utility.yul\":6674:6678   */\n  dup3\n    /* \"#utility.yul\":6670:6686   */\n  shr\n    /* \"#utility.yul\":6649:6686   */\n  swap1\n  pop\n    /* \"#utility.yul\":6576:6693   */\n  swap3\n  swap2\n  pop\n  pop\n  jump\t// out\n    /* \"#utility.yul\":6699:6868   */\ntag_41:\n    /* \"#utility.yul\":6743:6749   */\n  0x00\n    /* \"#utility.yul\":6776:6827   */\n  tag_126\n    /* \"#utility.yul\":6824:6825   */\n  0x00\n    /* \"#utility.yul\":6820:6826   */\n  not\n    /* \"#utility.yul\":6812:6817   */\n  dup5\n    /* \"#utility.yul\":6809:6810   */\n  0x08\n    /* \"#utility.yul\":6805:6818   */\n  mul\n    /* \"#utility.yul\":6776:6827   */\n  tag_40\n  jump\t// in\ntag_126:\n    /* \"#utility.yul\":6772:6828   */\n  not\n    /* \"#utility.yul\":6857:6861   */\n  dup1\n    /* \"#utility.yul\":6851:6855   */\n  dup4\n    /* \"#utility.yul\":6847:6862   */\n  and\n    /* \"#utility.yul\":6837:6862   */\n  swap2\n  pop\n    /* \"#utility.yul\":6750:6868   */\n  pop\n    /* \"#utility.yul\":6699:6868   */\n  swap3\n  swap2\n  pop\n  pop\n  jump\t// out\n    /* \"#utility.yul\":6873:7168   */\ntag_42:\n    /* \"#utility.yul\":6949:6953   */\n  0x00\n    /* \"#utility.yul\":7095:7124   */\n  tag_128\n    /* \"#utility.yul\":7120:7123   */\n  dup4\n    /* \"#utility.yul\":7114:7118   */\n  dup4\n    /* \"#utility.yul\":7095:7124   */\n  tag_41\n  jump\t// in\ntag_128:\n    /* \"#utility.yul\":7087:7124   */\n  swap2\n  pop\n    /* \"#utility.yul\":7157:7160   */\n  dup3\n    /* \"#utility.yul\":7154:7155   */\n  0x02\n    /* \"#utility.yul\":7150:7161   */\n  mul\n    /* \"#utility.yul\":7144:7148   */\n  dup3\n    /* \"#utility.yul\":7141:7162   */\n  or\n    /* \"#utility.yul\":7133:7162   */\n  swap1\n  pop\n    /* \"#utility.yul\":6873:7168   */\n  swap3\n  swap2\n  pop\n  pop\n  jump\t// out\n    /* \"#utility.yul\":7173:8568   */\ntag_7:\n    /* \"#utility.yul\":7290:7327   */\n  tag_130\n    /* \"#utility.yul\":7323:7326   */\n  dup3\n    /* \"#utility.yul\":7290:7327   */\n  tag_25\n  jump\t// in\ntag_130:\n    /* \"#utility.yul\":7392:7410   */\n  0xffffffffffffffff\n    /* \"#utility.yul\":7384:7390   */\n  dup2\n    /* \"#utility.yul\":7381:7411   */\n  gt\n    /* \"#utility.yul\":7378:7434   */\n  iszero\n  tag_131\n  jumpi\n    /* \"#utility.yul\":7414:7432   */\n  tag_132\n  tag_15\n  jump\t// in\ntag_132:\n    /* \"#utility.yul\":7378:7434   */\ntag_131:\n    /* \"#utility.yul\":7458:7496   */\n  tag_133\n    /* \"#utility.yul\":7490:7494   */\n  dup3\n    /* \"#utility.yul\":7484:7495   */\n  sload\n    /* \"#utility.yul\":7458:7496   */\n  tag_27\n  jump\t// in\ntag_133:\n    /* \"#utility.yul\":7543:7610   */\n  tag_134\n    /* \"#utility.yul\":7603:7609   */\n  dup3\n    /* \"#utility.yul\":7595:7601   */\n  dup3\n    /* \"#utility.yul\":7589:7593   */\n  dup6\n    /* \"#utility.yul\":7543:7610   */\n  tag_39\n  jump\t// in\ntag_134:\n    /* \"#utility.yul\":7637:7638   */\n  0x00\n    /* \"#utility.yul\":7661:7665   */\n  0x20\n    /* \"#utility.yul\":7648:7665   */\n  swap1\n  pop\n    /* \"#utility.yul\":7693:7695   */\n  0x1f\n    /* \"#utility.yul\":7685:7691   */\n  dup4\n    /* \"#utility.yul\":7682:7696   */\n  gt\n    /* \"#utility.yul\":7710:7711   */\n  0x01\n    /* \"#utility.yul\":7705:8323   */\n  dup2\n  eq\n  tag_136\n  jumpi\n    /* \"#utility.yul\":8367:8368   */\n  0x00\n    /* \"#utility.yul\":8384:8390   */\n  dup5\n    /* \"#utility.yul\":8381:8458   */\n  iszero\n  tag_137\n  jumpi\n    /* \"#utility.yul\":8433:8442   */\n  dup3\n    /* \"#utility.yul\":8428:8431   */\n  dup8\n    /* \"#utility.yul\":8424:8443   */\n  add\n    /* \"#utility.yul\":8418:8444   */\n  mload\n    /* \"#utility.yul\":8409:8444   */\n  swap1\n  pop\n    /* \"#utility.yul\":8381:8458   */\ntag_137:\n    /* \"#utility.yul\":8484:8551   */\n  tag_138\n    /* \"#utility.yul\":8544:8550   */\n  dup6\n    /* \"#utility.yul\":8537:8542   */\n  dup3\n    /* \"#utility.yul\":8484:8551   */\n  tag_42\n  jump\t// in\ntag_138:\n    /* \"#utility.yul\":8478:8482   */\n  dup7\n    /* \"#utility.yul\":8471:8552   */\n  sstore\n    /* \"#utility.yul\":8340:8562   */\n  pop\n    /* \"#utility.yul\":7675:8562   */\n  jump(tag_135)\n    /* \"#utility.yul\":7705:8323   */\ntag_136:\n    /* \"#utility.yul\":7757:7761   */\n  0x1f\n    /* \"#utility.yul\":7753:7762   */\n  not\n    /* \"#utility.yul\":7745:7751   */\n  dup5\n    /* \"#utility.yul\":7741:7763   */\n  and\n    /* \"#utility.yul\":7791:7828   */\n  tag_139\n    /* \"#utility.yul\":7823:7827   */\n  dup7\n    /* \"#utility.yul\":7791:7828   */\n  tag_28\n  jump\t// in\ntag_139:\n    /* \"#utility.yul\":7850:7851   */\n  0x00\n    /* \"#utility.yul\":7864:8072   */\ntag_140:\n    /* \"#utility.yul\":7878:7885   */\n  dup3\n    /* \"#utility.yul\":7875:7876   */\n  dup2\n    /* \"#utility.yul\":7872:7886   */\n  lt\n    /* \"#utility.yul\":7864:8072   */\n  iszero\n  tag_142\n  jumpi\n    /* \"#utility.yul\":7957:7966   */\n  dup5\n    /* \"#utility.yul\":7952:7955   */\n  dup10\n    /* \"#utility.yul\":7948:7967   */\n  add\n    /* \"#utility.yul\":7942:7968   */\n  mload\n    /* \"#utility.yul\":7934:7940   */\n  dup3\n    /* \"#utility.yul\":7927:7969   */\n  sstore\n    /* \"#utility.yul\":8008:8009   */\n  0x01\n    /* \"#utility.yul\":8000:8006   */\n  dup3\n    /* \"#utility.yul\":7996:8010   */\n  add\n    /* \"#utility.yul\":7986:8010   */\n  swap2\n  pop\n    /* \"#utility.yul\":8055:8057   */\n  0x20\n    /* \"#utility.yul\":8044:8053   */\n  dup6\n    /* \"#utility.yul\":8040:8058   */\n  add\n    /* \"#utility.yul\":8027:8058   */\n  swap5\n  pop\n    /* \"#utility.yul\":7901:7905   */\n  0x20\n    /* \"#utility.yul\":7898:7899   */\n  dup2\n    /* \"#utility.yul\":7894:7906   */\n  add\n    /* \"#utility.yul\":7889:7906   */\n  swap1\n  pop\n    /* \"#utility.yul\":7864:8072   */\n  jump(tag_140)\ntag_142:\n    /* \"#utility.yul\":8100:8106   */\n  dup7\n    /* \"#utility.yul\":8091:8098   */\n  dup4\n    /* \"#utility.yul\":8088:8107   */\n  lt\n    /* \"#utility.yul\":8085:8264   */\n  iszero\n  tag_143\n  jumpi\n    /* \"#utility.yul\":8158:8167   */\n  dup5\n    /* \"#utility.yul\":8153:8156   */\n  dup10\n    /* \"#utility.yul\":8149:8168   */\n  add\n    /* \"#utility.yul\":8143:8169   */\n  mload\n    /* \"#utility.yul\":8201:8249   */\n  tag_144\n    /* \"#utility.yul\":8243:8247   */\n  0x1f\n    /* \"#utility.yul\":8235:8241   */\n  dup10\n    /* \"#utility.yul\":8231:8248   */\n  and\n    /* \"#utility.yul\":8220:8229   */\n  dup3\n    /* \"#utility.yul\":8201:8249   */\n  tag_41\n  jump\t// in\ntag_144:\n    /* \"#utility.yul\":8193:8199   */\n  dup4\n    /* \"#utility.yul\":8186:8250   */\n  sstore\n    /* \"#utility.yul\":8108:8264   */\n  pop\n    /* \"#utility.yul\":8085:8264   */\ntag_143:\n    /* \"#utility.yul\":8310:8311   */\n  0x01\n    /* \"#utility.yul\":8306:8307   */\n  0x02\n    /* \"#utility.yul\":8298:8304   */\n  dup9\n    /* \"#utility.yul\":8294:8308   */\n  mul\n    /* \"#utility.yul\":8290:8312   */\n  add\n    /* \"#utility.yul\":8284:8288   */\n  dup9\n    /* \"#utility.yul\":8277:8313   */\n  sstore\n    /* \"#utility.yul\":7712:8323   */\n  pop\n  pop\n  pop\n    /* \"#utility.yul\":7675:8562   */\ntag_135:\n  pop\n    /* \"#utility.yul\":7265:8568   */\n  pop\n  pop\n  pop\n    /* \"#utility.yul\":7173:8568   */\n  pop\n  pop\n  jump\t// out\n    /* \"contracts/_profile.sol\":57:443  contract Profile {... */\ntag_8:\n  dataSize(sub_0)\n  dup1\n  dataOffset(sub_0)\n  0x00\n  codecopy\n  0x00\n  return\nstop\n\nsub_0: assembly {\n        /* \"contracts/_profile.sol\":57:443  contract Profile {... */\n      mstore(0x40, 0x80)\n      callvalue\n      dup1\n      iszero\n      tag_1\n      jumpi\n      revert(0x00, 0x00)\n    tag_1:\n      pop\n      jumpi(tag_2, lt(calldatasize, 0x04))\n      shr(0xe0, calldataload(0x00))\n      dup1\n      0x06fdde03\n      eq\n      tag_3\n      jumpi\n      dup1\n      0x0d3ffb40\n      eq\n      tag_4\n      jumpi\n      dup1\n      0x262a9dff\n      eq\n      tag_5\n      jumpi\n      dup1\n      0xd6afc9b1\n      eq\n      tag_6\n      jumpi\n    tag_2:\n      revert(0x00, 0x00)\n        /* \"contracts/_profile.sol\":80:98  string public name */\n    tag_3:\n      tag_7\n      tag_8\n      jump\t// in\n    tag_7:\n      mload(0x40)\n      tag_9\n      swap2\n      swap1\n      tag_10\n      jump\t// in\n    tag_9:\n      mload(0x40)\n      dup1\n      swap2\n      sub\n      swap1\n      return\n        /* \"contracts/_profile.sol\":224:336  function updateProfile(string memory _name, uint _age) public  {... */\n    tag_4:\n      tag_11\n      0x04\n      dup1\n      calldatasize\n      sub\n      dup2\n      add\n      swap1\n      tag_12\n      swap2\n      swap1\n      tag_13\n      jump\t// in\n    tag_12:\n      tag_14\n      jump\t// in\n    tag_11:\n      stop\n        /* \"contracts/_profile.sol\":104:119  uint public age */\n    tag_5:\n      tag_15\n      tag_16\n      jump\t// in\n    tag_15:\n      mload(0x40)\n      tag_17\n      swap2\n      swap1\n      tag_18\n      jump\t// in\n    tag_17:\n      mload(0x40)\n      dup1\n      swap2\n      sub\n      swap1\n      return\n        /* \"contracts/_profile.sol\":342:441  function getProfile() public view returns (string memory, uint) {... */\n    tag_6:\n      tag_19\n      tag_20\n      jump\t// in\n    tag_19:\n      mload(0x40)\n      tag_21\n      swap3\n      swap2\n      swap1\n      tag_22\n      jump\t// in\n    tag_21:\n      mload(0x40)\n      dup1\n      swap2\n      sub\n      swap1\n      return\n        /* \"contracts/_profile.sol\":80:98  string public name */\n    tag_8:\n      0x00\n      dup1\n      sload\n      tag_23\n      swap1\n      tag_24\n      jump\t// in\n    tag_23:\n      dup1\n      0x1f\n      add\n      0x20\n      dup1\n      swap2\n      div\n      mul\n      0x20\n      add\n      mload(0x40)\n      swap1\n      dup2\n      add\n      0x40\n      mstore\n      dup1\n      swap3\n      swap2\n      swap1\n      dup2\n      dup2\n      mstore\n      0x20\n      add\n      dup3\n      dup1\n      sload\n      tag_25\n      swap1\n      tag_24\n      jump\t// in\n    tag_25:\n      dup1\n      iszero\n      tag_26\n      jumpi\n      dup1\n      0x1f\n      lt\n      tag_27\n      jumpi\n      0x0100\n      dup1\n      dup4\n      sload\n      div\n      mul\n      dup4\n      mstore\n      swap2\n      0x20\n      add\n      swap2\n      jump(tag_26)\n    tag_27:\n      dup3\n      add\n      swap2\n      swap1\n      0x00\n      mstore\n      keccak256(0x00, 0x20)\n      swap1\n    tag_28:\n      dup2\n      sload\n      dup2\n      mstore\n      swap1\n      0x01\n      add\n      swap1\n      0x20\n      add\n      dup1\n      dup4\n      gt\n      tag_28\n      jumpi\n      dup3\n      swap1\n      sub\n      0x1f\n      and\n      dup3\n      add\n      swap2\n    tag_26:\n      pop\n      pop\n      pop\n      pop\n      pop\n      dup2\n      jump\t// out\n        /* \"contracts/_profile.sol\":224:336  function updateProfile(string memory _name, uint _age) public  {... */\n    tag_14:\n        /* \"contracts/_profile.sol\":304:309  _name */\n      dup2\n        /* \"contracts/_profile.sol\":297:301  name */\n      0x00\n        /* \"contracts/_profile.sol\":297:309  name = _name */\n      swap1\n      dup2\n      tag_30\n      swap2\n      swap1\n      tag_31\n      jump\t// in\n    tag_30:\n      pop\n        /* \"contracts/_profile.sol\":325:329  _age */\n      dup1\n        /* \"contracts/_profile.sol\":319:322  age */\n      0x01\n        /* \"contracts/_profile.sol\":319:329  age = _age */\n      dup2\n      swap1\n      sstore\n      pop\n        /* \"contracts/_profile.sol\":224:336  function updateProfile(string memory _name, uint _age) public  {... */\n      pop\n      pop\n      jump\t// out\n        /* \"contracts/_profile.sol\":104:119  uint public age */\n    tag_16:\n      sload(0x01)\n      dup2\n      jump\t// out\n        /* \"contracts/_profile.sol\":342:441  function getProfile() public view returns (string memory, uint) {... */\n    tag_20:\n        /* \"contracts/_profile.sol\":385:398  string memory */\n      0x60\n        /* \"contracts/_profile.sol\":400:404  uint */\n      0x00\n        /* \"contracts/_profile.sol\":424:428  name */\n      0x00\n        /* \"contracts/_profile.sol\":430:433  age */\n      sload(0x01)\n        /* \"contracts/_profile.sol\":416:434  return (name, age) */\n      dup2\n      dup1\n      sload\n      tag_33\n      swap1\n      tag_24\n      jump\t// in\n    tag_33:\n      dup1\n      0x1f\n      add\n      0x20\n      dup1\n      swap2\n      div\n      mul\n      0x20\n      add\n      mload(0x40)\n      swap1\n      dup2\n      add\n      0x40\n      mstore\n      dup1\n      swap3\n      swap2\n      swap1\n      dup2\n      dup2\n      mstore\n      0x20\n      add\n      dup3\n      dup1\n      sload\n      tag_34\n      swap1\n      tag_24\n      jump\t// in\n    tag_34:\n      dup1\n      iszero\n      tag_35\n      jumpi\n      dup1\n      0x1f\n      lt\n      tag_36\n      jumpi\n      0x0100\n      dup1\n      dup4\n      sload\n      div\n      mul\n      dup4\n      mstore\n      swap2\n      0x20\n      add\n      swap2\n      jump(tag_35)\n    tag_36:\n      dup3\n      add\n      swap2\n      swap1\n      0x00\n      mstore\n      keccak256(0x00, 0x20)\n      swap1\n    tag_37:\n      dup2\n      sload\n      dup2\n      mstore\n      swap1\n      0x01\n      add\n      swap1\n      0x20\n      add\n      dup1\n      dup4\n      gt\n      tag_37\n      jumpi\n      dup3\n      swap1\n      sub\n      0x1f\n      and\n      dup3\n      add\n      swap2\n    tag_35:\n      pop\n      pop\n      pop\n      pop\n      pop\n      swap2\n      pop\n      swap2\n      pop\n      swap2\n      pop\n        /* \"contracts/_profile.sol\":342:441  function getProfile() public view returns (string memory, uint) {... */\n      swap1\n      swap2\n      jump\t// out\n        /* \"#utility.yul\":7:106   */\n    tag_38:\n        /* \"#utility.yul\":59:65   */\n      0x00\n        /* \"#utility.yul\":93:98   */\n      dup2\n        /* \"#utility.yul\":87:99   */\n      mload\n        /* \"#utility.yul\":77:99   */\n      swap1\n      pop\n        /* \"#utility.yul\":7:106   */\n      swap2\n      swap1\n      pop\n      jump\t// out\n        /* \"#utility.yul\":112:281   */\n    tag_39:\n        /* \"#utility.yul\":196:207   */\n      0x00\n        /* \"#utility.yul\":230:236   */\n      dup3\n        /* \"#utility.yul\":225:228   */\n      dup3\n        /* \"#utility.yul\":218:237   */\n      mstore\n        /* \"#utility.yul\":270:274   */\n      0x20\n        /* \"#utility.yul\":265:268   */\n      dup3\n        /* \"#utility.yul\":261:275   */\n      add\n        /* \"#utility.yul\":246:275   */\n      swap1\n      pop\n        /* \"#utility.yul\":112:281   */\n      swap3\n      swap2\n      pop\n      pop\n      jump\t// out\n        /* \"#utility.yul\":287:426   */\n    tag_40:\n        /* \"#utility.yul\":376:382   */\n      dup3\n        /* \"#utility.yul\":371:374   */\n      dup2\n        /* \"#utility.yul\":366:369   */\n      dup4\n        /* \"#utility.yul\":360:383   */\n      mcopy\n        /* \"#utility.yul\":417:418   */\n      0x00\n        /* \"#utility.yul\":408:414   */\n      dup4\n        /* \"#utility.yul\":403:406   */\n      dup4\n        /* \"#utility.yul\":399:415   */\n      add\n        /* \"#utility.yul\":392:419   */\n      mstore\n        /* \"#utility.yul\":287:426   */\n      pop\n      pop\n      pop\n      jump\t// out\n        /* \"#utility.yul\":432:534   */\n    tag_41:\n        /* \"#utility.yul\":473:479   */\n      0x00\n        /* \"#utility.yul\":524:526   */\n      0x1f\n        /* \"#utility.yul\":520:527   */\n      not\n        /* \"#utility.yul\":515:517   */\n      0x1f\n        /* \"#utility.yul\":508:513   */\n      dup4\n        /* \"#utility.yul\":504:518   */\n      add\n        /* \"#utility.yul\":500:528   */\n      and\n        /* \"#utility.yul\":490:528   */\n      swap1\n      pop\n        /* \"#utility.yul\":432:534   */\n      swap2\n      swap1\n      pop\n      jump\t// out\n        /* \"#utility.yul\":540:917   */\n    tag_42:\n        /* \"#utility.yul\":628:631   */\n      0x00\n        /* \"#utility.yul\":656:695   */\n      tag_81\n        /* \"#utility.yul\":689:694   */\n      dup3\n        /* \"#utility.yul\":656:695   */\n      tag_38\n      jump\t// in\n    tag_81:\n        /* \"#utility.yul\":711:782   */\n      tag_82\n        /* \"#utility.yul\":775:781   */\n      dup2\n        /* \"#utility.yul\":770:773   */\n      dup6\n        /* \"#utility.yul\":711:782   */\n      tag_39\n      jump\t// in\n    tag_82:\n        /* \"#utility.yul\":704:782   */\n      swap4\n      pop\n        /* \"#utility.yul\":791:856   */\n      tag_83\n        /* \"#utility.yul\":849:855   */\n      dup2\n        /* \"#utility.yul\":844:847   */\n      dup6\n        /* \"#utility.yul\":837:841   */\n      0x20\n        /* \"#utility.yul\":830:835   */\n      dup7\n        /* \"#utility.yul\":826:842   */\n      add\n        /* \"#utility.yul\":791:856   */\n      tag_40\n      jump\t// in\n    tag_83:\n        /* \"#utility.yul\":881:910   */\n      tag_84\n        /* \"#utility.yul\":903:909   */\n      dup2\n        /* \"#utility.yul\":881:910   */\n      tag_41\n      jump\t// in\n    tag_84:\n        /* \"#utility.yul\":876:879   */\n      dup5\n        /* \"#utility.yul\":872:911   */\n      add\n        /* \"#utility.yul\":865:911   */\n      swap2\n      pop\n        /* \"#utility.yul\":632:917   */\n      pop\n        /* \"#utility.yul\":540:917   */\n      swap3\n      swap2\n      pop\n      pop\n      jump\t// out\n        /* \"#utility.yul\":923:1236   */\n    tag_10:\n        /* \"#utility.yul\":1036:1040   */\n      0x00\n        /* \"#utility.yul\":1074:1076   */\n      0x20\n        /* \"#utility.yul\":1063:1072   */\n      dup3\n        /* \"#utility.yul\":1059:1077   */\n      add\n        /* \"#utility.yul\":1051:1077   */\n      swap1\n      pop\n        /* \"#utility.yul\":1123:1132   */\n      dup2\n        /* \"#utility.yul\":1117:1121   */\n      dup2\n        /* \"#utility.yul\":1113:1133   */\n      sub\n        /* \"#utility.yul\":1109:1110   */\n      0x00\n        /* \"#utility.yul\":1098:1107   */\n      dup4\n        /* \"#utility.yul\":1094:1111   */\n      add\n        /* \"#utility.yul\":1087:1134   */\n      mstore\n        /* \"#utility.yul\":1151:1229   */\n      tag_86\n        /* \"#utility.yul\":1224:1228   */\n      dup2\n        /* \"#utility.yul\":1215:1221   */\n      dup5\n        /* \"#utility.yul\":1151:1229   */\n      tag_42\n      jump\t// in\n    tag_86:\n        /* \"#utility.yul\":1143:1229   */\n      swap1\n      pop\n        /* \"#utility.yul\":923:1236   */\n      swap3\n      swap2\n      pop\n      pop\n      jump\t// out\n        /* \"#utility.yul\":1242:1317   */\n    tag_43:\n        /* \"#utility.yul\":1275:1281   */\n      0x00\n        /* \"#utility.yul\":1308:1310   */\n      0x40\n        /* \"#utility.yul\":1302:1311   */\n      mload\n        /* \"#utility.yul\":1292:1311   */\n      swap1\n      pop\n        /* \"#utility.yul\":1242:1317   */\n      swap1\n      jump\t// out\n        /* \"#utility.yul\":1323:1440   */\n    tag_44:\n        /* \"#utility.yul\":1432:1433   */\n      0x00\n        /* \"#utility.yul\":1429:1430   */\n      0x00\n        /* \"#utility.yul\":1422:1434   */\n      revert\n        /* \"#utility.yul\":1446:1563   */\n    tag_45:\n        /* \"#utility.yul\":1555:1556   */\n      0x00\n        /* \"#utility.yul\":1552:1553   */\n      0x00\n        /* \"#utility.yul\":1545:1557   */\n      revert\n        /* \"#utility.yul\":1569:1686   */\n    tag_46:\n        /* \"#utility.yul\":1678:1679   */\n      0x00\n        /* \"#utility.yul\":1675:1676   */\n      0x00\n        /* \"#utility.yul\":1668:1680   */\n      revert\n        /* \"#utility.yul\":1692:1809   */\n    tag_47:\n        /* \"#utility.yul\":1801:1802   */\n      0x00\n        /* \"#utility.yul\":1798:1799   */\n      0x00\n        /* \"#utility.yul\":1791:1803   */\n      revert\n        /* \"#utility.yul\":1815:1995   */\n    tag_48:\n        /* \"#utility.yul\":1863:1940   */\n      0x4e487b7100000000000000000000000000000000000000000000000000000000\n        /* \"#utility.yul\":1860:1861   */\n      0x00\n        /* \"#utility.yul\":1853:1941   */\n      mstore\n        /* \"#utility.yul\":1960:1964   */\n      0x41\n        /* \"#utility.yul\":1957:1958   */\n      0x04\n        /* \"#utility.yul\":1950:1965   */\n      mstore\n        /* \"#utility.yul\":1984:1988   */\n      0x24\n        /* \"#utility.yul\":1981:1982   */\n      0x00\n        /* \"#utility.yul\":1974:1989   */\n      revert\n        /* \"#utility.yul\":2001:2282   */\n    tag_49:\n        /* \"#utility.yul\":2084:2111   */\n      tag_94\n        /* \"#utility.yul\":2106:2110   */\n      dup3\n        /* \"#utility.yul\":2084:2111   */\n      tag_41\n      jump\t// in\n    tag_94:\n        /* \"#utility.yul\":2076:2082   */\n      dup2\n        /* \"#utility.yul\":2072:2112   */\n      add\n        /* \"#utility.yul\":2214:2220   */\n      dup2\n        /* \"#utility.yul\":2202:2212   */\n      dup2\n        /* \"#utility.yul\":2199:2221   */\n      lt\n        /* \"#utility.yul\":2178:2196   */\n      0xffffffffffffffff\n        /* \"#utility.yul\":2166:2176   */\n      dup3\n        /* \"#utility.yul\":2163:2197   */\n      gt\n        /* \"#utility.yul\":2160:2222   */\n      or\n        /* \"#utility.yul\":2157:2245   */\n      iszero\n      tag_95\n      jumpi\n        /* \"#utility.yul\":2225:2243   */\n      tag_96\n      tag_48\n      jump\t// in\n    tag_96:\n        /* \"#utility.yul\":2157:2245   */\n    tag_95:\n        /* \"#utility.yul\":2265:2275   */\n      dup1\n        /* \"#utility.yul\":2261:2263   */\n      0x40\n        /* \"#utility.yul\":2254:2276   */\n      mstore\n        /* \"#utility.yul\":2044:2282   */\n      pop\n        /* \"#utility.yul\":2001:2282   */\n      pop\n      pop\n      jump\t// out\n        /* \"#utility.yul\":2288:2417   */\n    tag_50:\n        /* \"#utility.yul\":2322:2328   */\n      0x00\n        /* \"#utility.yul\":2349:2369   */\n      tag_98\n      tag_43\n      jump\t// in\n    tag_98:\n        /* \"#utility.yul\":2339:2369   */\n      swap1\n      pop\n        /* \"#utility.yul\":2378:2411   */\n      tag_99\n        /* \"#utility.yul\":2406:2410   */\n      dup3\n        /* \"#utility.yul\":2398:2404   */\n      dup3\n        /* \"#utility.yul\":2378:2411   */\n      tag_49\n      jump\t// in\n    tag_99:\n        /* \"#utility.yul\":2288:2417   */\n      swap2\n      swap1\n      pop\n      jump\t// out\n        /* \"#utility.yul\":2423:2731   */\n    tag_51:\n        /* \"#utility.yul\":2485:2489   */\n      0x00\n        /* \"#utility.yul\":2575:2593   */\n      0xffffffffffffffff\n        /* \"#utility.yul\":2567:2573   */\n      dup3\n        /* \"#utility.yul\":2564:2594   */\n      gt\n        /* \"#utility.yul\":2561:2617   */\n      iszero\n      tag_101\n      jumpi\n        /* \"#utility.yul\":2597:2615   */\n      tag_102\n      tag_48\n      jump\t// in\n    tag_102:\n        /* \"#utility.yul\":2561:2617   */\n    tag_101:\n        /* \"#utility.yul\":2635:2664   */\n      tag_103\n        /* \"#utility.yul\":2657:2663   */\n      dup3\n        /* \"#utility.yul\":2635:2664   */\n      tag_41\n      jump\t// in\n    tag_103:\n        /* \"#utility.yul\":2627:2664   */\n      swap1\n      pop\n        /* \"#utility.yul\":2719:2723   */\n      0x20\n        /* \"#utility.yul\":2713:2717   */\n      dup2\n        /* \"#utility.yul\":2709:2724   */\n      add\n        /* \"#utility.yul\":2701:2724   */\n      swap1\n      pop\n        /* \"#utility.yul\":2423:2731   */\n      swap2\n      swap1\n      pop\n      jump\t// out\n        /* \"#utility.yul\":2737:2885   */\n    tag_52:\n        /* \"#utility.yul\":2835:2841   */\n      dup3\n        /* \"#utility.yul\":2830:2833   */\n      dup2\n        /* \"#utility.yul\":2825:2828   */\n      dup4\n        /* \"#utility.yul\":2812:2842   */\n      calldatacopy\n        /* \"#utility.yul\":2876:2877   */\n      0x00\n        /* \"#utility.yul\":2867:2873   */\n      dup4\n        /* \"#utility.yul\":2862:2865   */\n      dup4\n        /* \"#utility.yul\":2858:2874   */\n      add\n        /* \"#utility.yul\":2851:2878   */\n      mstore\n        /* \"#utility.yul\":2737:2885   */\n      pop\n      pop\n      pop\n      jump\t// out\n        /* \"#utility.yul\":2891:3316   */\n    tag_53:\n        /* \"#utility.yul\":2969:2974   */\n      0x00\n        /* \"#utility.yul\":2994:3060   */\n      tag_106\n        /* \"#utility.yul\":3010:3059   */\n      tag_107\n        /* \"#utility.yul\":3052:3058   */\n      dup5\n        /* \"#utility.yul\":3010:3059   */\n      tag_51\n      jump\t// in\n    tag_107:\n        /* \"#utility.yul\":2994:3060   */\n      tag_50\n      jump\t// in\n    tag_106:\n        /* \"#utility.yul\":2985:3060   */\n      swap1\n      pop\n        /* \"#utility.yul\":3083:3089   */\n      dup3\n        /* \"#utility.yul\":3076:3081   */\n      dup2\n        /* \"#utility.yul\":3069:3090   */\n      mstore\n        /* \"#utility.yul\":3121:3125   */\n      0x20\n        /* \"#utility.yul\":3114:3119   */\n      dup2\n        /* \"#utility.yul\":3110:3126   */\n      add\n        /* \"#utility.yul\":3159:3162   */\n      dup5\n        /* \"#utility.yul\":3150:3156   */\n      dup5\n        /* \"#utility.yul\":3145:3148   */\n      dup5\n        /* \"#utility.yul\":3141:3157   */\n      add\n        /* \"#utility.yul\":3138:3163   */\n      gt\n        /* \"#utility.yul\":3135:3247   */\n      iszero\n      tag_108\n      jumpi\n        /* \"#utility.yul\":3166:3245   */\n      tag_109\n      tag_47\n      jump\t// in\n    tag_109:\n        /* \"#utility.yul\":3135:3247   */\n    tag_108:\n        /* \"#utility.yul\":3256:3310   */\n      tag_110\n        /* \"#utility.yul\":3303:3309   */\n      dup5\n        /* \"#utility.yul\":3298:3301   */\n      dup3\n        /* \"#utility.yul\":3293:3296   */\n      dup6\n        /* \"#utility.yul\":3256:3310   */\n      tag_52\n      jump\t// in\n    tag_110:\n        /* \"#utility.yul\":2975:3316   */\n      pop\n        /* \"#utility.yul\":2891:3316   */\n      swap4\n      swap3\n      pop\n      pop\n      pop\n      jump\t// out\n        /* \"#utility.yul\":3336:3676   */\n    tag_54:\n        /* \"#utility.yul\":3392:3397   */\n      0x00\n        /* \"#utility.yul\":3441:3444   */\n      dup3\n        /* \"#utility.yul\":3434:3438   */\n      0x1f\n        /* \"#utility.yul\":3426:3432   */\n      dup4\n        /* \"#utility.yul\":3422:3439   */\n      add\n        /* \"#utility.yul\":3418:3445   */\n      slt\n        /* \"#utility.yul\":3408:3530   */\n      tag_112\n      jumpi\n        /* \"#utility.yul\":3449:3528   */\n      tag_113\n      tag_46\n      jump\t// in\n    tag_113:\n        /* \"#utility.yul\":3408:3530   */\n    tag_112:\n        /* \"#utility.yul\":3566:3572   */\n      dup2\n        /* \"#utility.yul\":3553:3573   */\n      calldataload\n        /* \"#utility.yul\":3591:3670   */\n      tag_114\n        /* \"#utility.yul\":3666:3669   */\n      dup5\n        /* \"#utility.yul\":3658:3664   */\n      dup3\n        /* \"#utility.yul\":3651:3655   */\n      0x20\n        /* \"#utility.yul\":3643:3649   */\n      dup7\n        /* \"#utility.yul\":3639:3656   */\n      add\n        /* \"#utility.yul\":3591:3670   */\n      tag_53\n      jump\t// in\n    tag_114:\n        /* \"#utility.yul\":3582:3670   */\n      swap2\n      pop\n        /* \"#utility.yul\":3398:3676   */\n      pop\n        /* \"#utility.yul\":3336:3676   */\n      swap3\n      swap2\n      pop\n      pop\n      jump\t// out\n        /* \"#utility.yul\":3682:3759   */\n    tag_55:\n        /* \"#utility.yul\":3719:3726   */\n      0x00\n        /* \"#utility.yul\":3748:3753   */\n      dup2\n        /* \"#utility.yul\":3737:3753   */\n      swap1\n      pop\n        /* \"#utility.yul\":3682:3759   */\n      swap2\n      swap1\n      pop\n      jump\t// out\n        /* \"#utility.yul\":3765:3887   */\n    tag_56:\n        /* \"#utility.yul\":3838:3862   */\n      tag_117\n        /* \"#utility.yul\":3856:3861   */\n      dup2\n        /* \"#utility.yul\":3838:3862   */\n      tag_55\n      jump\t// in\n    tag_117:\n        /* \"#utility.yul\":3831:3836   */\n      dup2\n        /* \"#utility.yul\":3828:3863   */\n      eq\n        /* \"#utility.yul\":3818:3881   */\n      tag_118\n      jumpi\n        /* \"#utility.yul\":3877:3878   */\n      0x00\n        /* \"#utility.yul\":3874:3875   */\n      0x00\n        /* \"#utility.yul\":3867:3879   */\n      revert\n        /* \"#utility.yul\":3818:3881   */\n    tag_118:\n        /* \"#utility.yul\":3765:3887   */\n      pop\n      jump\t// out\n        /* \"#utility.yul\":3893:4032   */\n    tag_57:\n        /* \"#utility.yul\":3939:3944   */\n      0x00\n        /* \"#utility.yul\":3977:3983   */\n      dup2\n        /* \"#utility.yul\":3964:3984   */\n      calldataload\n        /* \"#utility.yul\":3955:3984   */\n      swap1\n      pop\n        /* \"#utility.yul\":3993:4026   */\n      tag_120\n        /* \"#utility.yul\":4020:4025   */\n      dup2\n        /* \"#utility.yul\":3993:4026   */\n      tag_56\n      jump\t// in\n    tag_120:\n        /* \"#utility.yul\":3893:4032   */\n      swap3\n      swap2\n      pop\n      pop\n      jump\t// out\n        /* \"#utility.yul\":4038:4692   */\n    tag_13:\n        /* \"#utility.yul\":4116:4122   */\n      0x00\n        /* \"#utility.yul\":4124:4130   */\n      0x00\n        /* \"#utility.yul\":4173:4175   */\n      0x40\n        /* \"#utility.yul\":4161:4170   */\n      dup4\n        /* \"#utility.yul\":4152:4159   */\n      dup6\n        /* \"#utility.yul\":4148:4171   */\n      sub\n        /* \"#utility.yul\":4144:4176   */\n      slt\n        /* \"#utility.yul\":4141:4260   */\n      iszero\n      tag_122\n      jumpi\n        /* \"#utility.yul\":4179:4258   */\n      tag_123\n      tag_44\n      jump\t// in\n    tag_123:\n        /* \"#utility.yul\":4141:4260   */\n    tag_122:\n        /* \"#utility.yul\":4327:4328   */\n      0x00\n        /* \"#utility.yul\":4316:4325   */\n      dup4\n        /* \"#utility.yul\":4312:4329   */\n      add\n        /* \"#utility.yul\":4299:4330   */\n      calldataload\n        /* \"#utility.yul\":4357:4375   */\n      0xffffffffffffffff\n        /* \"#utility.yul\":4349:4355   */\n      dup2\n        /* \"#utility.yul\":4346:4376   */\n      gt\n        /* \"#utility.yul\":4343:4460   */\n      iszero\n      tag_124\n      jumpi\n        /* \"#utility.yul\":4379:4458   */\n      tag_125\n      tag_45\n      jump\t// in\n    tag_125:\n        /* \"#utility.yul\":4343:4460   */\n    tag_124:\n        /* \"#utility.yul\":4484:4547   */\n      tag_126\n        /* \"#utility.yul\":4539:4546   */\n      dup6\n        /* \"#utility.yul\":4530:4536   */\n      dup3\n        /* \"#utility.yul\":4519:4528   */\n      dup7\n        /* \"#utility.yul\":4515:4537   */\n      add\n        /* \"#utility.yul\":4484:4547   */\n      tag_54\n      jump\t// in\n    tag_126:\n        /* \"#utility.yul\":4474:4547   */\n      swap3\n      pop\n        /* \"#utility.yul\":4270:4557   */\n      pop\n        /* \"#utility.yul\":4596:4598   */\n      0x20\n        /* \"#utility.yul\":4622:4675   */\n      tag_127\n        /* \"#utility.yul\":4667:4674   */\n      dup6\n        /* \"#utility.yul\":4658:4664   */\n      dup3\n        /* \"#utility.yul\":4647:4656   */\n      dup7\n        /* \"#utility.yul\":4643:4665   */\n      add\n        /* \"#utility.yul\":4622:4675   */\n      tag_57\n      jump\t// in\n    tag_127:\n        /* \"#utility.yul\":4612:4675   */\n      swap2\n      pop\n        /* \"#utility.yul\":4567:4685   */\n      pop\n        /* \"#utility.yul\":4038:4692   */\n      swap3\n      pop\n      swap3\n      swap1\n      pop\n      jump\t// out\n        /* \"#utility.yul\":4698:4816   */\n    tag_58:\n        /* \"#utility.yul\":4785:4809   */\n      tag_129\n        /* \"#utility.yul\":4803:4808   */\n      dup2\n        /* \"#utility.yul\":4785:4809   */\n      tag_55\n      jump\t// in\n    tag_129:\n        /* \"#utility.yul\":4780:4783   */\n      dup3\n        /* \"#utility.yul\":4773:4810   */\n      mstore\n        /* \"#utility.yul\":4698:4816   */\n      pop\n      pop\n      jump\t// out\n        /* \"#utility.yul\":4822:5044   */\n    tag_18:\n        /* \"#utility.yul\":4915:4919   */\n      0x00\n        /* \"#utility.yul\":4953:4955   */\n      0x20\n        /* \"#utility.yul\":4942:4951   */\n      dup3\n        /* \"#utility.yul\":4938:4956   */\n      add\n        /* \"#utility.yul\":4930:4956   */\n      swap1\n      pop\n        /* \"#utility.yul\":4966:5037   */\n      tag_131\n        /* \"#utility.yul\":5034:5035   */\n      0x00\n        /* \"#utility.yul\":5023:5032   */\n      dup4\n        /* \"#utility.yul\":5019:5036   */\n      add\n        /* \"#utility.yul\":5010:5016   */\n      dup5\n        /* \"#utility.yul\":4966:5037   */\n      tag_58\n      jump\t// in\n    tag_131:\n        /* \"#utility.yul\":4822:5044   */\n      swap3\n      swap2\n      pop\n      pop\n      jump\t// out\n        /* \"#utility.yul\":5050:5473   */\n    tag_22:\n        /* \"#utility.yul\":5191:5195   */\n      0x00\n        /* \"#utility.yul\":5229:5231   */\n      0x40\n        /* \"#utility.yul\":5218:5227   */\n      dup3\n        /* \"#utility.yul\":5214:5232   */\n      add\n        /* \"#utility.yul\":5206:5232   */\n      swap1\n      pop\n        /* \"#utility.yul\":5278:5287   */\n      dup2\n        /* \"#utility.yul\":5272:5276   */\n      dup2\n        /* \"#utility.yul\":5268:5288   */\n      sub\n        /* \"#utility.yul\":5264:5265   */\n      0x00\n        /* \"#utility.yul\":5253:5262   */\n      dup4\n        /* \"#utility.yul\":5249:5266   */\n      add\n        /* \"#utility.yul\":5242:5289   */\n      mstore\n        /* \"#utility.yul\":5306:5384   */\n      tag_133\n        /* \"#utility.yul\":5379:5383   */\n      dup2\n        /* \"#utility.yul\":5370:5376   */\n      dup6\n        /* \"#utility.yul\":5306:5384   */\n      tag_42\n      jump\t// in\n    tag_133:\n        /* \"#utility.yul\":5298:5384   */\n      swap1\n      pop\n        /* \"#utility.yul\":5394:5466   */\n      tag_134\n        /* \"#utility.yul\":5462:5464   */\n      0x20\n        /* \"#utility.yul\":5451:5460   */\n      dup4\n        /* \"#utility.yul\":5447:5465   */\n      add\n        /* \"#utility.yul\":5438:5444   */\n      dup5\n        /* \"#utility.yul\":5394:5466   */\n      tag_58\n      jump\t// in\n    tag_134:\n        /* \"#utility.yul\":5050:5473   */\n      swap4\n      swap3\n      pop\n      pop\n      pop\n      jump\t// out\n        /* \"#utility.yul\":5479:5659   */\n    tag_59:\n        /* \"#utility.yul\":5527:5604   */\n      0x4e487b7100000000000000000000000000000000000000000000000000000000\n        /* \"#utility.yul\":5524:5525   */\n      0x00\n        /* \"#utility.yul\":5517:5605   */\n      mstore\n        /* \"#utility.yul\":5624:5628   */\n      0x22\n        /* \"#utility.yul\":5621:5622   */\n      0x04\n        /* \"#utility.yul\":5614:5629   */\n      mstore\n        /* \"#utility.yul\":5648:5652   */\n      0x24\n        /* \"#utility.yul\":5645:5646   */\n      0x00\n        /* \"#utility.yul\":5638:5653   */\n      revert\n        /* \"#utility.yul\":5665:5985   */\n    tag_24:\n        /* \"#utility.yul\":5709:5715   */\n      0x00\n        /* \"#utility.yul\":5746:5747   */\n      0x02\n        /* \"#utility.yul\":5740:5744   */\n      dup3\n        /* \"#utility.yul\":5736:5748   */\n      div\n        /* \"#utility.yul\":5726:5748   */\n      swap1\n      pop\n        /* \"#utility.yul\":5793:5794   */\n      0x01\n        /* \"#utility.yul\":5787:5791   */\n      dup3\n        /* \"#utility.yul\":5783:5795   */\n      and\n        /* \"#utility.yul\":5814:5832   */\n      dup1\n        /* \"#utility.yul\":5804:5885   */\n      tag_137\n      jumpi\n        /* \"#utility.yul\":5870:5874   */\n      0x7f\n        /* \"#utility.yul\":5862:5868   */\n      dup3\n        /* \"#utility.yul\":5858:5875   */\n      and\n        /* \"#utility.yul\":5848:5875   */\n      swap2\n      pop\n        /* \"#utility.yul\":5804:5885   */\n    tag_137:\n        /* \"#utility.yul\":5932:5934   */\n      0x20\n        /* \"#utility.yul\":5924:5930   */\n      dup3\n        /* \"#utility.yul\":5921:5935   */\n      lt\n        /* \"#utility.yul\":5901:5919   */\n      dup2\n        /* \"#utility.yul\":5898:5936   */\n      sub\n        /* \"#utility.yul\":5895:5979   */\n      tag_138\n      jumpi\n        /* \"#utility.yul\":5951:5969   */\n      tag_139\n      tag_59\n      jump\t// in\n    tag_139:\n        /* \"#utility.yul\":5895:5979   */\n    tag_138:\n        /* \"#utility.yul\":5716:5985   */\n      pop\n        /* \"#utility.yul\":5665:5985   */\n      swap2\n      swap1\n      pop\n      jump\t// out\n        /* \"#utility.yul\":5991:6132   */\n    tag_60:\n        /* \"#utility.yul\":6040:6044   */\n      0x00\n        /* \"#utility.yul\":6063:6066   */\n      dup2\n        /* \"#utility.yul\":6055:6066   */\n      swap1\n      pop\n        /* \"#utility.yul\":6086:6089   */\n      dup2\n        /* \"#utility.yul\":6083:6084   */\n      0x00\n        /* \"#utility.yul\":6076:6090   */\n      mstore\n        /* \"#utility.yul\":6120:6124   */\n      0x20\n        /* \"#utility.yul\":6117:6118   */\n      0x00\n        /* \"#utility.yul\":6107:6125   */\n      keccak256\n        /* \"#utility.yul\":6099:6125   */\n      swap1\n      pop\n        /* \"#utility.yul\":5991:6132   */\n      swap2\n      swap1\n      pop\n      jump\t// out\n        /* \"#utility.yul\":6138:6231   */\n    tag_61:\n        /* \"#utility.yul\":6175:6181   */\n      0x00\n        /* \"#utility.yul\":6222:6224   */\n      0x20\n        /* \"#utility.yul\":6217:6219   */\n      0x1f\n        /* \"#utility.yul\":6210:6215   */\n      dup4\n        /* \"#utility.yul\":6206:6220   */\n      add\n        /* \"#utility.yul\":6202:6225   */\n      div\n        /* \"#utility.yul\":6192:6225   */\n      swap1\n      pop\n        /* \"#utility.yul\":6138:6231   */\n      swap2\n      swap1\n      pop\n      jump\t// out\n        /* \"#utility.yul\":6237:6344   */\n    tag_62:\n        /* \"#utility.yul\":6281:6289   */\n      0x00\n        /* \"#utility.yul\":6331:6336   */\n      dup3\n        /* \"#utility.yul\":6325:6329   */\n      dup3\n        /* \"#utility.yul\":6321:6337   */\n      shl\n        /* \"#utility.yul\":6300:6337   */\n      swap1\n      pop\n        /* \"#utility.yul\":6237:6344   */\n      swap3\n      swap2\n      pop\n      pop\n      jump\t// out\n        /* \"#utility.yul\":6350:6743   */\n    tag_63:\n        /* \"#utility.yul\":6419:6425   */\n      0x00\n        /* \"#utility.yul\":6469:6470   */\n      0x08\n        /* \"#utility.yul\":6457:6467   */\n      dup4\n        /* \"#utility.yul\":6453:6471   */\n      mul\n        /* \"#utility.yul\":6492:6589   */\n      tag_144\n        /* \"#utility.yul\":6522:6588   */\n      0xffffffffffffffffffffffffffffffffffffffffffffffffffffffffffffffff\n        /* \"#utility.yul\":6511:6520   */\n      dup3\n        /* \"#utility.yul\":6492:6589   */\n      tag_62\n      jump\t// in\n    tag_144:\n        /* \"#utility.yul\":6610:6649   */\n      tag_145\n        /* \"#utility.yul\":6640:6648   */\n      dup7\n        /* \"#utility.yul\":6629:6638   */\n      dup4\n        /* \"#utility.yul\":6610:6649   */\n      tag_62\n      jump\t// in\n    tag_145:\n        /* \"#utility.yul\":6598:6649   */\n      swap6\n      pop\n        /* \"#utility.yul\":6682:6686   */\n      dup1\n        /* \"#utility.yul\":6678:6687   */\n      not\n        /* \"#utility.yul\":6671:6676   */\n      dup5\n        /* \"#utility.yul\":6667:6688   */\n      and\n        /* \"#utility.yul\":6658:6688   */\n      swap4\n      pop\n        /* \"#utility.yul\":6731:6735   */\n      dup1\n        /* \"#utility.yul\":6721:6729   */\n      dup7\n        /* \"#utility.yul\":6717:6736   */\n      and\n        /* \"#utility.yul\":6710:6715   */\n      dup5\n        /* \"#utility.yul\":6707:6737   */\n      or\n        /* \"#utility.yul\":6697:6737   */\n      swap3\n      pop\n        /* \"#utility.yul\":6426:6743   */\n      pop\n      pop\n        /* \"#utility.yul\":6350:6743   */\n      swap4\n      swap3\n      pop\n      pop\n      pop\n      jump\t// out\n        /* \"#utility.yul\":6749:6809   */\n    tag_64:\n        /* \"#utility.yul\":6777:6780   */\n      0x00\n        /* \"#utility.yul\":6798:6803   */\n      dup2\n        /* \"#utility.yul\":6791:6803   */\n      swap1\n      pop\n        /* \"#utility.yul\":6749:6809   */\n      swap2\n      swap1\n      pop\n      jump\t// out\n        /* \"#utility.yul\":6815:6957   */\n    tag_65:\n        /* \"#utility.yul\":6865:6874   */\n      0x00\n        /* \"#utility.yul\":6898:6951   */\n      tag_148\n        /* \"#utility.yul\":6916:6950   */\n      tag_149\n        /* \"#utility.yul\":6925:6949   */\n      tag_150\n        /* \"#utility.yul\":6943:6948   */\n      dup5\n        /* \"#utility.yul\":6925:6949   */\n      tag_55\n      jump\t// in\n    tag_150:\n        /* \"#utility.yul\":6916:6950   */\n      tag_64\n      jump\t// in\n    tag_149:\n        /* \"#utility.yul\":6898:6951   */\n      tag_55\n      jump\t// in\n    tag_148:\n        /* \"#utility.yul\":6885:6951   */\n      swap1\n      pop\n        /* \"#utility.yul\":6815:6957   */\n      swap2\n      swap1\n      pop\n      jump\t// out\n        /* \"#utility.yul\":6963:7038   */\n    tag_66:\n        /* \"#utility.yul\":7006:7009   */\n      0x00\n        /* \"#utility.yul\":7027:7032   */\n      dup2\n        /* \"#utility.yul\":7020:7032   */\n      swap1\n      pop\n        /* \"#utility.yul\":6963:7038   */\n      swap2\n      swap1\n      pop\n      jump\t// out\n        /* \"#utility.yul\":7044:7313   */\n    tag_67:\n        /* \"#utility.yul\":7154:7193   */\n      tag_153\n        /* \"#utility.yul\":7185:7192   */\n      dup4\n        /* \"#utility.yul\":7154:7193   */\n      tag_65\n      jump\t// in\n    tag_153:\n        /* \"#utility.yul\":7215:7306   */\n      tag_154\n        /* \"#utility.yul\":7264:7305   */\n      tag_155\n        /* \"#utility.yul\":7288:7304   */\n      dup3\n        /* \"#utility.yul\":7264:7305   */\n      tag_66\n      jump\t// in\n    tag_155:\n        /* \"#utility.yul\":7256:7262   */\n      dup5\n        /* \"#utility.yul\":7249:7253   */\n      dup5\n        /* \"#utility.yul\":7243:7254   */\n      sload\n        /* \"#utility.yul\":7215:7306   */\n      tag_63\n      jump\t// in\n    tag_154:\n        /* \"#utility.yul\":7209:7213   */\n      dup3\n        /* \"#utility.yul\":7202:7307   */\n      sstore\n        /* \"#utility.yul\":7120:7313   */\n      pop\n        /* \"#utility.yul\":7044:7313   */\n      pop\n      pop\n      pop\n      jump\t// out\n        /* \"#utility.yul\":7319:7392   */\n    tag_68:\n        /* \"#utility.yul\":7364:7367   */\n      0x00\n        /* \"#utility.yul\":7385:7386   */\n      0x00\n        /* \"#utility.yul\":7378:7386   */\n      swap1\n      pop\n        /* \"#utility.yul\":7319:7392   */\n      swap1\n      jump\t// out\n        /* \"#utility.yul\":7398:7587   */\n    tag_69:\n        /* \"#utility.yul\":7475:7507   */\n      tag_158\n      tag_68\n      jump\t// in\n    tag_158:\n        /* \"#utility.yul\":7516:7581   */\n      tag_159\n        /* \"#utility.yul\":7574:7580   */\n      dup2\n        /* \"#utility.yul\":7566:7572   */\n      dup5\n        /* \"#utility.yul\":7560:7564   */\n      dup5\n        /* \"#utility.yul\":7516:7581   */\n      tag_67\n      jump\t// in\n    tag_159:\n        /* \"#utility.yul\":7451:7587   */\n      pop\n        /* \"#utility.yul\":7398:7587   */\n      pop\n      pop\n      jump\t// out\n        /* \"#utility.yul\":7593:7779   */\n    tag_70:\n        /* \"#utility.yul\":7653:7773   */\n    tag_161:\n        /* \"#utility.yul\":7670:7673   */\n      dup2\n        /* \"#utility.yul\":7663:7668   */\n      dup2\n        /* \"#utility.yul\":7660:7674   */\n      lt\n        /* \"#utility.yul\":7653:7773   */\n      iszero\n      tag_163\n      jumpi\n        /* \"#utility.yul\":7724:7763   */\n      tag_164\n        /* \"#utility.yul\":7761:7762   */\n      0x00\n        /* \"#utility.yul\":7754:7759   */\n      dup3\n        /* \"#utility.yul\":7724:7763   */\n      tag_69\n      jump\t// in\n    tag_164:\n        /* \"#utility.yul\":7697:7698   */\n      0x01\n        /* \"#utility.yul\":7690:7695   */\n      dup2\n        /* \"#utility.yul\":7686:7699   */\n      add\n        /* \"#utility.yul\":7677:7699   */\n      swap1\n      pop\n        /* \"#utility.yul\":7653:7773   */\n      jump(tag_161)\n    tag_163:\n        /* \"#utility.yul\":7593:7779   */\n      pop\n      pop\n      jump\t// out\n        /* \"#utility.yul\":7785:8328   */\n    tag_71:\n        /* \"#utility.yul\":7886:7888   */\n      0x1f\n        /* \"#utility.yul\":7881:7884   */\n      dup3\n        /* \"#utility.yul\":7878:7889   */\n      gt\n        /* \"#utility.yul\":7875:8321   */\n      iszero\n      tag_166\n      jumpi\n        /* \"#utility.yul\":7920:7958   */\n      tag_167\n        /* \"#utility.yul\":7952:7957   */\n      dup2\n        /* \"#utility.yul\":7920:7958   */\n      tag_60\n      jump\t// in\n    tag_167:\n        /* \"#utility.yul\":8004:8033   */\n      tag_168\n        /* \"#utility.yul\":8022:8032   */\n      dup5\n        /* \"#utility.yul\":8004:8033   */\n      tag_61\n      jump\t// in\n    tag_168:\n        /* \"#utility.yul\":7994:8002   */\n      dup2\n        /* \"#utility.yul\":7990:8034   */\n      add\n        /* \"#utility.yul\":8187:8189   */\n      0x20\n        /* \"#utility.yul\":8175:8185   */\n      dup6\n        /* \"#utility.yul\":8172:8190   */\n      lt\n        /* \"#utility.yul\":8169:8218   */\n      iszero\n      tag_169\n      jumpi\n        /* \"#utility.yul\":8208:8216   */\n      dup2\n        /* \"#utility.yul\":8193:8216   */\n      swap1\n      pop\n        /* \"#utility.yul\":8169:8218   */\n    tag_169:\n        /* \"#utility.yul\":8231:8311   */\n      tag_170\n        /* \"#utility.yul\":8287:8309   */\n      tag_171\n        /* \"#utility.yul\":8305:8308   */\n      dup6\n        /* \"#utility.yul\":8287:8309   */\n      tag_61\n      jump\t// in\n    tag_171:\n        /* \"#utility.yul\":8277:8285   */\n      dup4\n        /* \"#utility.yul\":8273:8310   */\n      add\n        /* \"#utility.yul\":8260:8271   */\n      dup3\n        /* \"#utility.yul\":8231:8311   */\n      tag_70\n      jump\t// in\n    tag_170:\n        /* \"#utility.yul\":7890:8321   */\n      pop\n      pop\n        /* \"#utility.yul\":7875:8321   */\n    tag_166:\n        /* \"#utility.yul\":7785:8328   */\n      pop\n      pop\n      pop\n      jump\t// out\n        /* \"#utility.yul\":8334:8451   */\n    tag_72:\n        /* \"#utility.yul\":8388:8396   */\n      0x00\n        /* \"#utility.yul\":8438:8443   */\n      dup3\n        /* \"#utility.yul\":8432:8436   */\n      dup3\n        /* \"#utility.yul\":8428:8444   */\n      shr\n        /* \"#utility.yul\":8407:8444   */\n      swap1\n      pop\n        /* \"#utility.yul\":8334:8451   */\n      swap3\n      swap2\n      pop\n      pop\n      jump\t// out\n        /* \"#utility.yul\":8457:8626   */\n    tag_73:\n        /* \"#utility.yul\":8501:8507   */\n      0x00\n        /* \"#utility.yul\":8534:8585   */\n      tag_174\n        /* \"#utility.yul\":8582:8583   */\n      0x00\n        /* \"#utility.yul\":8578:8584   */\n      not\n        /* \"#utility.yul\":8570:8575   */\n      dup5\n        /* \"#utility.yul\":8567:8568   */\n      0x08\n        /* \"#utility.yul\":8563:8576   */\n      mul\n        /* \"#utility.yul\":8534:8585   */\n      tag_72\n      jump\t// in\n    tag_174:\n        /* \"#utility.yul\":8530:8586   */\n      not\n        /* \"#utility.yul\":8615:8619   */\n      dup1\n        /* \"#utility.yul\":8609:8613   */\n      dup4\n        /* \"#utility.yul\":8605:8620   */\n      and\n        /* \"#utility.yul\":8595:8620   */\n      swap2\n      pop\n        /* \"#utility.yul\":8508:8626   */\n      pop\n        /* \"#utility.yul\":8457:8626   */\n      swap3\n      swap2\n      pop\n      pop\n      jump\t// out\n        /* \"#utility.yul\":8631:8926   */\n    tag_74:\n        /* \"#utility.yul\":8707:8711   */\n      0x00\n        /* \"#utility.yul\":8853:8882   */\n      tag_176\n        /* \"#utility.yul\":8878:8881   */\n      dup4\n        /* \"#utility.yul\":8872:8876   */\n      dup4\n        /* \"#utility.yul\":8853:8882   */\n      tag_73\n      jump\t// in\n    tag_176:\n        /* \"#utility.yul\":8845:8882   */\n      swap2\n      pop\n        /* \"#utility.yul\":8915:8918   */\n      dup3\n        /* \"#utility.yul\":8912:8913   */\n      0x02\n        /* \"#utility.yul\":8908:8919   */\n      mul\n        /* \"#utility.yul\":8902:8906   */\n      dup3\n        /* \"#utility.yul\":8899:8920   */\n      or\n        /* \"#utility.yul\":8891:8920   */\n      swap1\n      pop\n        /* \"#utility.yul\":8631:8926   */\n      swap3\n      swap2\n      pop\n      pop\n      jump\t// out\n        /* \"#utility.yul\":8931:10326   */\n    tag_31:\n        /* \"#utility.yul\":9048:9085   */\n      tag_178\n        /* \"#utility.yul\":9081:9084   */\n      dup3\n        /* \"#utility.yul\":9048:9085   */\n      tag_38\n      jump\t// in\n    tag_178:\n        /* \"#utility.yul\":9150:9168   */\n      0xffffffffffffffff\n        /* \"#utility.yul\":9142:9148   */\n      dup2\n        /* \"#utility.yul\":9139:9169   */\n      gt\n        /* \"#utility.yul\":9136:9192   */\n      iszero\n      tag_179\n      jumpi\n        /* \"#utility.yul\":9172:9190   */\n      tag_180\n      tag_48\n      jump\t// in\n    tag_180:\n        /* \"#utility.yul\":9136:9192   */\n    tag_179:\n        /* \"#utility.yul\":9216:9254   */\n      tag_181\n        /* \"#utility.yul\":9248:9252   */\n      dup3\n        /* \"#utility.yul\":9242:9253   */\n      sload\n        /* \"#utility.yul\":9216:9254   */\n      tag_24\n      jump\t// in\n    tag_181:\n        /* \"#utility.yul\":9301:9368   */\n      tag_182\n        /* \"#utility.yul\":9361:9367   */\n      dup3\n        /* \"#utility.yul\":9353:9359   */\n      dup3\n        /* \"#utility.yul\":9347:9351   */\n      dup6\n        /* \"#utility.yul\":9301:9368   */\n      tag_71\n      jump\t// in\n    tag_182:\n        /* \"#utility.yul\":9395:9396   */\n      0x00\n        /* \"#utility.yul\":9419:9423   */\n      0x20\n        /* \"#utility.yul\":9406:9423   */\n      swap1\n      pop\n        /* \"#utility.yul\":9451:9453   */\n      0x1f\n        /* \"#utility.yul\":9443:9449   */\n      dup4\n        /* \"#utility.yul\":9440:9454   */\n      gt\n        /* \"#utility.yul\":9468:9469   */\n      0x01\n        /* \"#utility.yul\":9463:10081   */\n      dup2\n      eq\n      tag_184\n      jumpi\n        /* \"#utility.yul\":10125:10126   */\n      0x00\n        /* \"#utility.yul\":10142:10148   */\n      dup5\n        /* \"#utility.yul\":10139:10216   */\n      iszero\n      tag_185\n      jumpi\n        /* \"#utility.yul\":10191:10200   */\n      dup3\n        /* \"#utility.yul\":10186:10189   */\n      dup8\n        /* \"#utility.yul\":10182:10201   */\n      add\n        /* \"#utility.yul\":10176:10202   */\n      mload\n        /* \"#utility.yul\":10167:10202   */\n      swap1\n      pop\n        /* \"#utility.yul\":10139:10216   */\n    tag_185:\n        /* \"#utility.yul\":10242:10309   */\n      tag_186\n        /* \"#utility.yul\":10302:10308   */\n      dup6\n        /* \"#utility.yul\":10295:10300   */\n      dup3\n        /* \"#utility.yul\":10242:10309   */\n      tag_74\n      jump\t// in\n    tag_186:\n        /* \"#utility.yul\":10236:10240   */\n      dup7\n        /* \"#utility.yul\":10229:10310   */\n      sstore\n        /* \"#utility.yul\":10098:10320   */\n      pop\n        /* \"#utility.yul\":9433:10320   */\n      jump(tag_183)\n        /* \"#utility.yul\":9463:10081   */\n    tag_184:\n        /* \"#utility.yul\":9515:9519   */\n      0x1f\n        /* \"#utility.yul\":9511:9520   */\n      not\n        /* \"#utility.yul\":9503:9509   */\n      dup5\n        /* \"#utility.yul\":9499:9521   */\n      and\n        /* \"#utility.yul\":9549:9586   */\n      tag_187\n        /* \"#utility.yul\":9581:9585   */\n      dup7\n        /* \"#utility.yul\":9549:9586   */\n      tag_60\n      jump\t// in\n    tag_187:\n        /* \"#utility.yul\":9608:9609   */\n      0x00\n        /* \"#utility.yul\":9622:9830   */\n    tag_188:\n        /* \"#utility.yul\":9636:9643   */\n      dup3\n        /* \"#utility.yul\":9633:9634   */\n      dup2\n        /* \"#utility.yul\":9630:9644   */\n      lt\n        /* \"#utility.yul\":9622:9830   */\n      iszero\n      tag_190\n      jumpi\n        /* \"#utility.yul\":9715:9724   */\n      dup5\n        /* \"#utility.yul\":9710:9713   */\n      dup10\n        /* \"#utility.yul\":9706:9725   */\n      add\n        /* \"#utility.yul\":9700:9726   */\n      mload\n        /* \"#utility.yul\":9692:9698   */\n      dup3\n        /* \"#utility.yul\":9685:9727   */\n      sstore\n        /* \"#utility.yul\":9766:9767   */\n      0x01\n        /* \"#utility.yul\":9758:9764   */\n      dup3\n        /* \"#utility.yul\":9754:9768   */\n      add\n        /* \"#utility.yul\":9744:9768   */\n      swap2\n      pop\n        /* \"#utility.yul\":9813:9815   */\n      0x20\n        /* \"#utility.yul\":9802:9811   */\n      dup6\n        /* \"#utility.yul\":9798:9816   */\n      add\n        /* \"#utility.yul\":9785:9816   */\n      swap5\n      pop\n        /* \"#utility.yul\":9659:9663   */\n      0x20\n        /* \"#utility.yul\":9656:9657   */\n      dup2\n        /* \"#utility.yul\":9652:9664   */\n      add\n        /* \"#utility.yul\":9647:9664   */\n      swap1\n      pop\n        /* \"#utility.yul\":9622:9830   */\n      jump(tag_188)\n    tag_190:\n        /* \"#utility.yul\":9858:9864   */\n      dup7\n        /* \"#utility.yul\":9849:9856   */\n      dup4\n        /* \"#utility.yul\":9846:9865   */\n      lt\n        /* \"#utility.yul\":9843:10022   */\n      iszero\n      tag_191\n      jumpi\n        /* \"#utility.yul\":9916:9925   */\n      dup5\n        /* \"#utility.yul\":9911:9914   */\n      dup10\n        /* \"#utility.yul\":9907:9926   */\n      add\n        /* \"#utility.yul\":9901:9927   */\n      mload\n        /* \"#utility.yul\":9959:10007   */\n      tag_192\n        /* \"#utility.yul\":10001:10005   */\n      0x1f\n        /* \"#utility.yul\":9993:9999   */\n      dup10\n        /* \"#utility.yul\":9989:10006   */\n      and\n        /* \"#utility.yul\":9978:9987   */\n      dup3\n        /* \"#utility.yul\":9959:10007   */\n      tag_73\n      jump\t// in\n    tag_192:\n        /* \"#utility.yul\":9951:9957   */\n      dup4\n        /* \"#utility.yul\":9944:10008   */\n      sstore\n        /* \"#utility.yul\":9866:10022   */\n      pop\n        /* \"#utility.yul\":9843:10022   */\n    tag_191:\n        /* \"#utility.yul\":10068:10069   */\n      0x01\n        /* \"#utility.yul\":10064:10065   */\n      0x02\n        /* \"#utility.yul\":10056:10062   */\n      dup9\n        /* \"#utility.yul\":10052:10066   */\n      mul\n        /* \"#utility.yul\":10048:10070   */\n      add\n        /* \"#utility.yul\":10042:10046   */\n      dup9\n        /* \"#utility.yul\":10035:10071   */\n      sstore\n        /* \"#utility.yul\":9470:10081   */\n      pop\n      pop\n      pop\n        /* \"#utility.yul\":9433:10320   */\n    tag_183:\n      pop\n        /* \"#utility.yul\":9023:10326   */\n      pop\n      pop\n      pop\n        /* \"#utility.yul\":8931:10326   */\n      pop\n      pop\n      jump\t// out\n\n    auxdata: 0xa26469706673582212205ab3961bcb4f643f012ea7735f088146c658c650457b964ac33ec13bc45d815064736f6c634300081e0033\n}\n",
				"bytecode": {
					"linkReferences": {},
					"object": "608060405234801561000f575f5ffd5b50604051610cc6380380610cc6833981810160405281019061003191906101ce565b815f908161003f919061042f565b508060018190555050506104fe565b5f604051905090565b5f5ffd5b5f5ffd5b5f5ffd5b5f5ffd5b5f601f19601f8301169050919050565b7f4e487b71000000000000000000000000000000000000000000000000000000005f52604160045260245ffd5b6100ad82610067565b810181811067ffffffffffffffff821117156100cc576100cb610077565b5b80604052505050565b5f6100de61004e565b90506100ea82826100a4565b919050565b5f67ffffffffffffffff82111561010957610108610077565b5b61011282610067565b9050602081019050919050565b8281835e5f83830152505050565b5f61013f61013a846100ef565b6100d5565b90508281526020810184848401111561015b5761015a610063565b5b61016684828561011f565b509392505050565b5f82601f8301126101825761018161005f565b5b815161019284826020860161012d565b91505092915050565b5f819050919050565b6101ad8161019b565b81146101b7575f5ffd5b50565b5f815190506101c8816101a4565b92915050565b5f5f604083850312156101e4576101e3610057565b5b5f83015167ffffffffffffffff8111156102015761020061005b565b5b61020d8582860161016e565b925050602061021e858286016101ba565b9150509250929050565b5f81519050919050565b7f4e487b71000000000000000000000000000000000000000000000000000000005f52602260045260245ffd5b5f600282049050600182168061027657607f821691505b60208210810361028957610288610232565b5b50919050565b5f819050815f5260205f209050919050565b5f6020601f8301049050919050565b5f82821b905092915050565b5f600883026102eb7fffffffffffffffffffffffffffffffffffffffffffffffffffffffffffffffff826102b0565b6102f586836102b0565b95508019841693508086168417925050509392505050565b5f819050919050565b5f61033061032b6103268461019b565b61030d565b61019b565b9050919050565b5f819050919050565b61034983610316565b61035d61035582610337565b8484546102bc565b825550505050565b5f5f905090565b610374610365565b61037f818484610340565b505050565b5b818110156103a2576103975f8261036c565b600181019050610385565b5050565b601f8211156103e7576103b88161028f565b6103c1846102a1565b810160208510156103d0578190505b6103e46103dc856102a1565b830182610384565b50505b505050565b5f82821c905092915050565b5f6104075f19846008026103ec565b1980831691505092915050565b5f61041f83836103f8565b9150826002028217905092915050565b61043882610228565b67ffffffffffffffff81111561045157610450610077565b5b61045b825461025f565b6104668282856103a6565b5f60209050601f831160018114610497575f8415610485578287015190505b61048f8582610414565b8655506104f6565b601f1984166104a58661028f565b5f5b828110156104cc578489015182556001820191506020850194506020810190506104a7565b868310156104e957848901516104e5601f8916826103f8565b8355505b6001600288020188555050505b505050505050565b6107bb8061050b5f395ff3fe608060405234801561000f575f5ffd5b506004361061004a575f3560e01c806306fdde031461004e5780630d3ffb401461006c578063262a9dff14610088578063d6afc9b1146100a6575b5f5ffd5b6100566100c5565b6040516100639190610279565b60405180910390f35b61008660048036038101906100819190610409565b610150565b005b61009061016a565b60405161009d9190610472565b60405180910390f35b6100ae610170565b6040516100bc92919061048b565b60405180910390f35b5f80546100d1906104e6565b80601f01602080910402602001604051908101604052809291908181526020018280546100fd906104e6565b80156101485780601f1061011f57610100808354040283529160200191610148565b820191905f5260205f20905b81548152906001019060200180831161012b57829003601f168201915b505050505081565b815f908161015e91906106b6565b50806001819055505050565b60015481565b60605f5f600154818054610183906104e6565b80601f01602080910402602001604051908101604052809291908181526020018280546101af906104e6565b80156101fa5780601f106101d1576101008083540402835291602001916101fa565b820191905f5260205f20905b8154815290600101906020018083116101dd57829003601f168201915b50505050509150915091509091565b5f81519050919050565b5f82825260208201905092915050565b8281835e5f83830152505050565b5f601f19601f8301169050919050565b5f61024b82610209565b6102558185610213565b9350610265818560208601610223565b61026e81610231565b840191505092915050565b5f6020820190508181035f8301526102918184610241565b905092915050565b5f604051905090565b5f5ffd5b5f5ffd5b5f5ffd5b5f5ffd5b7f4e487b71000000000000000000000000000000000000000000000000000000005f52604160045260245ffd5b6102e882610231565b810181811067ffffffffffffffff82111715610307576103066102b2565b5b80604052505050565b5f610319610299565b905061032582826102df565b919050565b5f67ffffffffffffffff821115610344576103436102b2565b5b61034d82610231565b9050602081019050919050565b828183375f83830152505050565b5f61037a6103758461032a565b610310565b905082815260208101848484011115610396576103956102ae565b5b6103a184828561035a565b509392505050565b5f82601f8301126103bd576103bc6102aa565b5b81356103cd848260208601610368565b91505092915050565b5f819050919050565b6103e8816103d6565b81146103f2575f5ffd5b50565b5f81359050610403816103df565b92915050565b5f5f6040838503121561041f5761041e6102a2565b5b5f83013567ffffffffffffffff81111561043c5761043b6102a6565b5b610448858286016103a9565b9250506020610459858286016103f5565b9150509250929050565b61046c816103d6565b82525050565b5f6020820190506104855f830184610463565b92915050565b5f6040820190508181035f8301526104a38185610241565b90506104b26020830184610463565b9392505050565b7f4e487b71000000000000000000000000000000000000000000000000000000005f52602260045260245ffd5b5f60028204905060018216806104fd57607f821691505b6020821081036105105761050f6104b9565b5b50919050565b5f819050815f5260205f209050919050565b5f6020601f8301049050919050565b5f82821b905092915050565b5f600883026105727fffffffffffffffffffffffffffffffffffffffffffffffffffffffffffffffff82610537565b61057c8683610537565b95508019841693508086168417925050509392505050565b5f819050919050565b5f6105b76105b26105ad846103d6565b610594565b6103d6565b9050919050565b5f819050919050565b6105d08361059d565b6105e46105dc826105be565b848454610543565b825550505050565b5f5f905090565b6105fb6105ec565b6106068184846105c7565b505050565b5b818110156106295761061e5f826105f3565b60018101905061060c565b5050565b601f82111561066e5761063f81610516565b61064884610528565b81016020851015610657578190505b61066b61066385610528565b83018261060b565b50505b505050565b5f82821c905092915050565b5f61068e5f1984600802610673565b1980831691505092915050565b5f6106a6838361067f565b9150826002028217905092915050565b6106bf82610209565b67ffffffffffffffff8111156106d8576106d76102b2565b5b6106e282546104e6565b6106ed82828561062d565b5f60209050601f83116001811461071e575f841561070c578287015190505b610716858261069b565b86555061077d565b601f19841661072c86610516565b5f5b828110156107535784890151825560018201915060208501945060208101905061072e565b86831015610770578489015161076c601f89168261067f565b8355505b6001600288020188555050505b50505050505056fea26469706673582212205ab3961bcb4f643f012ea7735f088146c658c650457b964ac33ec13bc45d815064736f6c634300081e0033",
					"opcodes": "PUSH1 0x80 PUSH1 0x40 MSTORE CALLVALUE DUP1 ISZERO PUSH2 0xF JUMPI PUSH0 PUSH0 REVERT JUMPDEST POP PUSH1 0x40 MLOAD PUSH2 0xCC6 CODESIZE SUB DUP1 PUSH2 0xCC6 DUP4 CODECOPY DUP2 DUP2 ADD PUSH1 0x40 MSTORE DUP2 ADD SWAP1 PUSH2 0x31 SWAP2 SWAP1 PUSH2 0x1CE JUMP JUMPDEST DUP2 PUSH0 SWAP1 DUP2 PUSH2 0x3F SWAP2 SWAP1 PUSH2 0x42F JUMP JUMPDEST POP DUP1 PUSH1 0x1 DUP2 SWAP1 SSTORE POP POP POP PUSH2 0x4FE JUMP JUMPDEST PUSH0 PUSH1 0x40 MLOAD SWAP1 POP SWAP1 JUMP JUMPDEST PUSH0 PUSH0 REVERT JUMPDEST PUSH0 PUSH0 REVERT JUMPDEST PUSH0 PUSH0 REVERT JUMPDEST PUSH0 PUSH0 REVERT JUMPDEST PUSH0 PUSH1 0x1F NOT PUSH1 0x1F DUP4 ADD AND SWAP1 POP SWAP2 SWAP1 POP JUMP JUMPDEST PUSH32 0x4E487B7100000000000000000000000000000000000000000000000000000000 PUSH0 MSTORE PUSH1 0x41 PUSH1 0x4 MSTORE PUSH1 0x24 PUSH0 REVERT JUMPDEST PUSH2 0xAD DUP3 PUSH2 0x67 JUMP JUMPDEST DUP2 ADD DUP2 DUP2 LT PUSH8 0xFFFFFFFFFFFFFFFF DUP3 GT OR ISZERO PUSH2 0xCC JUMPI PUSH2 0xCB PUSH2 0x77 JUMP JUMPDEST JUMPDEST DUP1 PUSH1 0x40 MSTORE POP POP POP JUMP JUMPDEST PUSH0 PUSH2 0xDE PUSH2 0x4E JUMP JUMPDEST SWAP1 POP PUSH2 0xEA DUP3 DUP3 PUSH2 0xA4 JUMP JUMPDEST SWAP2 SWAP1 POP JUMP JUMPDEST PUSH0 PUSH8 0xFFFFFFFFFFFFFFFF DUP3 GT ISZERO PUSH2 0x109 JUMPI PUSH2 0x108 PUSH2 0x77 JUMP JUMPDEST JUMPDEST PUSH2 0x112 DUP3 PUSH2 0x67 JUMP JUMPDEST SWAP1 POP PUSH1 0x20 DUP2 ADD SWAP1 POP SWAP2 SWAP1 POP JUMP JUMPDEST DUP3 DUP2 DUP4 MCOPY PUSH0 DUP4 DUP4 ADD MSTORE POP POP POP JUMP JUMPDEST PUSH0 PUSH2 0x13F PUSH2 0x13A DUP5 PUSH2 0xEF JUMP JUMPDEST PUSH2 0xD5 JUMP JUMPDEST SWAP1 POP DUP3 DUP2 MSTORE PUSH1 0x20 DUP2 ADD DUP5 DUP5 DUP5 ADD GT ISZERO PUSH2 0x15B JUMPI PUSH2 0x15A PUSH2 0x63 JUMP JUMPDEST JUMPDEST PUSH2 0x166 DUP5 DUP3 DUP6 PUSH2 0x11F JUMP JUMPDEST POP SWAP4 SWAP3 POP POP POP JUMP JUMPDEST PUSH0 DUP3 PUSH1 0x1F DUP4 ADD SLT PUSH2 0x182 JUMPI PUSH2 0x181 PUSH2 0x5F JUMP JUMPDEST JUMPDEST DUP2 MLOAD PUSH2 0x192 DUP5 DUP3 PUSH1 0x20 DUP7 ADD PUSH2 0x12D JUMP JUMPDEST SWAP2 POP POP SWAP3 SWAP2 POP POP JUMP JUMPDEST PUSH0 DUP2 SWAP1 POP SWAP2 SWAP1 POP JUMP JUMPDEST PUSH2 0x1AD DUP2 PUSH2 0x19B JUMP JUMPDEST DUP2 EQ PUSH2 0x1B7 JUMPI PUSH0 PUSH0 REVERT JUMPDEST POP JUMP JUMPDEST PUSH0 DUP2 MLOAD SWAP1 POP PUSH2 0x1C8 DUP2 PUSH2 0x1A4 JUMP JUMPDEST SWAP3 SWAP2 POP POP JUMP JUMPDEST PUSH0 PUSH0 PUSH1 0x40 DUP4 DUP6 SUB SLT ISZERO PUSH2 0x1E4 JUMPI PUSH2 0x1E3 PUSH2 0x57 JUMP JUMPDEST JUMPDEST PUSH0 DUP4 ADD MLOAD PUSH8 0xFFFFFFFFFFFFFFFF DUP2 GT ISZERO PUSH2 0x201 JUMPI PUSH2 0x200 PUSH2 0x5B JUMP JUMPDEST JUMPDEST PUSH2 0x20D DUP6 DUP3 DUP7 ADD PUSH2 0x16E JUMP JUMPDEST SWAP3 POP POP PUSH1 0x20 PUSH2 0x21E DUP6 DUP3 DUP7 ADD PUSH2 0x1BA JUMP JUMPDEST SWAP2 POP POP SWAP3 POP SWAP3 SWAP1 POP JUMP JUMPDEST PUSH0 DUP2 MLOAD SWAP1 POP SWAP2 SWAP1 POP JUMP JUMPDEST PUSH32 0x4E487B7100000000000000000000000000000000000000000000000000000000 PUSH0 MSTORE PUSH1 0x22 PUSH1 0x4 MSTORE PUSH1 0x24 PUSH0 REVERT JUMPDEST PUSH0 PUSH1 0x2 DUP3 DIV SWAP1 POP PUSH1 0x1 DUP3 AND DUP1 PUSH2 0x276 JUMPI PUSH1 0x7F DUP3 AND SWAP2 POP JUMPDEST PUSH1 0x20 DUP3 LT DUP2 SUB PUSH2 0x289 JUMPI PUSH2 0x288 PUSH2 0x232 JUMP JUMPDEST JUMPDEST POP SWAP2 SWAP1 POP JUMP JUMPDEST PUSH0 DUP2 SWAP1 POP DUP2 PUSH0 MSTORE PUSH1 0x20 PUSH0 KECCAK256 SWAP1 POP SWAP2 SWAP1 POP JUMP JUMPDEST PUSH0 PUSH1 0x20 PUSH1 0x1F DUP4 ADD DIV SWAP1 POP SWAP2 SWAP1 POP JUMP JUMPDEST PUSH0 DUP3 DUP3 SHL SWAP1 POP SWAP3 SWAP2 POP POP JUMP JUMPDEST PUSH0 PUSH1 0x8 DUP4 MUL PUSH2 0x2EB PUSH32 0xFFFFFFFFFFFFFFFFFFFFFFFFFFFFFFFFFFFFFFFFFFFFFFFFFFFFFFFFFFFFFFFF DUP3 PUSH2 0x2B0 JUMP JUMPDEST PUSH2 0x2F5 DUP7 DUP4 PUSH2 0x2B0 JUMP JUMPDEST SWAP6 POP DUP1 NOT DUP5 AND SWAP4 POP DUP1 DUP7 AND DUP5 OR SWAP3 POP POP POP SWAP4 SWAP3 POP POP POP JUMP JUMPDEST PUSH0 DUP2 SWAP1 POP SWAP2 SWAP1 POP JUMP JUMPDEST PUSH0 PUSH2 0x330 PUSH2 0x32B PUSH2 0x326 DUP5 PUSH2 0x19B JUMP JUMPDEST PUSH2 0x30D JUMP JUMPDEST PUSH2 0x19B JUMP JUMPDEST SWAP1 POP SWAP2 SWAP1 POP JUMP JUMPDEST PUSH0 DUP2 SWAP1 POP SWAP2 SWAP1 POP JUMP JUMPDEST PUSH2 0x349 DUP4 PUSH2 0x316 JUMP JUMPDEST PUSH2 0x35D PUSH2 0x355 DUP3 PUSH2 0x337 JUMP JUMPDEST DUP5 DUP5 SLOAD PUSH2 0x2BC JUMP JUMPDEST DUP3 SSTORE POP POP POP POP JUMP JUMPDEST PUSH0 PUSH0 SWAP1 POP SWAP1 JUMP JUMPDEST PUSH2 0x374 PUSH2 0x365 JUMP JUMPDEST PUSH2 0x37F DUP2 DUP5 DUP5 PUSH2 0x340 JUMP JUMPDEST POP POP POP JUMP JUMPDEST JUMPDEST DUP2 DUP2 LT ISZERO PUSH2 0x3A2 JUMPI PUSH2 0x397 PUSH0 DUP3 PUSH2 0x36C JUMP JUMPDEST PUSH1 0x1 DUP2 ADD SWAP1 POP PUSH2 0x385 JUMP JUMPDEST POP POP JUMP JUMPDEST PUSH1 0x1F DUP3 GT ISZERO PUSH2 0x3E7 JUMPI PUSH2 0x3B8 DUP2 PUSH2 0x28F JUMP JUMPDEST PUSH2 0x3C1 DUP5 PUSH2 0x2A1 JUMP JUMPDEST DUP2 ADD PUSH1 0x20 DUP6 LT ISZERO PUSH2 0x3D0 JUMPI DUP2 SWAP1 POP JUMPDEST PUSH2 0x3E4 PUSH2 0x3DC DUP6 PUSH2 0x2A1 JUMP JUMPDEST DUP4 ADD DUP3 PUSH2 0x384 JUMP JUMPDEST POP POP JUMPDEST POP POP POP JUMP JUMPDEST PUSH0 DUP3 DUP3 SHR SWAP1 POP SWAP3 SWAP2 POP POP JUMP JUMPDEST PUSH0 PUSH2 0x407 PUSH0 NOT DUP5 PUSH1 0x8 MUL PUSH2 0x3EC JUMP JUMPDEST NOT DUP1 DUP4 AND SWAP2 POP POP SWAP3 SWAP2 POP POP JUMP JUMPDEST PUSH0 PUSH2 0x41F DUP4 DUP4 PUSH2 0x3F8 JUMP JUMPDEST SWAP2 POP DUP3 PUSH1 0x2 MUL DUP3 OR SWAP1 POP SWAP3 SWAP2 POP POP JUMP JUMPDEST PUSH2 0x438 DUP3 PUSH2 0x228 JUMP JUMPDEST PUSH8 0xFFFFFFFFFFFFFFFF DUP2 GT ISZERO PUSH2 0x451 JUMPI PUSH2 0x450 PUSH2 0x77 JUMP JUMPDEST JUMPDEST PUSH2 0x45B DUP3 SLOAD PUSH2 0x25F JUMP JUMPDEST PUSH2 0x466 DUP3 DUP3 DUP6 PUSH2 0x3A6 JUMP JUMPDEST PUSH0 PUSH1 0x20 SWAP1 POP PUSH1 0x1F DUP4 GT PUSH1 0x1 DUP2 EQ PUSH2 0x497 JUMPI PUSH0 DUP5 ISZERO PUSH2 0x485 JUMPI DUP3 DUP8 ADD MLOAD SWAP1 POP JUMPDEST PUSH2 0x48F DUP6 DUP3 PUSH2 0x414 JUMP JUMPDEST DUP7 SSTORE POP PUSH2 0x4F6 JUMP JUMPDEST PUSH1 0x1F NOT DUP5 AND PUSH2 0x4A5 DUP7 PUSH2 0x28F JUMP JUMPDEST PUSH0 JUMPDEST DUP3 DUP2 LT ISZERO PUSH2 0x4CC JUMPI DUP5 DUP10 ADD MLOAD DUP3 SSTORE PUSH1 0x1 DUP3 ADD SWAP2 POP PUSH1 0x20 DUP6 ADD SWAP5 POP PUSH1 0x20 DUP2 ADD SWAP1 POP PUSH2 0x4A7 JUMP JUMPDEST DUP7 DUP4 LT ISZERO PUSH2 0x4E9 JUMPI DUP5 DUP10 ADD MLOAD PUSH2 0x4E5 PUSH1 0x1F DUP10 AND DUP3 PUSH2 0x3F8 JUMP JUMPDEST DUP4 SSTORE POP JUMPDEST PUSH1 0x1 PUSH1 0x2 DUP9 MUL ADD DUP9 SSTORE POP POP POP JUMPDEST POP POP POP POP POP POP JUMP JUMPDEST PUSH2 0x7BB DUP1 PUSH2 0x50B PUSH0 CODECOPY PUSH0 RETURN INVALID PUSH1 0x80 PUSH1 0x40 MSTORE CALLVALUE DUP1 ISZERO PUSH2 0xF JUMPI PUSH0 PUSH0 REVERT JUMPDEST POP PUSH1 0x4 CALLDATASIZE LT PUSH2 0x4A JUMPI PUSH0 CALLDATALOAD PUSH1 0xE0 SHR DUP1 PUSH4 0x6FDDE03 EQ PUSH2 0x4E JUMPI DUP1 PUSH4 0xD3FFB40 EQ PUSH2 0x6C JUMPI DUP1 PUSH4 0x262A9DFF EQ PUSH2 0x88 JUMPI DUP1 PUSH4 0xD6AFC9B1 EQ PUSH2 0xA6 JUMPI JUMPDEST PUSH0 PUSH0 REVERT JUMPDEST PUSH2 0x56 PUSH2 0xC5 JUMP JUMPDEST PUSH1 0x40 MLOAD PUSH2 0x63 SWAP2 SWAP1 PUSH2 0x279 JUMP JUMPDEST PUSH1 0x40 MLOAD DUP1 SWAP2 SUB SWAP1 RETURN JUMPDEST PUSH2 0x86 PUSH1 0x4 DUP1 CALLDATASIZE SUB DUP2 ADD SWAP1 PUSH2 0x81 SWAP2 SWAP1 PUSH2 0x409 JUMP JUMPDEST PUSH2 0x150 JUMP JUMPDEST STOP JUMPDEST PUSH2 0x90 PUSH2 0x16A JUMP JUMPDEST PUSH1 0x40 MLOAD PUSH2 0x9D SWAP2 SWAP1 PUSH2 0x472 JUMP JUMPDEST PUSH1 0x40 MLOAD DUP1 SWAP2 SUB SWAP1 RETURN JUMPDEST PUSH2 0xAE PUSH2 0x170 JUMP JUMPDEST PUSH1 0x40 MLOAD PUSH2 0xBC SWAP3 SWAP2 SWAP1 PUSH2 0x48B JUMP JUMPDEST PUSH1 0x40 MLOAD DUP1 SWAP2 SUB SWAP1 RETURN JUMPDEST PUSH0 DUP1 SLOAD PUSH2 0xD1 SWAP1 PUSH2 0x4E6 JUMP JUMPDEST DUP1 PUSH1 0x1F ADD PUSH1 0x20 DUP1 SWAP2 DIV MUL PUSH1 0x20 ADD PUSH1 0x40 MLOAD SWAP1 DUP2 ADD PUSH1 0x40 MSTORE DUP1 SWAP3 SWAP2 SWAP1 DUP2 DUP2 MSTORE PUSH1 0x20 ADD DUP3 DUP1 SLOAD PUSH2 0xFD SWAP1 PUSH2 0x4E6 JUMP JUMPDEST DUP1 ISZERO PUSH2 0x148 JUMPI DUP1 PUSH1 0x1F LT PUSH2 0x11F JUMPI PUSH2 0x100 DUP1 DUP4 SLOAD DIV MUL DUP4 MSTORE SWAP2 PUSH1 0x20 ADD SWAP2 PUSH2 0x148 JUMP JUMPDEST DUP3 ADD SWAP2 SWAP1 PUSH0 MSTORE PUSH1 0x20 PUSH0 KECCAK256 SWAP1 JUMPDEST DUP2 SLOAD DUP2 MSTORE SWAP1 PUSH1 0x1 ADD SWAP1 PUSH1 0x20 ADD DUP1 DUP4 GT PUSH2 0x12B JUMPI DUP3 SWAP1 SUB PUSH1 0x1F AND DUP3 ADD SWAP2 JUMPDEST POP POP POP POP POP DUP2 JUMP JUMPDEST DUP2 PUSH0 SWAP1 DUP2 PUSH2 0x15E SWAP2 SWAP1 PUSH2 0x6B6 JUMP JUMPDEST POP DUP1 PUSH1 0x1 DUP2 SWAP1 SSTORE POP POP POP JUMP JUMPDEST PUSH1 0x1 SLOAD DUP2 JUMP JUMPDEST PUSH1 0x60 PUSH0 PUSH0 PUSH1 0x1 SLOAD DUP2 DUP1 SLOAD PUSH2 0x183 SWAP1 PUSH2 0x4E6 JUMP JUMPDEST DUP1 PUSH1 0x1F ADD PUSH1 0x20 DUP1 SWAP2 DIV MUL PUSH1 0x20 ADD PUSH1 0x40 MLOAD SWAP1 DUP2 ADD PUSH1 0x40 MSTORE DUP1 SWAP3 SWAP2 SWAP1 DUP2 DUP2 MSTORE PUSH1 0x20 ADD DUP3 DUP1 SLOAD PUSH2 0x1AF SWAP1 PUSH2 0x4E6 JUMP JUMPDEST DUP1 ISZERO PUSH2 0x1FA JUMPI DUP1 PUSH1 0x1F LT PUSH2 0x1D1 JUMPI PUSH2 0x100 DUP1 DUP4 SLOAD DIV MUL DUP4 MSTORE SWAP2 PUSH1 0x20 ADD SWAP2 PUSH2 0x1FA JUMP JUMPDEST DUP3 ADD SWAP2 SWAP1 PUSH0 MSTORE PUSH1 0x20 PUSH0 KECCAK256 SWAP1 JUMPDEST DUP2 SLOAD DUP2 MSTORE SWAP1 PUSH1 0x1 ADD SWAP1 PUSH1 0x20 ADD DUP1 DUP4 GT PUSH2 0x1DD JUMPI DUP3 SWAP1 SUB PUSH1 0x1F AND DUP3 ADD SWAP2 JUMPDEST POP POP POP POP POP SWAP2 POP SWAP2 POP SWAP2 POP SWAP1 SWAP2 JUMP JUMPDEST PUSH0 DUP2 MLOAD SWAP1 POP SWAP2 SWAP1 POP JUMP JUMPDEST PUSH0 DUP3 DUP3 MSTORE PUSH1 0x20 DUP3 ADD SWAP1 POP SWAP3 SWAP2 POP POP JUMP JUMPDEST DUP3 DUP2 DUP4 MCOPY PUSH0 DUP4 DUP4 ADD MSTORE POP POP POP JUMP JUMPDEST PUSH0 PUSH1 0x1F NOT PUSH1 0x1F DUP4 ADD AND SWAP1 POP SWAP2 SWAP1 POP JUMP JUMPDEST PUSH0 PUSH2 0x24B DUP3 PUSH2 0x209 JUMP JUMPDEST PUSH2 0x255 DUP2 DUP6 PUSH2 0x213 JUMP JUMPDEST SWAP4 POP PUSH2 0x265 DUP2 DUP6 PUSH1 0x20 DUP7 ADD PUSH2 0x223 JUMP JUMPDEST PUSH2 0x26E DUP2 PUSH2 0x231 JUMP JUMPDEST DUP5 ADD SWAP2 POP POP SWAP3 SWAP2 POP POP JUMP JUMPDEST PUSH0 PUSH1 0x20 DUP3 ADD SWAP1 POP DUP2 DUP2 SUB PUSH0 DUP4 ADD MSTORE PUSH2 0x291 DUP2 DUP5 PUSH2 0x241 JUMP JUMPDEST SWAP1 POP SWAP3 SWAP2 POP POP JUMP JUMPDEST PUSH0 PUSH1 0x40 MLOAD SWAP1 POP SWAP1 JUMP JUMPDEST PUSH0 PUSH0 REVERT JUMPDEST PUSH0 PUSH0 REVERT JUMPDEST PUSH0 PUSH0 REVERT JUMPDEST PUSH0 PUSH0 REVERT JUMPDEST PUSH32 0x4E487B7100000000000000000000000000000000000000000000000000000000 PUSH0 MSTORE PUSH1 0x41 PUSH1 0x4 MSTORE PUSH1 0x24 PUSH0 REVERT JUMPDEST PUSH2 0x2E8 DUP3 PUSH2 0x231 JUMP JUMPDEST DUP2 ADD DUP2 DUP2 LT PUSH8 0xFFFFFFFFFFFFFFFF DUP3 GT OR ISZERO PUSH2 0x307 JUMPI PUSH2 0x306 PUSH2 0x2B2 JUMP JUMPDEST JUMPDEST DUP1 PUSH1 0x40 MSTORE POP POP POP JUMP JUMPDEST PUSH0 PUSH2 0x319 PUSH2 0x299 JUMP JUMPDEST SWAP1 POP PUSH2 0x325 DUP3 DUP3 PUSH2 0x2DF JUMP JUMPDEST SWAP2 SWAP1 POP JUMP JUMPDEST PUSH0 PUSH8 0xFFFFFFFFFFFFFFFF DUP3 GT ISZERO PUSH2 0x344 JUMPI PUSH2 0x343 PUSH2 0x2B2 JUMP JUMPDEST JUMPDEST PUSH2 0x34D DUP3 PUSH2 0x231 JUMP JUMPDEST SWAP1 POP PUSH1 0x20 DUP2 ADD SWAP1 POP SWAP2 SWAP1 POP JUMP JUMPDEST DUP3 DUP2 DUP4 CALLDATACOPY PUSH0 DUP4 DUP4 ADD MSTORE POP POP POP JUMP JUMPDEST PUSH0 PUSH2 0x37A PUSH2 0x375 DUP5 PUSH2 0x32A JUMP JUMPDEST PUSH2 0x310 JUMP JUMPDEST SWAP1 POP DUP3 DUP2 MSTORE PUSH1 0x20 DUP2 ADD DUP5 DUP5 DUP5 ADD GT ISZERO PUSH2 0x396 JUMPI PUSH2 0x395 PUSH2 0x2AE JUMP JUMPDEST JUMPDEST PUSH2 0x3A1 DUP5 DUP3 DUP6 PUSH2 0x35A JUMP JUMPDEST POP SWAP4 SWAP3 POP POP POP JUMP JUMPDEST PUSH0 DUP3 PUSH1 0x1F DUP4 ADD SLT PUSH2 0x3BD JUMPI PUSH2 0x3BC PUSH2 0x2AA JUMP JUMPDEST JUMPDEST DUP2 CALLDATALOAD PUSH2 0x3CD DUP5 DUP3 PUSH1 0x20 DUP7 ADD PUSH2 0x368 JUMP JUMPDEST SWAP2 POP POP SWAP3 SWAP2 POP POP JUMP JUMPDEST PUSH0 DUP2 SWAP1 POP SWAP2 SWAP1 POP JUMP JUMPDEST PUSH2 0x3E8 DUP2 PUSH2 0x3D6 JUMP JUMPDEST DUP2 EQ PUSH2 0x3F2 JUMPI PUSH0 PUSH0 REVERT JUMPDEST POP JUMP JUMPDEST PUSH0 DUP2 CALLDATALOAD SWAP1 POP PUSH2 0x403 DUP2 PUSH2 0x3DF JUMP JUMPDEST SWAP3 SWAP2 POP POP JUMP JUMPDEST PUSH0 PUSH0 PUSH1 0x40 DUP4 DUP6 SUB SLT ISZERO PUSH2 0x41F JUMPI PUSH2 0x41E PUSH2 0x2A2 JUMP JUMPDEST JUMPDEST PUSH0 DUP4 ADD CALLDATALOAD PUSH8 0xFFFFFFFFFFFFFFFF DUP2 GT ISZERO PUSH2 0x43C JUMPI PUSH2 0x43B PUSH2 0x2A6 JUMP JUMPDEST JUMPDEST PUSH2 0x448 DUP6 DUP3 DUP7 ADD PUSH2 0x3A9 JUMP JUMPDEST SWAP3 POP POP PUSH1 0x20 PUSH2 0x459 DUP6 DUP3 DUP7 ADD PUSH2 0x3F5 JUMP JUMPDEST SWAP2 POP POP SWAP3 POP SWAP3 SWAP1 POP JUMP JUMPDEST PUSH2 0x46C DUP2 PUSH2 0x3D6 JUMP JUMPDEST DUP3 MSTORE POP POP JUMP JUMPDEST PUSH0 PUSH1 0x20 DUP3 ADD SWAP1 POP PUSH2 0x485 PUSH0 DUP4 ADD DUP5 PUSH2 0x463 JUMP JUMPDEST SWAP3 SWAP2 POP POP JUMP JUMPDEST PUSH0 PUSH1 0x40 DUP3 ADD SWAP1 POP DUP2 DUP2 SUB PUSH0 DUP4 ADD MSTORE PUSH2 0x4A3 DUP2 DUP6 PUSH2 0x241 JUMP JUMPDEST SWAP1 POP PUSH2 0x4B2 PUSH1 0x20 DUP4 ADD DUP5 PUSH2 0x463 JUMP JUMPDEST SWAP4 SWAP3 POP POP POP JUMP JUMPDEST PUSH32 0x4E487B7100000000000000000000000000000000000000000000000000000000 PUSH0 MSTORE PUSH1 0x22 PUSH1 0x4 MSTORE PUSH1 0x24 PUSH0 REVERT JUMPDEST PUSH0 PUSH1 0x2 DUP3 DIV SWAP1 POP PUSH1 0x1 DUP3 AND DUP1 PUSH2 0x4FD JUMPI PUSH1 0x7F DUP3 AND SWAP2 POP JUMPDEST PUSH1 0x20 DUP3 LT DUP2 SUB PUSH2 0x510 JUMPI PUSH2 0x50F PUSH2 0x4B9 JUMP JUMPDEST JUMPDEST POP SWAP2 SWAP1 POP JUMP JUMPDEST PUSH0 DUP2 SWAP1 POP DUP2 PUSH0 MSTORE PUSH1 0x20 PUSH0 KECCAK256 SWAP1 POP SWAP2 SWAP1 POP JUMP JUMPDEST PUSH0 PUSH1 0x20 PUSH1 0x1F DUP4 ADD DIV SWAP1 POP SWAP2 SWAP1 POP JUMP JUMPDEST PUSH0 DUP3 DUP3 SHL SWAP1 POP SWAP3 SWAP2 POP POP JUMP JUMPDEST PUSH0 PUSH1 0x8 DUP4 MUL PUSH2 0x572 PUSH32 0xFFFFFFFFFFFFFFFFFFFFFFFFFFFFFFFFFFFFFFFFFFFFFFFFFFFFFFFFFFFFFFFF DUP3 PUSH2 0x537 JUMP JUMPDEST PUSH2 0x57C DUP7 DUP4 PUSH2 0x537 JUMP JUMPDEST SWAP6 POP DUP1 NOT DUP5 AND SWAP4 POP DUP1 DUP7 AND DUP5 OR SWAP3 POP POP POP SWAP4 SWAP3 POP POP POP JUMP JUMPDEST PUSH0 DUP2 SWAP1 POP SWAP2 SWAP1 POP JUMP JUMPDEST PUSH0 PUSH2 0x5B7 PUSH2 0x5B2 PUSH2 0x5AD DUP5 PUSH2 0x3D6 JUMP JUMPDEST PUSH2 0x594 JUMP JUMPDEST PUSH2 0x3D6 JUMP JUMPDEST SWAP1 POP SWAP2 SWAP1 POP JUMP JUMPDEST PUSH0 DUP2 SWAP1 POP SWAP2 SWAP1 POP JUMP JUMPDEST PUSH2 0x5D0 DUP4 PUSH2 0x59D JUMP JUMPDEST PUSH2 0x5E4 PUSH2 0x5DC DUP3 PUSH2 0x5BE JUMP JUMPDEST DUP5 DUP5 SLOAD PUSH2 0x543 JUMP JUMPDEST DUP3 SSTORE POP POP POP POP JUMP JUMPDEST PUSH0 PUSH0 SWAP1 POP SWAP1 JUMP JUMPDEST PUSH2 0x5FB PUSH2 0x5EC JUMP JUMPDEST PUSH2 0x606 DUP2 DUP5 DUP5 PUSH2 0x5C7 JUMP JUMPDEST POP POP POP JUMP JUMPDEST JUMPDEST DUP2 DUP2 LT ISZERO PUSH2 0x629 JUMPI PUSH2 0x61E PUSH0 DUP3 PUSH2 0x5F3 JUMP JUMPDEST PUSH1 0x1 DUP2 ADD SWAP1 POP PUSH2 0x60C JUMP JUMPDEST POP POP JUMP JUMPDEST PUSH1 0x1F DUP3 GT ISZERO PUSH2 0x66E JUMPI PUSH2 0x63F DUP2 PUSH2 0x516 JUMP JUMPDEST PUSH2 0x648 DUP5 PUSH2 0x528 JUMP JUMPDEST DUP2 ADD PUSH1 0x20 DUP6 LT ISZERO PUSH2 0x657 JUMPI DUP2 SWAP1 POP JUMPDEST PUSH2 0x66B PUSH2 0x663 DUP6 PUSH2 0x528 JUMP JUMPDEST DUP4 ADD DUP3 PUSH2 0x60B JUMP JUMPDEST POP POP JUMPDEST POP POP POP JUMP JUMPDEST PUSH0 DUP3 DUP3 SHR SWAP1 POP SWAP3 SWAP2 POP POP JUMP JUMPDEST PUSH0 PUSH2 0x68E PUSH0 NOT DUP5 PUSH1 0x8 MUL PUSH2 0x673 JUMP JUMPDEST NOT DUP1 DUP4 AND SWAP2 POP POP SWAP3 SWAP2 POP POP JUMP JUMPDEST PUSH0 PUSH2 0x6A6 DUP4 DUP4 PUSH2 0x67F JUMP JUMPDEST SWAP2 POP DUP3 PUSH1 0x2 MUL DUP3 OR SWAP1 POP SWAP3 SWAP2 POP POP JUMP JUMPDEST PUSH2 0x6BF DUP3 PUSH2 0x209 JUMP JUMPDEST PUSH8 0xFFFFFFFFFFFFFFFF DUP2 GT ISZERO PUSH2 0x6D8 JUMPI PUSH2 0x6D7 PUSH2 0x2B2 JUMP JUMPDEST JUMPDEST PUSH2 0x6E2 DUP3 SLOAD PUSH2 0x4E6 JUMP JUMPDEST PUSH2 0x6ED DUP3 DUP3 DUP6 PUSH2 0x62D JUMP JUMPDEST PUSH0 PUSH1 0x20 SWAP1 POP PUSH1 0x1F DUP4 GT PUSH1 0x1 DUP2 EQ PUSH2 0x71E JUMPI PUSH0 DUP5 ISZERO PUSH2 0x70C JUMPI DUP3 DUP8 ADD MLOAD SWAP1 POP JUMPDEST PUSH2 0x716 DUP6 DUP3 PUSH2 0x69B JUMP JUMPDEST DUP7 SSTORE POP PUSH2 0x77D JUMP JUMPDEST PUSH1 0x1F NOT DUP5 AND PUSH2 0x72C DUP7 PUSH2 0x516 JUMP JUMPDEST PUSH0 JUMPDEST DUP3 DUP2 LT ISZERO PUSH2 0x753 JUMPI DUP5 DUP10 ADD MLOAD DUP3 SSTORE PUSH1 0x1 DUP3 ADD SWAP2 POP PUSH1 0x20 DUP6 ADD SWAP5 POP PUSH1 0x20 DUP2 ADD SWAP1 POP PUSH2 0x72E JUMP JUMPDEST DUP7 DUP4 LT ISZERO PUSH2 0x770 JUMPI DUP5 DUP10 ADD MLOAD PUSH2 0x76C PUSH1 0x1F DUP10 AND DUP3 PUSH2 0x67F JUMP JUMPDEST DUP4 SSTORE POP JUMPDEST PUSH1 0x1 PUSH1 0x2 DUP9 MUL ADD DUP9 SSTORE POP POP POP JUMPDEST POP POP POP POP POP POP JUMP INVALID LOG2 PUSH5 0x6970667358 0x22 SLT KECCAK256 GAS 0xB3 SWAP7 SHL 0xCB 0x4F PUSH5 0x3F012EA773 PUSH0 ADDMOD DUP2 CHAINID 0xC6 PC 0xC6 POP GASLIMIT PUSH28 0x964AC33EC13BC45D815064736F6C634300081E003300000000000000 "
				},
				"gasEstimates": {
					"creation": {
						"codeDepositCost": "395800",
						"executionCost": "infinite",
						"totalCost": "infinite"
					},
					"external": {
						"age()": "2447",
						"getProfile()": "infinite",
						"name()": "infinite",
						"updateProfile(string,uint256)": "infinite"
					}
				},
				"methodIdentifiers": {
					"age()": "262a9dff",
					"getProfile()": "d6afc9b1",
					"name()": "06fdde03",
					"updateProfile(string,uint256)": "0d3ffb40"
				}
			},
			"storageLayout": {
				"storage": [
					{
						"astId": 3,
						"contract": "contracts/_profile.sol:Profile",
						"label": "name",
						"offset": 0,
						"slot": "0",
						"type": "t_string_storage"
					},
					{
						"astId": 5,
						"contract": "contracts/_profile.sol:Profile",
						"label": "age",
						"offset": 0,
						"slot": "1",
						"type": "t_uint256"
					}
				],
				"types": {
					"t_string_storage": {
						"encoding": "bytes",
						"label": "string",
						"numberOfBytes": "32"
					},
					"t_uint256": {
						"encoding": "inplace",
						"label": "uint256",
						"numberOfBytes": "32"
					}
				}
			},
			"userdoc": {
				"kind": "user",
				"methods": {},
				"version": 1
			}
		}
	}
}